:020000040800F2
:10000000E01E0020D5000008FD3E0008292A000857
:1000100000000000000000000000000000000000E0
:10002000000000000000000000000000056900085A
:1000300000000000000000007F6800080969000857
:10004000E7000008E7000008F5680008270C000832
:10005000E7000008F10B0008010C0008110C000873
:1000600000000000E7000008210B0008E70000087E
:10007000E7000008E700000800000000E7000008B3
:1000800000000000BD690008000000000000000042
:10009000AD69000800000000E70000082D2A0008F4
:1000A000E7000008E7000008E7000008E700000894
:1000B000E7000008E7000008000000000000000062
:1000C0000348854600F08AFC004800471177000885
:1000D000E01E00200448804704480047FEE7FEE792
:1000E000FEE7FEE7FEE7FEE7A9690008C100000899
:1000F00030B50B46014600202022012409E00D46C0
:10010000D5409D4205D31D469540491B2546954047
:1001100040191546521E002DF1DC30BD70B500248B
:100120002546002801DA01244042002901DA012590
:100130004942FFF7DDFFAC4200D04042002C00D026
:10014000494270BDF0B51FB40646002082B0054696
:100150004024019100901BE0019922460F46304651
:1001600000F044FB049A059B801A994110D3104675
:100170001946224600F02AFB361A8F410197224683
:1001800001200021009F00F021FB38184D41009014
:100190002046641E0028DFDC019B00982946324679
:1001A00007B0F0BD03460B439B0703D009E008C925
:1001B000121F08C0042AFAD203E00B780370401C17
:1001C000491C521EF9D27047D2B201E00270401CA5
:1001D000491EFBD270470022F6E710B513460A46C7
:1001E00004461946FFF7F0FF204610BD421C017877
:1001F000401C0029FBD1801A704710B5002200E096
:10020000521C835C8C5CA34201D1002BF8D1D8B284
:10021000E1B2401A10BD30B504460020034600E0AC
:100220005B1C934203D2E05CCD5C401BF8D030BD38
:10023000F8B502464A40D40F42004B0052085B0812
:100240009A4202D20246084611464A0023D0C30D04
:100250004A00DDB2120EAD1A202D35DA4902012610
:10026000490AF6058A19002C00D0524220214F1B62
:100270001146B9402A411018C20D9A4221D0002CD3
:1002800017D0012D08DCDA05801AD20F8019D207A9
:10029000DBB200F0D7FAF8BDDA05801A012340007E
:1002A0001B06C01880185A428018CA0F1043490014
:1002B00007E04908C2071143DA05801A801940088F
:1002C000801800F0B7FAF8BD61000122511A001B36
:1002D000F7E70122D2075140AAE70122D207504096
:1002E000A6E7024670B54A40D30FDB0740002DD089
:1002F0004A002AD0010E140E000212020919400A07
:10030000520A8418E50104465443000A120A2E04D6
:100310005043A4194219200CC543AA18120C0125F8
:10032000AD03521C521912047F39240400D0521C10
:10033000104301D44000491EC2B20C06C009201867
:10034000401C4008802A02D003E0002070BD400815
:100350004000002900DA0020184370BD70B5024645
:100360004A40D50F40004A00ED07400852080028D7
:1003700014D0002A12D0C40DD30D41020120C005B3
:100380005202490A520AE41A091812187D3491429D
:1003900001D3641C00E04900002C01DA002070BD8C
:1003A0000023914201D3891A0343400849000028E1
:1003B000F7D100290AD0914202D10121C90705E0F5
:1003C000914201D2012101E00121C943E005C01899
:1003D000401900F02FFA70BDF0B5074608465840A6
:1003E00087B0C00F049048000E46590040084908E5
:1003F000BC1A884105D2384631461E4617460B4680
:1004000002465800400810434CD0300D0390400580
:100410005900400D490D0590401A0290402872DAAB
:1004200018030121000B090508430190049800926C
:10043000002805D001995242002088410092019085
:10044000029840210A1A0199009800F0BFF9054668
:100450000C466B4607CB00F0DAF9C0197141039ADC
:100460000E0D0023D71756401A467A40164344D043
:10047000049A002A2DD0029A012A039A15DC12054B
:10048000C01A914101263605001C7141D20F059E0C
:10049000D2070093019202962A46234600F018FAEA
:1004A00007B0F0BD38463146FAE71605224A0F4636
:1004B000B218C01AB74101210905001C4F410018AC
:1004C0007F41114618187941E20F10436D196441BC
:1004D00013E0E2076D0815436408C2071443039A4A
:1004E00001261205C01A91413605001C7141CE0744
:1004F000400830434908C01851412A46234600F0BD
:10050000DAF9CDE7FFE7049801224000C117121A7B
:1005100000238B4104983146C417381AA141EEE7F5
:1005200030B40124E407634030BC55E730B4012403
:10053000E407614030BC4FE70000E0FFF0B51FB4B6
:1005400088B00B990998002448400999C00F4900C8
:1005500049080991C0070B990090490049080B917F
:1005600009990898A64608431CD00B990A98084395
:1005700018D0099801244000420D4800410D099807
:1005800024050003000B204309900B980003000B87
:1005900020430B9050181C4940180022019014462B
:1005A000104605E0002001460DB0F0BD032801DA39
:1005B000034600E003239C46C11A0AAE0AE05F002E
:1005C00008ADED5B4F00F75B7D430027AA187C4127
:1005D000491C5B1E6145F2DD410004AB5A52210407
:1005E000120C0A43240C401C0828DFDB01980290FF
:1005F0000099704601910090059B049A079906980E
:1006000000F066F9D0E700000DFCFFFFF0B50C46E6
:100610005C4085B0E40FE40703944C0000266408B6
:1006200059009446490802460296224321D0624668
:100630000A431ED06200570D4A000E032303550DD6
:10064000012402462C492405781B1B0B360B40184D
:1006500023432643614600901C46501AB44103D3FD
:100660000098401C009002E0921800985B4100281E
:1006700003DA0020014605B0F0BD00200121090584
:100680000746864611E064461D46141BB54106D355
:100690006546521BB341744607430C43A646CD073B
:1006A00040084908284392185B4105460D43EAD1AA
:1006B0001046184313D06046194650407140084315
:1006C00006D06046101AB34106D20122002306E08C
:1006D00000220123DB0702E00122D24353100098DD
:1006E00074460105381C6141029C039D0019694153
:1006F00000F0E1F8BFE70000FD030000C217C10FE2
:10070000504010B54018CA079623002100F09AF80F
:1007100010BD10B500229623114600F093F810BDCD
:10072000C20F410040020123400ADB05D207090E37
:10073000C0187F2901DA00207047962903DC962330
:10074000591AC84001E096398840002AF4D0404246
:100750007047C20FD207400040080BD0C10D0723DD
:10076000DB01C91840020905400A1143C2084007CD
:1007700011437047002001467047000010B5002962
:1007800004DB0124E40740428C412146002B04DBBA
:100790001C460123DB075242A3418B4200D1824217
:1007A00010BD00000122D207002800DB101A00292A
:1007B00000DB511A814270470122D207002800DB7A
:1007C000101A002900DB511A8842704710B5202A00
:1007D00004DB0146203A9140002010BD91402023C7
:1007E0009C1A0346E3401943904010BD10B5202ADF
:1007F00004DB0846203AD040002110BD0B46D34010
:10080000D0402024A21A91400843194610BD10B5CB
:10081000202A06DBCB170846203A1041C1170B43AC
:1008200006E00B461341D0402024A21A9140084311
:10083000194610BD002904DA401C490001D14008C6
:100840004000704770B40024050C05D1102400044A
:1008500002D1002921D01124050E01D10002083453
:10086000050F01D10001241D850F01D18000A41CBA
:10087000002801DB4000641C002908D020252E1B25
:100880000D46F540A14000D001212943084301064F
:100890001B1B000ADB1D02D5002070BC7047DB0566
:1008A000181880180029F8DA401C4900F5D170BCEE
:1008B00040084000704710B5002B08DA0024401CA7
:1008C000614192185B411A4301D14008400010BDBC
:1008D000F0B51FB482B005460C0003D0084606F000
:1008E000A7F902E006F0A4F9203002460090214664
:1008F0002846FFF76BFF049B059A04460F461843F2
:100900001143084314D0184610431BD000984021CF
:100910000A1A18460599FFF769FF05460E46009A20
:1009200005990498FFF752FF084305D0012004E021
:100930002046394607B0F0BD0020C11705430E43DD
:100940002C43374300990E986305401A7905E40A51
:1009500000220C43FD0A0A3002D500200146E9E7D7
:100960000105101969410C9C0D9D00196941FFF7A3
:10097000A2FFDFE74A0009030123090B1B05194306
:100980000A4B10B5520D9A4202DA0020014610BD02
:10099000064B34339A4203DC9A1AFFF727FF10BD47
:1009A000034BD218FFF712FF10BD0000FF03000039
:1009B000CDFBFFFF10B5002904DB0124E407404212
:1009C0008C412146002B04DB1C460123DB075242ED
:1009D000A341994200D1904210BD0000064C012570
:1009E000064E05E0E36807CC2B430C3C98471034D7
:1009F000B442F7D3FFF768FB589D0008789D0008C4
:100A000070B58C180578401C6B075B0F01D103781B
:100A1000401C2A1106D10278401C03E006780E70B3
:100A2000401C491C5B1EF9D12B0705D40023521E24
:100A30000DD40B70491CFAE70378401CCB1A921CAA
:100A400003E01D780D70491C5B1C521EF9D5A142B4
:100A5000D8D3002070BD000010B5097A002907D056
:100A600001290AD0022902D1064905F047FA10BD32
:100A70000449503905F042FA10BD0249283905F001
:100A80003DFA10BDB418002070B505460C4602F0C2
:100A9000F5FFC42002F0BCFF03F02CF8002803D0BF
:100AA00003F010F8012070BD284602F0B1FF03F0FA
:100AB00021F8204602F0ACFF03F01CF8002803D018
:100AC00003F000F8012070BD02F0FCFF002070BDB3
:100AD00010B586B001208003019003200290002011
:100AE000039001A90C4800F0BDFB082001900524EB
:100AF000240701A9204600F0B5FB0221019101A9BC
:100B0000064800F0AFFB0421019101A9204600F046
:100B1000A9FB06B010BD0000000800500004005002
:100B200010B5024800F0A1F910BD0000380C0020FB
:100B300030B5446C1C252C400125A540046C656033
:100B4000046863608368102B04D0036899600068B0
:100B5000C26030BD03689A600068C16030BD0000AB
:100B6000064BC01803E00378401C0B70491C134669
:100B7000521E92B2002BF6D1704700000000080808
:100B8000F7B582B00F461546284606F013FE0190D1
:100B9000284606F00FFE064600242A4601990298D0
:100BA000FFF7DEFF2A4631460298FFF7D9FF2A46B3
:100BB00031460198FFF72FFB00280CD0641CA4B22B
:100BC000022CEAD3304606F079FD019806F076FD56
:100BD000012005B0F0BD2A4638460199FFF7E2FA38
:100BE000304606F06BFD019806F068FD0020F0E746
:100BF00010B5012000F02AFB022000F027FB10BDF9
:100C000010B5042000F022FB082000F01FFB10BDEF
:100C100010B5102000F01AFB0120800300F016FB35
:100C200010BD72B6FEE710B500F012FA10BD00005C
:100C300010B5084900234B6107494A684C15224307
:100C40004A604A68082422434A60C009C001036020
:100C500010BD0000640D00200020024010B50020EF
:100C6000204A9169CB05204904D5486902231843DD
:100C70004861901593699B0505D54B690124234371
:100C80004B616302184393695B0505D54B690824E2
:100C900023434B61E301184393691B0505D54B6959
:100CA000042423434B616302184393699B0405D5D5
:100CB0004B69102423434B616302184393699B03E0
:100CC00004D54C6920231C434C6118439369DB0312
:100CD00005D54B69402423434B61A1020843906131
:100CE00010BD000000200240640D0020F8B504F0A3
:100CF00041F80024214E01256001821920011030A5
:100D000010232C21009504F0B4F9641CE4B2062CE5
:100D1000F2D310231AA218210420009504F034F90C
:100D200010231AA218214E20009504F02DF91A2341
:100D30007C2219464E20009503F0EAFA04F064F88C
:100D40007D25ED00284600F06FF900241926760174
:100D5000204614214843263001230E4A052104F081
:100D600056F9304600F060F904F04EF8641CE4B225
:100D7000032CEDD3284600F057F9F8BD597B000845
:100D800041636F7573746963000000004D61737493
:100D900065720000417B0008F8B503F0EBFF00240A
:100DA0001B4E01256001821920012A3010232821C1
:100DB000009504F05EF9641CE4B2032CF2D304F055
:100DC00023F8002420461421484326300123114AE9
:100DD0000A2104F01CF9642000F026F904F014F84C
:100DE000641CE4B2032CEDD30024204614214843B4
:100DF00026300023074A0A2104F009F9642000F094
:100E000013F904F001F8641CE4B2032CEDD3F8BD2F
:100E1000197C0008417B000870B500240146203190
:100E20004A79022A03D00421C163012418E0026830
:100E300013680E25AB431360026813685B085B0000
:100E40001360436C1C22134001252A469A40036C10
:100E50005A604D7100220A71816B002900D08847C9
:100E6000204670BD203040797047F0B4016C0B68AB
:100E700001680C68456C1C26042235401746AF40BB
:100E80001F4211D067070FD50B689B0602D40B6871
:100E900093430B60416C31408A40016C4A60016BA6
:100EA00000293AD0F0BC08470227AF4002461F4055
:100EB0002032002F17D0A70715D50B689B0605D445
:100EC0000B680A24A3430B6001215171436C02217A
:100ED00033409940036C596000211171C16A0029A7
:100EE0001BD0F0BC08470827AF401F4215D023078E
:100EF00013D50B680E24A3430B60436C01213340D0
:100F00000C469C40036C5C60C163517100211171FF
:100F1000416B002901D0F0BC0847F0BC70470000CD
:100F200070B50446002C3CD01F48256814212818B1
:100F3000FFF7DEF8800060641C4820640221204630
:100F4000203041712A681A490A40E368A16866693D
:100F50001943236933431943A3691943E3691943C7
:100F6000236A1943114329600122A1689203914227
:100F700010D00E4980318A6A636C1C2633400F25DD
:100F80009D40AA438A62636C626833409A408B6AD0
:100F90001A438A620021E16301224271017100203B
:100FA00070BD012070BD0000F8FFFDBF00000240D1
:100FB0000F80FFFFF8B504468C4600252046203000
:100FC0000179012909D00126067147790021012FF5
:100FD00005D0017102252846F8BD0220F8BD022780
:100FE0004771E16320680168490849000160614672
:100FF0002046FFF79DFD206B002805D02068016882
:101000000E221143016009E0206801680422914327
:101010000160206801680A221143016020680168AC
:1010200031430160D7E7000070B5044600F0D6F9FF
:101030000546601C02D004480078241800F0CEF960
:10104000401BA042FAD370BD000000207047000092
:10105000F8B5344DA8690024C005334E002811DBD3
:10106000A86980050ED4A86940050BD4A8690005BD
:1010700008D4A869800405D4A869800302D4A869AB
:10108000C00309D5307801282BD0B768FFF7E6FDFB
:10109000384600F04BF83470A869800712D502205A
:1010A000A861307800280DD0307801281ED06868FB
:1010B000082188436860B068FFF7C8FF0020C0437C
:1010C000B0603470307800280AD168684121C900C6
:1010D0008843686068680321090488436860347441
:1010E000F8BDF7680020C043F060CFE77068401E8D
:1010F0007060706800280DD0F068FFF7A7FFF068F7
:101100008030F06069680122520291436960FFF704
:101110008FFDD7E70020C043F0603470FFF796FFE3
:10112000D0E7000000200240640D0020704700005E
:1011300070B54049012088703F4C2078012830D09C
:1011400001243E4DA4032146284600F039F9002829
:101150003CD0052424070821204600F031F900285E
:1011600041D0374D0221284600F02AF9002847D007
:101170000421204600F024F900284ED00121204609
:1011800000F01EF900280BD01420FFF74DFF0121BD
:10119000204600F015F9002802D0052003F0A6FD36
:1011A00070BD00F0BFFB05F0B3FB264801F093F8DB
:1011B00025490020088020706420FFF735FF05F0E6
:1011C00058FBFF202D30FFF72FFF70BD1420FFF7D5
:1011D0002BFF2146284600F0F3F80028F5D1032024
:1011E00003F084FD70BD1420FFF71EFF0821204688
:1011F00000F0E6F80028F5D1042003F077FD70BD7B
:101200001420FFF711FF0221284600F0D9F800282A
:10121000F5D1022003F06AFD70BD1420FFF704FF32
:101220000421204600F0CCF80028F5D1012003F07D
:101230005DFD70BD14000020220000200008005059
:1012400000040050800C00202000002010B504494C
:101250004A69024202D04861FFF76AFF10BD0000F0
:1012600000040140F0B5002296E0012797403B4082
:10127000002B6ED00C79A407A40F012C01D0022CF6
:1012800010D1856854000326A640B543CE68A64019
:101290002E4386604468BC430D79ED06ED0F954002
:1012A000254345600C79E443A40708D0C568540081
:1012B0000326A640B5438E68A6402E43C6600C792F
:1012C000A407A40F022C0CD1D408A40027183D6A4F
:1012D0005407E40E0F26A640B5430E69A6402E43E0
:1012E0003E62056854000326A640B5430E79B60752
:1012F000B60FA6402E4306604C68A403A40F4AD044
:10130000284C666B01252E4366639508264CAD007C
:101310002F19BD689407240F0F26A640B543052654
:101320003607B04201D1002615E0204EB04201D16F
:10133000012610E01E4EB04201D102260BE01D4EE8
:10134000B04201D1032606E01B4EB04202D1052671
:1013500001E020E00626A6402E43BE60174DAC6893
:101360009C434E68F60200D51C43AC60EC689C437D
:101370004E68B60200D51C43EC606C689C434E6816
:10138000B60300D51C436C602C689C434E68F60382
:1013900000D51C432C60521C0B681C46D44000D066
:1013A00063E7F0BD0010024000000140000400505F
:1013B00000080050000C0050001C005000040140C8
:1013C0000069084201D00120704700207047002AC0
:1013D00001D08161704781627047000001488068D8
:1013E000704700000000002070B50246403253787C
:1013F000202B01D0022070BD1378012B19D00124BD
:1014000014702423537003681D68A5431D6003688E
:101410001D682603B5431D6003681D680D431D60EC
:101420000068016821430160202050700020107086
:1014300070BD022070BD70B5024640325378202B3B
:1014400001D0022070BD1378012B18D00125157032
:101450002423537003681C68AC431C6003681C6839
:101460000F263602B443090221431960006801685F
:1014700029430160202050700020107070BD0220B0
:1014800070BD000004494A6B01231A434A630349B3
:101490004A6802434A607047001002400000014061
:1014A0007047704770B5026893691168DB43DC05CB
:1014B00008D4CC43240605D4446C01252C43446451
:1014C0002C02D4615A0509D4CA43120606D4426CD0
:1014D000082422434264E2010468E2619A0509D4C7
:1014E000C943090606D4416C02221143416411022A
:1014F0000268D161416C0B22114201D001F0BCFBAA
:1015000070BD026891691268436B002B00D01847C8
:101510007047704770B50446002C06D0254640350C
:1015200068780026002802D005E0012070BD2E70EA
:10153000204600F09BF92420687020680168490863
:10154000490001600F21606809068843216808612D
:10155000206882680121C9038A438260E06801280B
:1015600009D02122A0689202104322689060E068AE
:10157000022805D008E0A068226808439060F6E7DA
:1015800001202268C0025060206842680F4B1A4355
:1015900042602068C2688A43C2606169206908436A
:1015A000A169090208432168C860216AE06908430B
:1015B00021680860206801680122114301606664A7
:1015C000202068702663AE70002070BD008000028D
:1015D0007047704770470000FFB581B00446114660
:1015E000254640356878202802D0022005B0F0BD9D
:1015F00020688069C043000401D40220F6E72878FF
:10160000012816D001202870212068701020A870B1
:1016100000266664616263853248E0623248606336
:10162000608D01235B06FF2805D9FF2020855F1010
:1016300004E00220DAE7608D20851F46208D002817
:1016400040D0A06B00281AD0284AC262A26B28485A
:101650005063A06B0663A06B86632268238D2832DB
:10166000A06BFFF7A7FC002813D020206870AE7095
:10167000606C1021084360642E700120B6E72020C2
:101680006870AE70606C8021084360642E70012029
:10169000ACE718480090208D3B46C2B22046029924
:1016A00002F002F9608D218D401A60852E701021A4
:1016B000204601F041FA206801680122920311439B
:1016C00001600DE00C4860630A480090002220464B
:1016D000029902F0E9F82E700121204601F02CFA5F
:1016E000002083E70000FFFFF1310008852A000891
:1016F0006D2A0008002000801933000870477047E9
:10170000FFB583B00446254640356878202802D0CE
:10171000022007B0F0BD0C98002815D00D980028C5
:1017200012D02878012814D001202870FFF756FE27
:10173000074601221923D1032046009702F0DDF865
:10174000002808D00120E4E7012040026064012065
:10175000DFE70220DDE7212068704020A870002626
:1017600066640C9860620D98608566630E980090C0
:10177000019704A90EC9204601F02EFF002802D0CF
:101780002E700120C5E7608DFF2809D9FF22228530
:1017900001231B0600962046049902F085F80AE012
:1017A000608D20850096208D0123C2B25B06204605
:1017B000049902F079F83A4620460E9902F0FAF8B8
:1017C000002801D00120A4E7606A216800788862BF
:1017D000606A401C6062608D401E6085208D401EE6
:1017E00080B22085618D002924D0002822D1009765
:1017F0000022802120460E9B02F07FF8002801D0B5
:10180000012086E7608DFF2809D9FF222285012368
:101810001B0600962046049902F046F80AE0608D07
:1018200020850096208D0123C2B25B0620460499D4
:1018300002F03AF8608D0028BDD13A4620460E9954
:1018400002F08CF8002801D0012062E720682021F6
:10185000C16120684268044B1A4042606970AE70F2
:101860002E70002055E7000000E800FE70B586B03D
:101870000646142101A8FEF7AEFC204930688842D4
:1018800039D11F4CE16A02200143E162E16A014063
:101890000091C020019012200290002503950320A2
:1018A00004900120059001A91648FFF7DBFCA06B0E
:1018B000012149050843A063144C13482060062009
:1018C00060601020A060E560802020616561A561F6
:1018D000E56125622046FFF723FB002801D0FFF7D2
:1018E000A0F9B463A66200220121172000F074F869
:1018F000172000F065F806B070BD000000540040ED
:1019000000100240000400501C000240380C00206F
:101910007047704702488168027889188160704773
:101920000000002010B50024074801684022114340
:101930000160002000F00AF8002801D0012401E035
:1019400000F028F8204610BD0020024070B5044683
:101950000E4D7D202978C000FEF7CAFB01460C48D9
:101960000068FEF7C5FB00F04DFE002801D0012005
:1019700070BD042C07D200222146501E00F02CF826
:101980006C60002070BD012070BD000000000020D0
:101990000C00002010B50948416B0122114341633E
:1019A000816B02041143816300220221032000F0B5
:1019B00013F8032000F004F810BD000000100240EE
:1019C000002805DBC106C90E0120884001490860D6
:1019D0007047000000E100E010B505F065F910BDAA
:1019E00002494A6802434A607047000000700040A4
:1019F000054801680222114301600448016904227C
:101A00001143016130BF70470070004000ED00E0FD
:101A1000F0B5154E326874152240144B1B6ADB0773
:101A2000DB0F002A04D0002B02D03568A5433560B7
:101A30003568AD08AD00054335600D4F3D690420A4
:101A400005433D6101290DD040BF20BF20BF39694A
:101A500081433961002A04D0002B02D03068204332
:101A60003060F0BD30BFF2E7007000400000014080
:101A700000ED00E0F8B50446002620785B4D8006B6
:101A80007ED55A484038806BC00006D4574840384D
:101A9000816B020411438163012655480168C90521
:101AA00012D40168821511430160FFF797FC0746C5
:101AB00006E0FFF793FCC01B642801D90320F8BDA2
:101AC0004B480068C005F4D54848403800680321F9
:101AD000090508406268114081420AD09003800FD6
:101AE000032806D1414840380068800301D5012011
:101AF000F8BD2869032109040840002821D00A40C4
:101B000082421ED0207880061BD5286988432A6926
:101B10000121C9040A432A612A698A432A6128618A
:101B2000C0050ED5FFF75AFC074607E0FFF756FC45
:101B3000C11B3048814201D90320F8BD28698005C6
:101B4000F4D52078800614D560688103890F0329B5
:101B500008D1264B403B19680322120591431040DF
:101B60000143196028690322616812041140084387
:101B70002861012E07D11D484038816B020400E026
:101B800001E0914381632078C00705D0E868A1682F
:101B9000800880000843E8602078800705D5E86861
:101BA0000C218843E1680843E8602078400706D5A7
:101BB000E86803218902884321690843E8602078A6
:101BC000000706D5E86803210903884361690843D3
:101BD000E8602078000606D5E86803218904884378
:101BE000A1690843E8600020F8BD000040100240F1
:101BF0000070004088130000F8B504460E46002C23
:101C00000FD068480068C007C00FB04218D2654FB7
:101C100038684008400030433860FFF7DFFB054676
:101C200009E00120F8BDFFF7D9FB411B5E48814266
:101C300001D90320F8BD3868C007C00FB042F2D107
:101C400020785A4F800705D5F868F0218843A168AD
:101C50000843F8602078C00760D06068022808D088
:101C600003280BD001280ED03968890510D4012033
:101C7000F8BD396889030BD40120F8BD39688901A2
:101C800006D40120F8BD3968490701D40120F8BD08
:101C9000F968890889000143F960FFF79FFB054651
:101CA000606802280CD0032818D0012824D031E025
:101CB000FFF794FB411B3C48814201D90320F8BD4A
:101CC000F8680007800F0228F2D127E0FFF786FBB3
:101CD000411B3548814201D90320F8BDF86800074F
:101CE000800F0328F2D119E0FFF778FB411B2E4843
:101CF000814201D90320F8BDF8680007800F012850
:101D0000F2D10BE0FFF76AFB411B2748814201D962
:101D10000320F8BDF8680007800FF3D1214801685F
:101D2000C907C90FB14217D90146086840084000E9
:101D300030430860FFF752FB054607E0FFF74EFB14
:101D4000411B1948814201D90320F8BD154800689C
:101D5000C007C00FB042F1D12078400706D5F8681F
:101D6000072109028843E1680843F86020780007EA
:101D700007D5F8680721C90288432169C9000843CB
:101D8000F86000F01BF8F968094A0906090F515C70
:101D9000C8400849086008480068FFF7D7FD0028D8
:101DA000D3D1F8BD0020024088130000001002408B
:101DB000287B00080C0000200400002070B5214E94
:101DC000F2680C21104608401F498B0004280CD0F3
:101DD0004D00082810D00C2810D070680004410F66
:101DE000491C0120C003884070BD3068C00601D581
:101DF000084670BD184670BD284670BD9002134C51
:101E0000000F205C1202940F641CF268D20307D505
:101E1000294604F024FF22460023FEF793F970BD03
:101E20003268D20606D504F01AFF22460023FEF7D8
:101E300089F970BD194604F012FF22460023FEF70F
:101E400081F970BD0010024000093D00387B000898
:101E5000FEB50446002C0FD0FE4DEE680C20064067
:101E6000EF680120000407402078C00753D0082EF7
:101E700008D00C2E02D00DE00120FEBD0120000490
:101E8000874207D12868800345D56068002842D181
:101E90000120FEBD012061680004814203D1296850
:101EA0000143296015E0052301221B049204994295
:101EB00006D129681143296029680143296008E097
:101EC000296881432960296801400091286890436E
:101ED0002860606800280FD0FFF780FA019007E0C3
:101EE000FFF77CFA0199401A642801D90320FEBD4E
:101EF00028688003F4D50EE0FFF770FA019007E040
:101F0000FFF76CFA0199401A642801D90320FEBD3D
:101F100028688003F4D4207880075AD5E068092126
:101F2000042E0DD00C2E01D1002F09D000283ED058
:101F30002A688A4302432A60FFF750FA07462AE0DC
:101F40002A68520701D500281CD06A681F231B028B
:101F50009A4323691B021A436A602A688A43024330
:101F60002A60FFF72BFFE96809060A0FBA49895C66
:101F7000C840BA490860BA480068FFF7E7FC002883
:101F8000C5D126E00120FEBDFFF728FAC01B0228BC
:101F900001D90320FEBD28684007F5D568681F21D8
:101FA00009028843216909020843686011E0286832
:101FB000400840002860FFF711FA074606E0FFF7E7
:101FC0000DFAC01B022801D90320FEBD2868400776
:101FD000F5D42078C00664D5002E0BD0A069002867
:101FE0004CD02868FF21013108432860FFF7F6F93B
:101FF000074631E02868800502D5A069002822D074
:102000006868072149038843216A08436860686853
:10201000217F0002000A090608436860206A410B1C
:10202000491C0120C0038840E96809060A0F8A4953
:10203000895CC8408949086089480068FFF786FCC8
:102040000028C2D12DE00120FEBDFFF7C7F9C01B5B
:10205000022801D90320FEBD28688005F5D56868EF
:10206000072149038843216A084368606868217F23
:102070000002000A09060843686012E02968FF2090
:10208000013081432960FFF7A9F9074606E0FFF711
:10209000A5F9C01B022801D90320FEBD28688005D0
:1020A000F5D420786F4F000729D56069002813D038
:1020B0003869012108433861FFF790F9019007E082
:1020C000FFF78CF90199401A022801D90320FEBDBF
:1020D00038698007F4D512E038694008400038615B
:1020E000FFF77CF9019007E0FFF778F90199401AB2
:1020F000022801D90320FEBD38698007F4D4207876
:10210000400775D500200090A86BC00006D4A86BCE
:10211000012109070843A863012000905248016883
:10212000C90514D4014608688A1510430860FFF7F2
:1021300055F9019007E0FFF751F90199401A642819
:1021400001D90320FEBD48480068C005F3D5FF2033
:10215000A2680130824203D13969014339611BE031
:1021600001218902002A0AD005231B029A420DD1BF
:102170003A690A433A613969014339610CE03A69C5
:1021800082433A6138698843386105E03A6982439D
:102190003A61386988433861A068002810D0FFF799
:1021A0001DF9019008E0FFF719F90199411A2F482C
:1021B000814201D90320FEBD38698005F3D50FE0C7
:1021C000FFF70CF9019008E0FFF708F90199411AAF
:1021D0002648814201D90320FEBD38698005F3D429
:1021E0000098012804D1A86B012109078843A8633E
:1021F000606A00286DD00C2E52D001273F060228BD
:1022000006D02868B8432860FFF7E8F8044643E0A2
:102210002868B8432860FFF7E1F8064606E0FFF7B4
:10222000DDF8801B022801D90320FEBD286880014B
:10223000F5D4E16AA06AEA680843216BFD231B0418
:102240009A4311430843E860286838432860FFF741
:10225000C5F80DE000100240287B00080C000020AB
:10226000040000204010024000700040881300006D
:10227000044606E0FFF7B2F8001B022801D903204C
:10228000FEBD28688001F5D523E0FFF7A7F8001B05
:10229000022801D90320FEBD28688001F5D418E08A
:1022A000012814D0E86801210904A26A0140914282
:1022B0000BD10F218904E26A0140914205D103212B
:1022C00089050840216B884203D00120FEBD012012
:1022D000FEBD0020FEBDF8B5044625462035287811
:1022E000012817D001272F70022068702168CA20AA
:1022F000486221685320486220688168BA0291438D
:10230000816020688168120191438160FFF766F85F
:10231000064611E00220F8BDFFF760F8811B7D2022
:10232000C000814208D92168FF20486203206870FC
:10233000002028700320F8BD2068C0684007EBD556
:102340002168FF2048626F7000202870F8BD0000EF
:10235000F7B582B004463B487D2109020068FDF7CD
:10236000C7FE7D21C90006464E4301962046203017
:102370000178012957D001210170022141702268A2
:10238000CA21516222685321516221688A68002360
:102390005205FF25002A08DA019A521E0192019A7D
:1023A000002A42D0CA685207F6D48A680127BF02C1
:1023B000BA438A602168CA6880273A40224FD219FE
:1023C000CA6001962168019A521E0192019A002A60
:1023D00031D0CA685207F6D58A68D208D2008A601E
:1023E00021688A68049E32438A6022680399516199
:1023F00016490A680126360532430A608A68324364
:102400008A6021688A68B61132438A6021688A68C6
:10241000361132438A6021684D6201214170037098
:10242000002005B0F0BD0220FBE74D6203214170A2
:1024300003700320F5E74D62032141700370032010
:10244000EFE700000C0000207FFBFFFF00040140CD
:1024500070B50646FFF766FA04F05AFA10211448E0
:10246000FEF7AEFF0025134C00281DD025802088E4
:102470003C2814D30F490420891C0870FFF752FA36
:1024800004F046FA3046FFF726FF25806420FEF769
:10249000CBFD04F0EEF9FF202D30FEF7C5FD012144
:1024A0000020FFF7B5FA70BD2088401C2080DEE7D1
:1024B000000400502000002010B5044601200B4904
:1024C000000548612168886840040BD5C86840054C
:1024D00008D5C86880221040054A8018C860204688
:1024E000FFF7B6FF01202034607010BD00040140EA
:1024F0007FFBFFFF70B50446002C05D02546203534
:102500006878002802D006E0012070BD0020287005
:10251000204600F045F8022068702068C168C94371
:10252000C90635D5CA214162216853204862204638
:1025300004F0A6F9002819D120688168174A1140D3
:102540008160206881686268A369114322691A4327
:10255000114381602168E06808612068016922896F
:10256000120411430161204604F0ADF900280BD19B
:102570002168CA6C92089200CA64E26961690A43E0
:102580002168CB6C1A43CA642268FF21516200E0C3
:1025900000200028B9D10121697070BDBFFF8FFFF5
:1025A00010B50068084988420DD108480169012228
:1025B000920411430161002201210220FFF70CFA6D
:1025C0000220FFF7FDF910BD002800404010024036
:1025D00070B5054629680A48C860FEF7FFFE044644
:1025E0007D26F60006E0FEF7F9FE001BB04201D999
:1025F000032070BD2868C0688006F4D5002070BD37
:102600005F7F010010B50949401E884201D90120B1
:1026100010BD074C60610321081F04F045FB00203A
:10262000A06107202061002010BD0000FFFFFF0017
:1026300000E000E0F0B502462032137E012B1ED0F0
:10264000012616760223537603685D689C6870271E
:10265000BD430F682F435F600068B307984205D001
:10266000084B984202D0084B984204D180239C43E7
:10267000496821438160567600201076F0BD022023
:10268000F0BD0000000801400014014070B505468F
:10269000002D05D02C462034607E002802D006E0B4
:1026A000012070BD00202076284600F00FF802209F
:1026B0006076291D286804F089F90120A077A076AA
:1026C000E076207760776076002070BD10B50068F6
:1026D000144A154990420CD1886B1022104388632C
:1026E000002202211120FFF777F91120FFF768F986
:1026F00010BD0E4A90420CD1486B0422104348632F
:10270000002203211420FFF767F91420FFF758F97E
:1027100010BD074A9042FBD1486B2022104348630A
:1027200010BD0000001000400010024000080140F1
:1027300000140140014620314A7E012A01D00120C7
:10274000704702224A76006851070122884205D06C
:102750000949884202D00949884208D1816849075D
:10276000490F062906D001681143016002E00168A3
:10277000114301600020704700080140001401402F
:10278000014620314A7E012A01D0012070470222F1
:102790004A760168CB6801221343CB600068910739
:1027A000884205D00949884202D00949884208D1A7
:1027B00081684907490F062906D001681143016065
:1027C00002E00168114301600020704700080140E9
:1027D0000014014001680A6A054B1A4203D10A68D5
:1027E000520852000A6001212030417600207047D3
:1027F000111100000168CA6852085200CA600168DD
:102800000A6A064B1A4203D10A68520852000A604B
:102810000121203041760020704700001111000096
:10282000704770B50446206801690025C9438907CF
:10283000002916DBC168C943890712D4E91E01616A
:102840000120207620688069800703D02046FFF7AA
:10285000E7FF05E0204600F07BF8204600F079F81D
:10286000257620680169C943490718D4C168C9435E
:10287000490714D40421C94301610220207620684D
:1028800080698005800F03D02046FFF7C9FF05E06F
:10289000204600F05DF8204600F05BF825762068C1
:1028A0000169C943090717D4C168C943090713D48B
:1028B0000821C9430161042020762068C06980078F
:1028C00003D02046FFF7ACFF05E0204600F040F8BB
:1028D000204600F03EF8257620680169C943C90604
:1028E00018D4C168C943C90614D41021C943016171
:1028F000082020762068C0698005800F03D020461C
:10290000FFF78EFF05E0204600F022F8204600F099
:1029100020F8257620680169C943C90708D1C16834
:10292000C943C90704D1891E0161204600F012F88D
:1029300020680169C943490609D4C168C9434906E9
:1029400005D44021C9430161204600F06CF870BDF8
:102950007047704770B505461A480024854211D16A
:10296000194A1078002806D014705178032905D22E
:10297000491C517006E001201070F6E754701420D5
:1029800003F064FB114885421BD10520012100079B
:10299000FEF716FD0E4900280FD00E4800780028DB
:1029A0000BD008880F2802D2401C088006E0FEF7F2
:1029B000F3F909490420087000E00C80064804F08F
:1029C00045FF70BDE40C002010000020A40C002086
:1029D00012000020250000202200002070B50546CE
:1029E0002C462034207E01280DD001262676022098
:1029F0006076284604F021F80021002805D066768C
:102A00002176012070BD022070BD2868C268402375
:102A10009A43C2602868C2681B029A43C260667605
:102A20002176002070BD7047FEE7000010B5074812
:102A3000006880694005400F03D00448FEF732FD6E
:102A400010BD0248FEF75DFD10BD0000E40B002044
:102A500010B5806A0022816B002900D08A63C16BA7
:102A6000002900D08A6300F035FF10BD10B5806AE0
:102A700001684A680123DB031A434A60102100F011
:102A8000FBF810BD10B5846A20680168012292032A
:102A900091430160608D002809D0218D606A411842
:102AA0006162608DFF2807D9FF20208506E0202184
:102AB000204600F041F810BD608D20852268238DEE
:102AC0002832A06BFEF776FA002804D010212046A9
:102AD00000F0D2F810BD4021204600F02DF810BDC6
:102AE000F0B500220346CE0740332824B025002E3F
:102AF00005D042225E782746B74300D0F2228E07E7
:102B000005D5442632435B789C4300D02A43CB0B47
:102B100001D0B8231A43102901D190231A43202948
:102B200001D120231A43402900D10A4300680168DB
:102B300091430160F0BD0000F0B500221B4C436BD7
:102B4000F225F4261A4FA34215D01A4CA34212D0F4
:102B5000BB4210D0CB0B00D0B822CB0700D02A4309
:102B60008B0700D53243102901D190231A43202925
:102B700017D10A4315E0CC0B00D0B822CC0700D007
:102B80002A438C0700D53243102901D190242243D7
:102B9000202901D160242243BB4202D0402900D128
:102BA0000A430068016811430160F0BDF13100087B
:102BB000753400084D36000801688A69D2439207CF
:102BC00001D400228A6200688169C943C90703D021
:102BD00081690122114381617047F8B50446254699
:102BE0004035687828218143206804D00821C161DC
:102BF00000202870F8BD8169C903CF0F8169FE23C9
:102C00000E0C1E4081688A05920DC16819408C46E1
:102C1000E16802290CD00121C9032046FFF760FFBB
:102C200000202870324639462046FEF73AFCF8BDAF
:102C30000621D3090E400B409E420FD1A16C491CC6
:102C4000A164A16C0229F2D10021A1640823C3610F
:102C5000297039462046FEF724FCF8BD664601215E
:102C6000C9032046FFF73CFF002028703246394652
:102C70002046FEF716FCF8BDF8B50446254640355B
:102C800068780026AE70414AE2626685626C0A434B
:102C90006264282835D0292833D02A2831D03C49ED
:102CA0002046FFF71DFF2046FFF786FF6878602863
:102CB00012D02021697020688269D24392060BD419
:102CC0008269D243D20605D41022C261606C04220C
:102CD000104360642068C1616663206BA16B2D4F57
:102CE000002903D0112815D0212813D0E16B002929
:102CF00003D012282CD022282AD0204600F0EAFD4A
:102D0000F8BD03212046FFF7EBFE2820687022481B
:102D10006063E2E720680168490404D50168012284
:102D2000920391430160A06BFEF79CF801280BD041
:102D3000A06B87632E70A06BFEF76EF80028DFD0C3
:102D4000A06B816B8847F8BD204600F0C3FDF8BD3D
:102D500020680168090404D501680122D203914367
:102D60000160E06BFEF77EF801280BD0E06B876313
:102D70002E70E06BFEF750F80028E8D0E06B816B16
:102D80008847F8BD204600F0A5FDF8BD0000FFFF14
:102D900003800000512A00086D37000870B5044612
:102DA0001548E062002626632020254640356870DD
:102DB000AE706663C843400712D42068406A616AF7
:102DC0000870606A401C6062208D002808D0401E98
:102DD0002085608D401E6085606C0421084360641E
:102DE00006492046FFF77CFE21681020C8612E703E
:102DF0002046FEF7EDFB70BD0000FFFF03800000E2
:102E0000FEB50546019128682026C6612C4640344F
:102E10006078212803D06078222807D00CE00121B7
:102E20002846FFF75DFE1120286305E002212846B1
:102E3000FFF756FE1220286328684168284A11408F
:102E4000416000276F632748E8620198C043C106CC
:102E500006D42A681021D161696C04221143696487
:102E60006178602905D1400703D42868406AC0B260
:102E700000902846FFF7A0FE686C6178602901D0B9
:102E8000002804D0696C2846FFF7F6FEFEBD607886
:102E900021280DD060782228F8D166702F63A078A1
:102EA000402816D0A77027702846FEF792FBFEBD7B
:102EB00066702F63A078402805D0A7702770284639
:102EC000FEF788FBFEBDA77027702846FEF717FCAB
:102ED000FEBDA77027702846FEF710FCFEBD00005F
:102EE00000E800FE0000FFFF70B5044600262546FE
:102EF0004035AE706978202021290CD068701220EE
:102F00002063666302212046FFF7EAFD2E7020460B
:102F1000FEF75FFB70BD68701120206366630121BE
:102F20002046FFF7DDFD2E702046FEF753FB70BDF7
:102F3000F8B504460E46226817682546403568787D
:102F40002021D161212806D0292804D0222809D0A7
:102F50002A2807D00DE045492046FFF7C1FD212072
:102F6000206306E041492046491CFFF7B9FD2220B5
:102F70002063206841680122D20311434160206828
:102F800041683B4A114041602046FFF715FEF84377
:102F900041040CD42068016801229203914301602E
:102FA000A06B002811D00068406860850DE0000427
:102FB0000BD4206802680121C9038A430260E06BD8
:102FC000002802D0006840686085F0434007042173
:102FD00000280FDB8E432068406A626A1070606AC6
:102FE000401C6062208D002804D0401E2085608D2A
:102FF000401E6085608D002802D0606C08436064CC
:103000000027AF706763606C00280BD0616C2046AE
:10301000FFF732FE6878282803D131462046FFF7B3
:10302000BDFEF8BDE06A134EB0420BD0204600F062
:1030300023F8E6622020687027632F702046FEF791
:10304000C7FAF8BD6878222807D020206870276367
:103050002F702046FEF75DFCF8BD202068702763C6
:103060002F702046FEF754FCF8BD000001800000E0
:1030700000E800FE0000FFFF70B505462868016803
:1030800000262C464034A670C9434A0405D4016882
:10309000012292039143016006E0090404D401680F
:1030A0000122D203914301606178282029290ED0A2
:1030B00061782A290AD160702220286302212846DB
:1030C000FFF70EFD26702846FEF722FC70BD6070EB
:1030D0002120286301212846FFF702FD267028469B
:1030E000FEF717FC70BD0000F7B582B00446174626
:1030F0000026206881690025CA06214640310191D9
:10310000002A42DA1021C16131E00398401C2ED020
:10311000FEF764F9C11B0398814202D80398002886
:1031200025D120684168012292031140019A9278CA
:103130008369DB431B0415D401239B03994211D0FF
:10314000202A0FD0416819434160FEF747F907462E
:1031500008E0FEF743F9C01B192803D920200543D6
:10316000012604E020688069C0438006F1D420680D
:1031700080698006C00F3043C7D0002E02D121687D
:103180002020C86104200543012621688869C20502
:1031900004D5012215431202CA610126410505D555
:1031A00008210D432268C901D1610126800505D59A
:1031B0000220054321680002C8610126002E12D0BA
:1031C0002046FFF7F9FC20684168084A1140416039
:1031D000606C2843606401992020487001990020A8
:1031E000887001990870304605B0F0BD00E800FE17
:1031F000F8B50446254640352878012817D0012027
:103200002870CB43DE06D043002E12DBC20610D45A
:1032100021681020C861606C04210843606420218B
:103220002046FFF789FC2046FFF7C6FC6CE0022031
:10323000F8BD374A374E1F0644D4470642D42068AB
:103240000168402399430160608D00282DD02068DB
:1032500040688105890D608DFF2803D9FF202085F6
:103260009B0408E0608D2085E06A904201D0E36A0B
:1032700001E001235B0600200090208DC2B22046B1
:1032800000F012FB608D218D401A6085687822283D
:1032900004D0206801683143016035E0206801688E
:1032A0000122D203114301602EE0206840688001B2
:1032B00003D42046FFF718FE26E040212046FFF702
:1032C000DBFC21E05F0618D4470616D4608D002889
:1032D00004D040212046FFF7CFFC15E0206841686C
:1032E000890111D4E16A914203D1416831434160BF
:1032F0000AE02046FFF7F8FD06E09A0604D48006AF
:1033000002D42046FFF77CFD00202870F8BD0000A5
:103310000000FFFF00400000F8B504460E462746B7
:1033200040373878012813D001203870F043C306A5
:103330000421D543002B0DDBEA060BD422681020B4
:10334000D061606C084360642046FFF735FC72E092
:103350000220F8BD420710D46A070ED48E432068BD
:10336000406A616A0870606A401C6062208D401E7D
:103370002085608D401E60855DE081070FD4A90720
:103380000DD4606A216800788862606A401C6062BF
:10339000208D401E2085608D401E60854BE0344AA4
:1033A00001063DD469063BD4608D002802D0208DF3
:1033B000002807D02068406880012CD42046FFF701
:1033C00093FD38E0206840688105890D608DFF28F5
:1033D00009D9FF2222850020012300901B062046E8
:1033E00000F062FA27E0608D2085E06A904208D004
:1033F00000200090E36A208DC2B2204600F054FA0B
:1034000019E000200090208D0123C2B25B06204607
:1034100000F04AFA0FE040212046FFF72DFC0AE0B9
:10342000400608D4680606D4608D00280FD04021DD
:103430002046FFF721FCF043800605D4A80603D4FC
:1034400031462046FFF7DCFC00203870F8BD2068CC
:1034500041688901EFD4E16A914205D141680122B6
:10346000920311434160E6E72046FFF73DFDE2E7A6
:103470000000FFFFF8B50446554B25464035287837
:10348000012818D001202870C843C7060026D2435F
:10349000002F12DBD70610D421681020C861606CA1
:1034A00004210843606420212046FFF745FB2046A5
:1034B000FFF782FB89E00220F8BD870708D4970751
:1034C00006D4206D216888620020C04320657CE01E
:1034D00007063CD457063AD410212046FFF72CFBB0
:1034E000608D00282ED0608DFF280AD9FF2222850A
:1034F0000096E06C012381B21B06204600F0D4F94F
:103500000BE0608D20850096208DC2B2E06C012317
:1035100081B25B06204600F0C7F9608D218D401A0C
:1035200060856878222806D020680168012292030D
:103530001143016049E0206801680122D203114370
:10354000016042E040212046FFF796FB3DE0470640
:1035500034D4570632D46878222800D11D4B608DB0
:10356000FF280AD9FF2222850093E06C012381B253
:103570001B06204600F098F90BE0608D2085009333
:10358000208DC2B2E06C012381B25B06204600F0C0
:103590008BF9608D218D401A60856878222806D0CD
:1035A0002068016801229203114301600DE0206848
:1035B00001680122D2031143016006E0800604D4B1
:1035C000900602D42046FFF71BFC2E700020F8BDA9
:1035D0000020008000240080F8B5079F04461646AE
:1035E0001D4619480090C302EAB2204600F05CF97B
:1035F0003A462046069900F0DDF9002801D0012066
:10360000F8BD2846F5B201280BD02168300A88623F
:103610003A462046069900F0CDF9002804D0012052
:10362000F8BD2068856201E020688562009700226D
:1036300080212046069B00F060F9002801D001207F
:10364000F8BD0020F8BD000000200080F7B582B072
:103650000446E76A0020009026464036307801286C
:1036600023D0012030700398D543C04301908006D9
:10367000002805DBA80603D420460399FFF758FC71
:103680000198C00665D4E80663D4680410210028B8
:1036900001DA28045AD4E06B00280BD02A0409D49C
:1036A00000684068002803D004E0022005B0F0BDA7
:1036B00001200090A06B002807D06A0405D40068A0
:1036C0004068002801D1012000900098012814D002
:1036D0002068C161606C0421084360647078002F29
:1036E00002D089058F423DD1212825D0292823D019
:1036F000222824D02A2822D023E07078282808D134
:1037000001204006874204D120460399FFF746FB7B
:1037100028E0707829280CD101200004C74208D085
:103720002068C1612046FFF747FA2046FFF7A4FC56
:1037300018E02068C16115E02120206301E022200B
:103740002063616C2046FFF797FA0BE02068C161A7
:1037500008E00198000705D4280703D42046039900
:10376000FFF73BFA00203070A0E70000FEB50446EA
:10377000E56A0091274640373878012828D0012093
:1037800038700098D643C04301908006002805DBBE
:10379000B00603D420460099FFF7CAFB01984049C0
:1037A000404AC00633D4F00631D4638D1020002B7C
:1037B00010D02168C861606C042108436064002D4A
:1037C00001D0954268D1616C2046FFF755FA63E05D
:1037D0000220FEBD7A78282A08D10122520695429D
:1037E00004D120460099FFF7D9FA55E07A78292AC2
:1037F0000AD18D4208D02168C8612046FFF7DCF964
:103800002046FFF739FC47E02168C86144E0019891
:1038100040071AD4700718D4608D00280CD0206897
:10382000406A626A1070606A401C6062208D401EAF
:103830002085608D401E6085608D00282CD18D42D2
:103840002AD02046FFF718FC26E00198000706D48E
:10385000300704D420460099FFF7BFF91CE0019817
:10386000800719D4B00717D4608D00280DD0606A86
:10387000216800788862606A401C6062608D401E2A
:103880006085208D401E208506E0954201D0002DE8
:1038900002D12046FFF7F0FB00203870FEBD00008B
:1038A0000000FFFF0000000110B5029C8905890D92
:1038B0001204114319432143490049080068426832
:1038C000630D034C23439A430A43426010BD00003A
:1038D000FF63FF0310B5014640314B780022602B97
:1038E00004D002630A70FDF714FE10BD20234B7054
:1038F00002630A70FDF7D4FD10BDF8B504460E460C
:1039000017461D461EE0681C1CD0FDF767FD069992
:10391000401AA84201D8002D14D120688169304690
:1039200088430DD00020B8420CD1616C20200143A7
:103930006164403460700020A07020700120F8BDE8
:103940000120F0E7206881693046884304D00020D8
:10395000B842D8D00020F8BD0120F9E770B5044680
:103960000D4616461FE0324629462046FFF7BCFBAF
:10397000002801D0012070BDFDF730FD801BA8425A
:1039800001D8002D0FD120688069C04380060AD578
:10399000616C202001436164403460700020A0709D
:1039A0002070012070BD20688069C0438006DAD491
:1039B000002070BD70B504460D46164621E0324623
:1039C00029462046FFF790FB002801D0012070BD5A
:1039D000681C16D0FDF702FD801BA84201D8002DFF
:1039E0000FD120688069C04380070AD5616C202010
:1039F00001436164403460700020A0702070012099
:103A000070BD20688069C0438007D8D4002070BD95
:103A1000F8B505460024184E05273F07280605D5AA
:103A2000012280213846FDF7D2FC04E000228021EB
:103A30003846FDF7CCFC022003F022FE012211469D
:103A40003046FDF7C4FC022003F01AFE00220121DB
:103A50003046FDF7BCFC072C04D1012280213846FA
:103A6000FDF7B5FC6806050E022003F009FE641C94
:103A7000E4B2082CD2D3F8BD0004005070B5052480
:103A80002407012280212046FDF7A1FC0C4D0122D4
:103A900011462846FDF79BFC022003F0F1FD0022B1
:103AA00080212046FDF793FC022003F0E9FD00226F
:103AB00001212846FDF78BFC022003F0E1FD70BDDB
:103AC0000004005010B50524240700228021204660
:103AD000FDF77DFC012211460548FDF778FC022028
:103AE00003F0CEFD012280212046FDF770FC10BDC1
:103AF0000004005070B505242407012280212046CF
:103B0000FDF765FC022003F0BBFD0E4D01221146BE
:103B10002846FDF75CFC022003F0B2FD8021204620
:103B2000FDF74EFC002801D0012400E00024002213
:103B300001212846FDF74BFC022003F0A1FD2046A1
:103B400070BD00000004005008B50848016B012258
:103B500011430163006B10400090002201210A20F4
:103B6000FDF73AFF0A20FDF72BFF08BD00100240C9
:103B7000F0B587B0142102A8FCF72DFB5C48C16AA0
:103B800004221143C162C16A11400191C16A012539
:103B90002943C162C16A29400191C16A02263143A9
:103BA000C162C06A304001900520012280210007D7
:103BB000FDF70DFCFF21012202314E48FDF707FC05
:103BC0004F210520002249020007FDF700FC0022DA
:103BD00008214848FDF7FBFBA803029021273F047A
:103BE0000397049502A94448FDF73CFB0295112078
:103BF000000403900496052002A90007FDF732FB9C
:103C00000C20029003970495052002A90007FDF7F8
:103C100029FB10200290039700240494052002A998
:103C20000007FDF71FFB80200290112003900494F1
:103C300003200590052002A90007FDF713FB02955C
:103C40001120039004940320059002A92948FDF750
:103C500009FB02960397049502A92648FDF702FB8B
:103C6000042002900394049502A92248FDF7FAFA71
:103C70002802029003940495052002A90007FDF78D
:103C8000F1FA4F2040020290039504940594052018
:103C900002A90007FDF7E6FA781302900395049451
:103CA000059402A91348FDF7DDFA30200290039431
:103CB000049402A90F48FDF7D5FA0022012105203E
:103CC000FDF78AFE0520FDF77BFE0022012106207C
:103CD000FDF782FE0620FDF773FE0022012107207A
:103CE000FDF77AFE0720FDF76BFE07B0F0BD000080
:103CF00000100240000400500008005010B51548A4
:103D00001349016014494160002181600122C260B1
:103D1000016141618161C1610162FDF7FBFB002826
:103D200001D0FCF77EFF00210A48FDF75DFB00286B
:103D300001D0FCF776FF00210648FDF77CFB002848
:103D400001D0FCF76EFF01200003FDF79BFB10BDC7
:103D500000540040E40B00201304100010B50B4881
:103D600009490160002141607F228260FF22C26018
:103D7000016141618161C161FEF7BCFB002801D096
:103D8000FCF74FFF10BD000000280040800C002011
:103D900010B588B0142103A8FCF71DFA0024019483
:103DA0000294154813490160FF214031416084604D
:103DB000FF21F431C160046180214161FEF766FC9E
:103DC000002801D0FCF72DFF0394049403A90A48AE
:103DD000FEF704FE002801D0FCF723FF01940294B3
:103DE00001A90548FEF726FC002801D0FCF719FFC1
:103DF00008B010BD00080140E40C002010B588B0E8
:103E0000142103A8FCF7E7F9002401940294144854
:103E1000124901601F21416084601249C160046140
:103E20004461FEF733FC002801D0FCF7FAFE03944E
:103E3000049403A90A48FEF7D1FD002801D0FCF73D
:103E4000F0FE0194029401A90548FEF7F3FB002857
:103E500001D0FCF7E6FE08B010BD000000140140E0
:103E6000240D0020FFFF00001CB5002400940194E5
:103E70000E480D490160FF214031416084600C49CA
:103E8000C16080214161FEF701FC002801D0FCF7F0
:103E9000C8FE0094019469460448FEF7CBFB002855
:103EA00001D0FCF7BEFE1CBD00100040A40C002099
:103EB0000F27000070B505460C460BA12068FCF7E3
:103EC0009CF900280AD00AA12068FCF796F900287E
:103ED00003D10949284602F011F870BD0649284669
:103EE000283902F00BF870BD2B204C697374000068
:103EF0002B2041626F7574003C180020FEE770B5FE
:103F00000546002D46D000260024E00708D0012DEC
:103F100038D0022D25D0032D29D0042D32D12CE00C
:103F2000012D06D0022D0AD0032D0ED0042D29D14B
:103F300011E05522314620B200F060F822E055220F
:103F4000314620B200F05AF81CE0FF22314620B280
:103F500000F054F816E0FF22314620B200F04EF88F
:103F600010E0AA22314620B200F048F80AE0AA2266
:103F7000314620B200F042F804E0FF22314620B280
:103F800000F03CF8641CA4B2802CBED3761CF6B2C0
:103F9000082EB9D370BD0000F8B504460D4616468C
:103FA0001F4629682068FCF7FDFB24D0296820689B
:103FB000FCF78FF9FCF7CDFB4900490800220E4BB6
:103FC000FCF7DCFB02D22868206012E0394630465C
:103FD000FCF78EF8FCF79DFB2768064639462868F3
:103FE000FCF777F93146FCF7B9F93946FCF720F9C7
:103FF000206001F0E1FDF8BD0000D03F30B57F2822
:104000000FDC07290DDC00280BDB002909DB0B4D39
:104010000B4BEC78C901C918002C03D00B5C534042
:104020000B5430BD6B78012B03D00B5C93430B54C6
:1040300030BD0B5C13430B5430BD000094020020D4
:10404000EC13002010B50748012180788902002870
:1040500004D0FF220448FCF7B7F810BD0248FCF773
:10406000BAF810BD94020020EC13002070B50D4684
:10407000184968680EC9184C002807D000F0BAF932
:1040800021681430FF318131888307E0286800F00F
:10409000B1F921681430FF318131888324684020D0
:1040A0002546FF348134A18B401AC003060C668478
:1040B000084640304008A0844842FCF71FFBA0623D
:1040C0003046FCF726FBE0622869C189022001F036
:1040D000F3FD70BD700200202800002070B5064678
:1040E0000C46204D2968FF318131C86A8A6A014631
:1040F0001046FCF757FB12D100F0E4FD01463046B4
:104100002A6896680B0002F0C2FD070A0A0A050534
:104110000D220A00207F002802D00020207770BDE9
:104120000120FBE7217FE1608268002A01D021465F
:104130009047286881680978012908D1317E0129D2
:1041400005D1E168002902D001216030417628685C
:104150000069C08901F0A0FD28680021FF3081308E
:10416000017670BD28000020F0B585B00546624F8D
:104170000B46386801460269FF31AD311289081FCC
:10418000FFF70AFF002000F083FE3C68FF34813413
:10419000A06AFCF7C5FA02B21C20205E022600903D
:1041A0001E210196615E6423544802F0C8F9012083
:1041B00000F06EFE3C68FF348134A06AFCF7B0FA70
:1041C00002B21C20205E00901E210196615E6423D5
:1041D0004A4802F0F2F981216E68C905484C002E68
:1041E00017D03868FF3081300390806AFCF720F8E0
:1041F000FCF796FA029602B2A168606800900398F4
:104200000191C08B2368001D01B23C4802F03AFACC
:1042100016E03E68FF368136B06AFCF709F8FCF715
:104220007FFA02B22868801C0290A1686068019140
:104230000090F08B2368001D01B2304802F022FA92
:104240003E68FF368136B06AFCF76AFAB18B0B38EC
:10425000401802B22BA00290A16860680191009002
:10426000F08B23680F3001B2244802F00BFA3E684D
:10427000FF368136B06AFCF753FAB18B0B38401821
:1042800002B221A00290A168606801910090E088CC
:10429000318C4300C018081A0F3801B21748236840
:1042A00002F0F0F93E681948B0633746FF378137AE
:1042B0002420385E0E38FCF721FAB062287F0128EE
:1042C0000ED0E488388CA100401A0F38FCF716FA9B
:1042D0003062A0002018FCF71CFA306305B0F0BD76
:1042E000F88BE488001B0F30FCF708FA3062A0005E
:1042F000FCF70FFA3063F1E7280000202C000020C3
:10430000700200204F4E00004F4646000000404122
:10431000F0B587B000250026171A5A1A04920190AA
:104320000091681E002F02DD0121039103E0002FA0
:1043300007D003907F420499002905DD01200290F7
:1043400009E000210391F6E70499002908D00290C2
:104350000498404204900498874204DD3C4603E000
:1043600000200290F7E7049C00200590601C069056
:104370001BE000980C9AC1B20198C0B200F01CF882
:10438000ED1904983618A54204DD2D1B03990198F8
:1043900040180190A64204DD361B0299009840188F
:1043A00000900598401CC0B2059006990598884277
:1043B000DFDD07B0F0BD000010B57F2812D83F291F
:1043C00010D8CB080724E31ADBB22140641A01217C
:1043D000A140C9B2064CC0000019002A03D0C25C3B
:1043E0000A43C25410BDC25C8A43C25410BD0000CF
:1043F000BA0D00200FB50121002806D104B000BD80
:104400000A2A01D1491CC9B2401C0278002AF7D1FE
:10441000684680894843491E401880B2EEE71FB5C0
:10442000FBF7E4FE6946498904B0484380B210BDF9
:1044300070B50D46174968680EC9174C002807D09B
:10444000FFF7D8FF21680830FF31C131088007E04D
:104450002868FFF7CFFF21680830FF31C13108809D
:10446000246840202146FF31C1310A88801AC003E8
:10447000000CC880403252080A814039626A0D46F9
:10448000CA64FCF746F928652069C189022001F059
:1044900013FC70BD7002002028000020F8B506460D
:1044A0000F46144D2868FF308130016DC06CFCF759
:1044B00079F91ED100F006FC0446230002F0E7FB68
:1044C000070F0F0F0F0F05050F0028680069C0893F
:1044D00001F0E2FB28680021FF30A1300177002CB9
:1044E00007D0062C05D030468268002A01D0394614
:1044F0009047F8BD28000020F0B585B006463C4D39
:104500000B46286801460269FF31D1311289081F24
:10451000FFF742FD002000F0BBFC2C68606BFCF74D
:10452000FFF807B2E06AFCF7FBF800B20390606A9C
:10453000FCF7F6F800B20290E069FCF7F1F801B27E
:104540000220019000972B48039B029A01F0F7FF8D
:10455000012000F09DFC81217468C905264F002CC4
:1045600017D0FF202E68CD308059FBF761FEFCF795
:10457000D7F8029402B2B9687868FF36C136019163
:10458000009070883B68001D01B21A4802F07AF86A
:1045900018E0FF202C68CD300059FBF749FEFCF7EE
:1045A000BFF802B23068FF34801C0290B9687868A6
:1045B000C1340191009060883B68001D01B20D4834
:1045C00002F060F82C682546FF35C1356888FCF795
:1045D000A0F820620620285EFCF790F8A062074849
:1045E00020632888FCF795F8A06305B0F0BD0000B3
:1045F000280000202C000020700200200000C8428B
:1046000010B50021AE2001F09FFD0021084601F009
:104610009BFD0021102001F097FD0021402001F0BA
:1046200093FD0021B02001F08FFD0021812001F0D9
:104630008BFD0021FF2001F087FD0021A12001F06A
:1046400083FD0021A62001F07FFD0021A82001F0BC
:104650007BFD00213F2001F077FD0021C82001F003
:1046600073FD0021D32001F06FFD0021084601F009
:104670006BFD0021D52001F067FD0021802001F0B5
:1046800063FD0021D82001F05FFD0021052001F02D
:104690005BFD0021D92001F057FD0021F12001F040
:1046A00053FD0021DA2001F04FFD0021122001F01E
:1046B0004BFD0021DB2001F047FD0021302001F0FF
:1046C00043FD00218D2001F03FFD0021142001F069
:1046D0003BFD0021AF2001F037FD10BDF0B587B0E4
:1046E00006460C462068404F0290B96878680090F2
:1046F000F01C019102B2154603213C483B6801F0D1
:10470000C1FF206800783D283AD01DDC232850D016
:10471000252817D1617F03AAE06803F093F9394691
:104720000EC903A8FFF77BFE7A21081A01B203A87D
:104730000290BA687868019200902A462B483B683C
:1047400001F0A0FF07B0F0BD402832D07E28F9D19B
:1047500003A9E06803F0D8F939460EC903A8FFF7AA
:104760005EFE7A21081A01B203A80290BA6878683E
:10477000019200902A461D483B6801F083FFE1E763
:10478000617F03AAE06803F05DF939460EC903A80A
:10479000FFF745FE7A21081A01B203A80290BA6811
:1047A0007868019200902A4610483B6801F06AFF41
:1047B000C8E7022009210190B01C0B46009102B20B
:1047C00071210A4801F0F9FEE0680028BAD00521FD
:1047D00001200B46361D0091019032B2732103482F
:1047E00001F0ADFEAEE70000700200202C000020BA
:1047F000054800210068C167044A80210A50012150
:104800002030017770470000280000200000504150
:10481000F0B50D460599044616461F460120207046
:104820000E48E0600E4820610E486061204600F0AE
:1048300077FA277665760020A076E66104212020AD
:104840000155002005E04101E26908315054401C47
:10485000C0B2617E8142F6D8F0BD0000F147000889
:10486000494B000869480008F0B587B0044600F0DD
:1048700029FA21462031AF4E01250691030002F0AE
:1048800006FA083E3E3E0573D6F8F73E376838789C
:10489000002834D0384660300146007E00282ED1F2
:1048A000A07E00282CD0401EC0B2A0760590803794
:1048B000A1493868FBF752FD07460598FBF729FF29
:1048C0003946FBF76FFF49D2069F0D2138784843E0
:1048D0004021081AFBF712FF616AFBF763FF2FD133
:1048E00038780D21401C48434038FBF707FF3768F4
:1048F00080373968FBF79CFC386000206062F3E089
:104900003869C07C0028FAD00D76607E401EA07603
:104910000699607E097888420BD988486062607E7B
:104920000D2148434021081AFBF7E8FE8037386024
:10493000DAE0401E0D214843FBF7E0FE6062D3E061
:104940007F49606A884202D100206062CCE037680B
:1049500080373868FBF76CFC3860C5E07849606ADE
:10496000FBF7B7FC6062BFE0306801780029C6D071
:1049700002466032117E0029C1D1637EA17E5B1E9A
:1049800099420BD10169C97C002906D01576002116
:10499000A1768030016061620160A5E0491CC9B266
:1049A000A1760491803000686549FBF7D7FC01903F
:1049B000069F3878FBF7ADFE0199FBF78AFC029061
:1049C0000498401CFBF7A5FE0299FBF7F5FE28D2E0
:1049D00038780D21401E4843FBF790FE616AFBF7D3
:1049E000E1FE0FD138780D21401C48434038FBF7D9
:1049F00085FE376880373968FBF76FFC38604F48B1
:104A0000606271E04F49606A884202D14B4860623F
:104A10006AE037684A4980373868FBF75AFC3860E3
:104A200062E04749606AFBF703FC60625CE0A17EDC
:104A3000E0694A018158039113460C33C758002F8F
:104A400001D0012100E000218C460399097840291A
:104A500010D07E291CD025292DD0212930D0232902
:104A600033D0A368002B3FD08118204698473BE005
:104A70005DE036E010328158002902D0614669407D
:104A8000C150207E01282FD13068603045762BE060
:104A90003068FF3041300573A07EE1694001024675
:104AA00010328A58002A1FD1A268002A1CD0091887
:104AB0002046904718E03068FF30E130057013E081
:104AC0003068FF30A13005770EE0002F01D00121C2
:104AD00000E000211C3281543068FF3081300576BF
:104AE00002E0204600F02AF9207E01281FD130681C
:104AF0006030407E00281AD00020002311E0E269D7
:104B0000410157583F78402F01D0232F07D1A77E6E
:104B1000874202D00C31535001E00C315550401CFB
:104B2000C0B2617E8142EAD830686030437607B017
:104B3000F0BD000028000020000050C100004C42E1
:104B40000000504100001842F8B50446544D0B4691
:104B5000286802690146D28880317C30FFF71CFA50
:104B600028687821095C002908D0616A406AFBF74F
:104B700019FE03D129680020603108764848494E63
:104B800000680078002802D00025454F62E000252B
:104B900031E0434807683869407C002815D0A07E82
:104BA0000D214843FBF7B5FD00902846FBF7B1FD0A
:104BB000F96FFBF796FB0099FBF78BFB616AFBF73C
:104BC00037FBFBF7ADFD30800CE0A07E281AFBF729
:104BD00095FDF96FFBF785FB616AFBF729FBFBF796
:104BE0009FFD3080E069690141180020305EFFF7C9
:104BF00075FD6D1CEDB2607EA842CAD8284D80219B
:104C000028680958C06FFBF7CDFD26D12D6801201B
:104C10002870A07E0C21C9434843FBF76FFD616AF1
:104C2000FBF706FB80214851E86716E028460D2176
:104C30004843FBF76EFD3968C96FFBF7F9FAFBF7DC
:104C40006FFD00B23080E1696A018918FFF746FD07
:104C50006D1CEDB2607EA842E8D8114D0021286895
:104C60000162616A8162A17EE069490146580E488D
:104C70000EC83046FFF7D3FB801DFBF74AFD2D68B9
:104C800028630A48A863617EA07E491E8001FBF765
:104C900045FA00B2401CFBF731FD6864F8BD000026
:104CA00028000020980600207002002000005041DB
:104CB000034800210068017641760120704700001A
:104CC000280000200020084909680A7E4B7E9A428D
:104CD00009D008461430105C521CD2B20A76042A5D
:104CE00001D100220A7670472800002030B50B4B16
:104CF00019684A7E0D7E541CA407A40FAC420AD04A
:104D0000143150541868417E491CC9B241760429B7
:104D100001D10021417600F04FFF30BD2800002076
:104D2000054A12685368002B01D1506090605268A8
:104D300042608160704700002800002070B5044682
:104D40000B4E002531680D7360680865086981891C
:104D5000042000F0B1FF31684868A04207D1CD615E
:104D60004D6243200006C8628520C005486370BDBF
:104D70002800002070B50024054DE00040190821EE
:104D8000FBF729FA641CE4B2802CF6D370BD000056
:104D9000BA0D0020F0B5A1B0054600246E462046AD
:104DA0000021B03001F0D0F90021084601F0CCF923
:104DB0000021102001F0C8F90120FCF735F940204E
:104DC000694608700021E0014019425C73185A706E
:104DD000491CC9B28029F8D30A4FB86BFCF742F8D6
:104DE0000128FAD181236A4678210648FCF7F4FBB2
:104DF0000120FCF719F9641CE4B2082CCFD321B0D0
:104E0000F0BD0000E40B0020F0B5A1B000241A4E64
:104E10006D4620460021B03001F096F90021084689
:104E200001F092F90021102001F08EF90120FCF729
:104E3000FBF84020694608700021C8008019005D19
:104E40006A185070491CC9B28029F6D30B4FB86B51
:104E5000FCF708F80128FAD181236A46782107482F
:104E6000FCF7BAFB0120FCF7DFF8641CE4B2082C65
:104E7000CFD321B0F0BD0000BA0D0020E40B00201C
:104E800010B5024801F094FE10BD0000EC130020A4
:104E900030B50B4B01251A780024114669400028D3
:104EA00005D0012807D0022800D1DD7030BDDC70AC
:104EB0005A70997030BDDC7059709A7030BD000026
:104EC00094020020FFB583B00C461E460194F10801
:104ED000700701D0012000E0002008187108484345
:104EE000C0B20090203AD0B20590082E01D1052022
:104EF000009000273EE0102E13D0082E3DD10598DB
:104F0000810040181E494018C55D00200290280607
:104F10000DD54020001BC1B20C9A0398FFF74CFA44
:104F20000FE00598174900014018C55DEDE70C98A2
:104F3000002814D000224020001BC1B20398FFF7C4
:104F40003BFA6806050E641CE4B20198201AB042D0
:104F500007D1019C0398401CC0B2039008E00122D5
:104F6000E9E70298401CC0B2029002980828CED30C
:104F70007F1CFFB200988742BDD307B0F0BD000090
:104F8000797C0008597E0008FFB504460D46164698
:104F90001F46780881210390081A02904120C01B07
:104FA0000190082F16D12EE00298A04202D20024D0
:104FB000E819C5B20198A84201DA002425460998EB
:104FC00000903B4629462046FFF77CFF03980019D6
:104FD000C4B2761C3278002AE6D1FFBD0298A04206
:104FE00002D20024E819C5B20198A84201DA0024CF
:104FF0002546099800903B4629462046FFF762FF68
:10500000641DE4B2761C3278002AE7D1FFBDFFB5FB
:10501000002400250C27002602988021405DA04036
:105020000840E90708D0032C02D2641CE4B20BE06C
:105030006D1CADB2002407E0072C02D2641CE4B260
:1050400002E06D1CADB20024002809D00398C2B262
:105050000198C019C1B200988019C0B2FFF7ACF92D
:10506000761CF6B20C2ED7D37F1EFFB2002FD2D102
:10507000FFBDFFB5002400270398082828D3039814
:10508000400725D10398C6B220E0002519E0029818
:105090008021C05DA0400840002809D00998C2B214
:1050A00001988019C1B200984019C0B2FFF784F985
:1050B000641CE4B2082C02D17F1CBFB200246D1C1A
:1050C000EDB203988542E2D3761EF6B2002EDCD113
:1050D000FFBD0000F8B50F461A4D61202968400653
:1050E0000C46FF3101310E46C865FF205730005B8A
:1050F000FBF70FFB306621461F20FF3181314874DA
:10510000612088742420C8742B20087510397869B0
:1051100002F0FAFC2968B869FF31813102F0F4FC31
:1051200009480EC82868FF307130FFF778F9FF2270
:105130002968913250540869C189022000F0BCFDF1
:10514000F8BD00002800002070020020F8B50746D6
:105150000C461C4E3068FF300130016EC06DFBF70D
:1051600021FB2ED1FFF7AEFD05462B0001F08FFD90
:10517000081F050D1F1F1515291F2169E06840181C
:10518000A169884213DCE06011E02169E068401AFF
:10519000616988420BDBE06009E030680069C08922
:1051A00000F07AFD30680021FF3041300173002D9E
:1051B00007D0062D05D038468268002A01D0214646
:1051C0009047F8BD28000020F0B585B004466A4D30
:1051D0000B46286801460269FF3161311289081FB8
:1051E000FEF7DAFE0020FFF753FEFF202E685D3049
:1051F0008059FBF795FA02B220200227FF21009088
:1052000053310197715E78235C4801F098F90120D1
:10521000FFF73EFEFF202E685D308059FBF780FAD5
:1052200002B22020FF21009053310197715E782354
:10523000524801F0C2F9FF202E685D308059FBF71B
:105240006FFA143002B201200721FF360190813637
:105250000091717C4223494801F0AFF9FF202F688B
:105260005D30C059FBF75CFA001D02B22068444E65
:10527000801C0290B1687068FF374137019100903F
:10528000788A3368001D01B23C4801F0FBF9E06800
:1052900002F028FC03902868FF300130C06DFBF756
:1052A0003FFA001D07B2E06802F01CFC31460EC94F
:1052B000FFF7B5F82968FF314131898A081A001FC4
:1052C00001B203980290B2687068019200903A4669
:1052D0002A48336801F0D6F9FF202E685D308059E6
:1052E000FBF71EFA143002B23046FF307130254F02
:1052F0000290B9687868FF36813601910090707C21
:10530000317C3B68411A891E1C4801F0BBF9FF2023
:105310002E685D308059FBF703FAFF368136143072
:10532000029602B2B968786800900191B17C134886
:10533000891C3B6801F0A6F92D682846FF308130B2
:105340000646407C801CFBF7E4F92862F07C801C58
:10535000FBF7DFF9A862A1696069E268091A101A0F
:105360003E225043FAF7DAFEFBF7C8F928630648F5
:10537000A86305B0F0BD0000280000202C0000202C
:105380007C0200207002002000004040FEB50C4668
:105390004748464A05682946FF3181310E460A676B
:1053A000FF20EB30405BFBF7B4F970674149607F49
:1053B0006F18002806D001280BD0022824D003281B
:1053C00057D13CE03CA13846A369626901F01CFC5E
:1053D0004FE0A069FBF792F93949FAF7BFFFFBF7F5
:1053E000B8F905460E466069FBF788F93449FAF7C3
:1053F000B5FFFBF7AEF902460B4632A138460196DF
:10540000009501F001FC34E0A069FBF777F92F4922
:10541000FAF7A4FFFBF79DF905460E466069FBF716
:105420006DF92A49FAF79AFFFBF793F902460B4602
:1054300024A138460196009501F0E6FB19E0A06929
:10544000FBF75CF92249FAF789FFFBF782F9054679
:105450000E466069FBF752F91D49FAF77FFFFBF72B
:1054600078F902460B4617A138460196009501F0DF
:10547000CBFB184D206829460EC9801CFEF7CFFFD4
:105480000B4F81213E68890088550A480ECD30189F
:10549000FEF7C5FF074A3968521E50540020207796
:1054A0000869C189022000F007FCFEBD000030C27F
:1054B000280000200602000025647E25640000000C
:1054C0000000204125677E25670000000000C842DB
:1054D00000007A447C020020F3B581B00C46002520
:1054E00000273C480068FF308130416F006FFBF7B8
:1054F00059F95CD1FFF7E6FB0646330001F0C7FB24
:10550000084D1725050E3441694D207F002844D1F0
:105510002069072841DA401C20613EE0207F0028F6
:105520003BD12069002838DD401E206135E0207F16
:10553000002832D001250020216903E00A225543CA
:10554000401CC0B28142F9DC27E0207F002824D033
:105550000025ED430020216903E00A225543401C49
:10556000C0B28142F9DC18E02069072805D0207F0D
:10557000002804D0002020770FE001270DE0012053
:10558000F9E7144800680069C08900F085FB1148FC
:1055900000210068FF30E1300170002E07D0062E98
:1055A00005D001988268002A01D021469047E06822
:1055B000002D01D04119E160002F02D0E16849427D
:1055C000E1606269E168914202DBA269914200DD1B
:1055D000E060FEBD28000020F0B585B004467D4E99
:1055E0000B46306801460269FF31F5311289081F08
:1055F000FEF7D2FC0020FFF74BFCFF203568F130AE
:105600004059FBF78DF802B22C200227FF210090B1
:10561000E7310197695E64236F4800F090FF012035
:10562000FFF736FCFF203568F1304059FBF778F87A
:1056300002B22C20FF210090E7310197695E6423BC
:10564000654800F0BAFFFF203568F1304059FBF79C
:1056500067F8FF35001DFF3502B202352879216851
:105660005E4D891C0291AB68696880270091381AE9
:10567000C10F08180193411057482B6801F002F838
:105680003668FF20F1308059FBF74AF8123002B239
:1056900053495348491C805D711802915149381A89
:1056A0008E684B680093C30F1818019640100B6862
:1056B0000146494800F0E6FF607F002842D02E26D0
:1056C000012804D0022816D003283BD127E0414806
:1056D0000068FF308130006FFBF722F81D30029622
:1056E00002B2A96868680191009058213A482B6875
:1056F00000F035FD26E037480068FF308130006F4C
:10570000FBF70EF81D30029602B2A9686868019195
:1057100000904F2130482B6800F021FD12E02D4809
:105720000068FF308130006FFAF7FAFF1D300296F3
:1057300002B2A968686801910090462126482B684A
:1057400000F00DFD28A103A8E26801F05DFA1D2715
:105750000026204D2868FF308130006FFAF7E0FF07
:105760001D3002B203A8805D02901C488368416826
:105770000091019303683946174800F0F0FC09379F
:10578000FFB2761CF6B2082EE4D32D6818482863C1
:1057900020690721081AC10040181C30FAF7AEFF33
:1057A0002862207F00280AD0FF20EB30405B1B30AE
:1057B000FAF7AFFFA8620F48A86305B0F0BDFF205D
:1057C000EB30405B2730FAF7A4FFA8620A48A863D1
:1057D000F3E70000280000202C0000207C020020BD
:1057E0000502000070020020252B30386400000004
:1057F00000001041000060410000404010B50D491C
:1058000000200C68A0650C49E1650C4921668121E6
:10581000C9056166C1210906A166E0668520C0054B
:10582000206707483E210089081AFAF767FF60677A
:1058300010BD00002800002000001042000070C1D0
:1058400088020020FFB50E46099904461746002538
:1058500025702046FFF764FA0B48E0600B48206192
:105860000B486061242005556676E7610398206245
:10587000002005E04101E26908315054401CC0B2EB
:10588000617E8142F6D8FFBDFD570008015A00082D
:1058900095580008F8B50446FFF714FA0746C125E5
:1058A0008526204653492D06F605534A20303B00F5
:1058B00001F0EDF9071919190531579C19001768FE
:1058C0003A78002A0FD00279002A0DD0521E0271B8
:1058D000F86DFAF7ADFCF8654849F869FAF7A8FCE5
:1058E000F861BD663E67F8BD3969897C0029FAD048
:1058F000617E491E0171607E2321401EC9434843D9
:10590000FAF7FCFEF8653D49F869FAF7E2FCF86140
:10591000BD663E67F8BD17683A78002AFAD0637E04
:1059200002795B1E9A420DDA521C0271F86DFAF789
:10593000D0FCF8653149F869FAF7CBFCF861BD662F
:105940003E67F8BD3969897C0029FAD000210171D0
:10595000F9652A49F869FAF76BFCF861BD663E679C
:10596000F8BD05460079E16940010B581B78402BD2
:105970000FD001267E2B0FD0252B20D0212B23D01A
:10598000232B26D0A268002AEAD009182046904787
:10599000F8BD10300858F8BD1068FF30413006736C
:1059A0002879E1694001024610328A58002AF2D172
:1059B000A268002AEFD0091820469047F8BD106869
:1059C000FF30E1300670F8BD1068FF30A130067777
:1059D000F8BD03460C33CB58002B00D001231C30FC
:1059E0000B541068FF3081300676F8BD2046FFF773
:1059F000A5F9F8BD00001042280000200000704109
:105A0000F0B585B005460E46664C33462068016900
:105A10008A8801465C315830FEF7BEFA206833466A
:105A200001698A88014664316030FEF7B5FA206862
:105A3000334601698A8801466C316830FEF7ACFA5A
:105A40002068334601698A88014674317030FEF758
:105A5000A3FA2F4620373979E8694901465820686A
:105A6000006FFAF75DFE00B203904F480EC8B01CFD
:105A7000FEF7D5FC40084021081A01B2B61C4A487E
:105A8000029682684068009001924748039A036832
:105A9000464800F0F7FD2068806EFAF741FE01B23B
:105AA0000020019018224048009200893E22101ADE
:105AB00002B208233D4800F042FD2068007800282B
:105AC00003D0002401261E275DE000242DE0354888
:105AD00006683069007C00280BD0B06DFAF720FE14
