:020000040800F2
:10000000E01F0020D50000089D36000831240008BC
:1000100000000000000000000000000000000000E0
:10002000000000000000000000000000AD5D0008BE
:100030000000000000000000255D0008B15D000820
:10004000E7000008E70000089D5D00089B0B000822
:10005000E7000008650B0008750B0008850B000819
:1000600000000000E7000008990A0008E700000807
:10007000E7000008E700000800000000E7000008B3
:1000800000000000655E00080000000000000000A5
:10009000555E000800000000E70000083524000855
:1000A000E7000008E7000008E7000008E700000894
:1000B000E7000008E7000008000000000000000062
:1000C0000348854600F076FC00480047556E00085E
:1000D000E01F00200448804704480047FEE7FEE791
:1000E000FEE7FEE7FEE7FEE7515E0008C1000008FC
:1000F00030B50B46014600202022012409E00D46C0
:10010000D5409D4205D31D469540491B2546954047
:1001100040191546521E002DF1DC30BD70B500248B
:100120002546002801DA01244042002901DA012590
:100130004942FFF7DDFFAC4200D04042002C00D026
:10014000494270BDF0B51FB40646002082B0054696
:100150004024019100901BE0019922460F46304651
:1001600000F030FB049A059B801A994110D3104689
:100170001946224600F016FB361A8F410197224697
:1001800001200021009F00F00DFB38184D41009028
:100190002046641E0028DFDC019B00982946324679
:1001A00007B0F0BD03460B439B0703D009E008C925
:1001B000121F08C0042AFAD203E00B780370401C17
:1001C000491C521EF9D27047D2B201E00270401CA5
:1001D000491EFBD270470022F6E710B513460A46C7
:1001E00004461946FFF7F0FF204610BD421C017877
:1001F000401C0029FBD1801A704710B5002200E096
:10020000521C835C8C5CA34201D1002BF8D1D8B284
:10021000E1B2401A10BD30B504460020034600E0AC
:100220005B1C934203D2E05CCD5C401BF8D030BD38
:10023000F8B502464A40D40F42004B0052085B0812
:100240009A4202D20246084611464A0023D0C30D04
:100250004A00DDB2120EAD1A202D35DA4902012610
:10026000490AF6058A19002C00D0524220214F1B62
:100270001146B9402A411018C20D9A4221D0002CD3
:1002800017D0012D08DCDA05801AD20F8019D207A9
:10029000DBB200F0C3FAF8BDDA05801A0123400092
:1002A0001B06C01880185A428018CA0F1043490014
:1002B00007E04908C2071143DA05801A801940088F
:1002C000801800F0A3FAF8BD61000122511A001B4A
:1002D000F7E70122D2075140AAE70122D207504096
:1002E000A6E7024670B54A40D30FDB0740002DD089
:1002F0004A002AD0010E140E000212020919400A07
:10030000520A8418E50104465443000A120A2E04D6
:100310005043A4194219200CC543AA18120C0125F8
:10032000AD03521C521912047F39240400D0521C10
:10033000104301D44000491EC2B20C06C009201867
:10034000401C4008802A02D003E0002070BD400815
:100350004000002900DA0020184370BD70B5024645
:100360004A40D50F40004A00ED07400852080028D7
:1003700014D0002A12D0C40DD30D41020120C005B3
:100380005202490A520AE41A091812187D3491429D
:1003900001D3641C00E04900002C01DA002070BD8C
:1003A0000023914201D3891A0343400849000028E1
:1003B000F7D100290AD0914202D10121C90705E0F5
:1003C000914201D2012101E00121C943E005C01899
:1003D000401900F01BFA70BDF0B5074608465840BA
:1003E00087B0C00F049048000E46590040084908E5
:1003F000BC1A884105D2384631461E4617460B4680
:1004000002465800400810434CD0300D0390400580
:100410005900400D490D0590401A0290402872DAAB
:1004200018030121000B090508430190049800926C
:10043000002805D001995242002088410092019085
:10044000029840210A1A0199009800F0ABF905467C
:100450000C466B4607CB00F0C6F9C0197141039AF0
:100460000E0D0023D71756401A467A40164344D043
:10047000049A002A2DD0029A012A039A15DC12054B
:10048000C01A914101263605001C7141D20F059E0C
:10049000D2070093019202962A46234600F004FAFE
:1004A00007B0F0BD38463146FAE71605224A0F4636
:1004B000B218C01AB74101210905001C4F410018AC
:1004C0007F41114618187941E20F10436D196441BC
:1004D00013E0E2076D0815436408C2071443039A4A
:1004E00001261205C01A91413605001C7141CE0744
:1004F000400830434908C01851412A46234600F0BD
:10050000C6F9CDE7FFE7049801224000C117121A8F
:1005100000238B4104983146C417381AA141EEE7F5
:1005200030B40124E407634030BC55E730B4012403
:10053000E407614030BC4FE70000E0FFF0B51FB4B6
:1005400088B00B990998002448400999C00F4900C8
:1005500049080991C0070B990090490049080B917F
:1005600009990898A64608431CD00B990A98084395
:1005700018D0099801244000420D4800410D099807
:1005800024050003000B204309900B980003000B87
:1005900020430B9050181C4940180022019014462B
:1005A000104605E0002001460DB0F0BD032801DA39
:1005B000034600E003239C46C11A0AAE0AE05F002E
:1005C00008ADED5B4F00F75B7D430027AA187C4127
:1005D000491C5B1E6145F2DD410004AB5A52210407
:1005E000120C0A43240C401C0828DFDB01980290FF
:1005F0000099704601910090059B049A079906980E
:1006000000F052F9D0E700000DFCFFFFF0B50C46FA
:100610005C4085B0E40FE40703944C0000266408B6
:1006200059009446490802460296224321D0624668
:100630000A431ED06200570D4A000E032303550DD6
:10064000012402462C492405781B1B0B360B40184D
:1006500023432643614600901C46501AB44103D3FD
:100660000098401C009002E0921800985B4100281E
:1006700003DA0020014605B0F0BD00200121090584
:100680000746864611E064461D46141BB54106D355
:100690006546521BB341744607430C43A646CD073B
:1006A00040084908284392185B4105460D43EAD1AA
:1006B0001046184313D06046194650407140084315
:1006C00006D06046101AB34106D20122002306E08C
:1006D00000220123DB0702E00122D24353100098DD
:1006E00074460105381C6141029C039D0019694153
:1006F00000F0CDF8BFE70000FD030000C217C10FF6
:10070000504010B54018CA079623002100F086F823
:1007100010BD10B500229623114600F07FF810BDE1
:10072000C20F410040020123400ADB05D207090E37
:10073000C0187F2901DA00207047962903DC962330
:10074000591AC84001E096398840002AF4D0404246
:100750007047C20FD207400040080BD0C10D0723DD
:10076000DB01C91840020905400A1143C2084007CD
:100770001143704700200146704700000122D20754
:10078000002800DB101A002900DB511A8142704753
:100790000122D207002800DB101A002900DB511AC1
:1007A0008842704710B5202A04DB0146203A914068
:1007B000002010BD914020239C1A0346E3401943BA
:1007C000904010BD10B5202A04DB0846203AD040E6
:1007D000002110BD0B46D340D0402024A21A9140E6
:1007E0000843194610BD10B5202A06DBCB17084672
:1007F000203A1041C1170B4306E00B461341D0408D
:100800002024A21A91400843194610BD002904DA99
:10081000401C490001D140084000704770B40024DA
:10082000050C05D11024000402D1002921D0112487
:10083000050E01D100020834050F01D10001241D6D
:10084000850F01D18000A41C002801DB4000641C3E
:10085000002908D020252E1B0D46F540A14000D0D0
:1008600001212943084301061B1B000ADB1D02D599
:10087000002070BC7047DB05181880180029F8DAD2
:10088000401C4900F5D170BC40084000704710B5CD
:10089000002B08DA0024401C614192185B411A4386
:1008A00001D14008400010BDF0B51FB482B005462C
:1008B0000C0003D0084605F0F3FB02E005F0F0FB66
:1008C00020300246009021462846FFF76BFF049B2C
:1008D000059A04460F4618431143084314D018469E
:1008E00010431BD0009840210A1A18460599FFF7BB
:1008F00069FF05460E46009A05990498FFF752FFD6
:10090000084305D0012004E02046394607B0F0BD79
:100910000020C11705430E432C43374300990E981E
:100920006305401A7905E40A00220C43FD0A0A30E7
:1009300002D500200146E9E70105101969410C9C28
:100940000D9D00196941FFF7A2FFDFE74A00090387
:100950000123090B1B0519430A4B10B5520D9A428E
:1009600002DA0020014610BD064B34339A4203DC04
:100970009A1AFFF727FF10BD034BD218FFF712FF9B
:1009800010BD0000FF030000CDFBFFFF10B50029E4
:1009900004DB0124E40740428C412146002B04DBA8
:1009A0001C460123DB075242A341994200D19042E9
:1009B00010BD0000064C0125064E05E0E36807CC9B
:1009C0002B430C3C98471034B442F7D3FFF77CFB21
:1009D000B88A0008D88A000870B58C180578401CC1
:1009E0006B075B0F01D10378401C2A1106D10278F6
:1009F000401C03E006780E70401C491C5B1EF9D1B8
:100A00002B0705D40023521E0DD40B70491CFAE7A6
:100A10000378401CCB1A921C03E01D780D70491C12
:100A20005B1C521EF9D5A142D8D3002070BD000036
:100A300010B5097A002907D0012908D0022902D16E
:100A4000044904F0ABFC10BD02495039F9E70149F3
:100A50002839F6E7B819002010B5022003F00EFC83
:100A600010BD704710B5052003F008FC10BD10B58F
:100A7000042003F003FC10BD10B5062003F0FEFBBC
:100A800010BD10B5032003F0F9FB10BD10B5012017
:100A900003F0F4FB10BD000010B5024800F009F9A6
:100AA00010BD0000380C002030B5446C1C252C40D3
:100AB0000125A540046C6560046863608368102BA1
:100AC000036803D099600068C26030BD9A60006816
:100AD000C16030BD064BC01803E003780B70401CAA
:100AE000491C1346521E92B2002BF6D170470000EB
:100AF00000000808F7B582B015460F46104606F00C
:100B0000F3F90090284606F0EFF9064600242A463D
:100B100000990298FFF7DEFF2A4631460298FFF758
:100B2000D9FF2A4631460098FFF775FB00280CD004
:100B3000641CA4B2022CEAD3304606F061F9009896
:100B400006F05EF9012005B0F0BD2A46384600994E
:100B5000FFF728FB304606F053F9009806F050F9ED
:100B60000020F0E710B5012000F0F8F9022000F0B5
:100B7000F5F910BD10B5042000F0F0F9082000F0E0
:100B8000EDF910BD10B5102000F0E8F90120800348
:100B900000F0E4F910BD72B6FEE710B500F06EF992
:100BA00010BD000010B5084900234B6107494A6891
:100BB0004C1522434A604A68082422434A60C0090F
:100BC000C001036010BD0000640D00200020024041
:100BD00010B5214A00209169CB05204904D5486908
:100BE000022318434861901593699B0505D54B690D
:100BF000012423434B616302184393695B0505D5C8
:100C00004B69082423434B61E301184393691B0597
:100C100005D54B69042423434B6163021843936950
:100C20009B0405D54B69102423434B616302184391
:100C300093699B0304D54C6920231C434C611843E2
:100C40009369DB0305D54B69402423434B61A10223
:100C50000843906110BD000000200240640D002098
:100C600070B50024014620314A79022A03D00421BC
:100C7000C163012418E0026813680E25AB431360BA
:100C8000026813685B085B001360436C1C2213400E
:100C900001252A469A40036C5A604D7100220A7160
:100CA000816B002900D08847204670BD20304079F4
:100CB0007047F0B4016C0C6801680B68456C1C2629
:100CC000042235401746AF4027420ED05F070CD5AF
:100CD0000B689B0602D40B6893430B60416C314058
:100CE0008A40016C4A60016B1AE00227AF4002465D
:100CF00027402032002F17D09F0715D50B689B0681
:100D000005D40B680A24A3430B6001215171436C85
:100D1000022133409940036C596000211171C16A6E
:100D2000002918D0F0BC08470827AF40274212D04E
:100D30001B0710D50B680E24A3430B60436C0121E5
:100D400033400C469C40036C5C60C16351710021D0
:100D50001171416BE4E7F0BC7047000070B504000E
:100D60003CD01F48256814212818FFF7C1F98000DE
:100D700060641C48206402212046203041712A68AA
:100D80001949E3680A40A168666919432369334336
:100D90001943A3691943E3691943236A19431143AA
:100DA00029600122A1689203914210D00D4980313F
:100DB0008A6A636C1C2633400F259D40AA438A62D1
:100DC000636C626833409A408B6A1A438A620021DE
:100DD000E163012242710171084670BD012070BDBE
:100DE000F8FFFDBF000002400F80FFFFF8B504468A
:100DF0008C46203001790025012909D00126067191
:100E000047790021012F05D0017102252846F8BD40
:100E10000220F8BD02274771E16320680168490894
:100E20004900016061462046FFF73EFE206B002826
:100E30002068016801D00E2205E004229143016080
:100E4000206801680A22114301602068016831436B
:100E50000160DBE770B5044600F046F90546601C0A
:100E600002D004480078241800F03EF9401BA0424C
:100E7000FAD370BD0000002070470000F8B5344D73
:100E8000A8690024C005334E002811DBA86980053D
:100E90000ED4A86940050BD4A869000508D4A86938
:100EA000800405D4A869800302D4A869C00309D5C9
:100EB000307801282BD0B768FFF78AFE384600F05B
:100EC0004BF83470A869800712D50220A8613078E9
:100ED00000280DD0307801281ED06868082188438A
:100EE0006860B068FFF7C8FF0020C043B06034708E
:100EF000307800280AD168684121C90088436860B9
:100F0000686803210904884368603474F8BDF76891
:100F10000020C043F060CFE77068401E70607068CA
:100F200000280DD0F068FFF7A7FFF0688030F06070
:100F300069680122520291436960FFF733FED7E7E7
:100F40000020C043F0603470FFF796FFD0E7000048
:100F500000200240640D00207047704710B504491E
:100F60004A69024202D04861FFF7F7FF10BD000056
:100F700000040140F0B5002296E0012797403B4075
:100F80007ED00C79A407A40F012C01D0022C10D123
:100F9000856854000326A640B543CE68A6402E437C
:100FA000866044680D79BC43ED06ED0F95402543FE
:100FB00045600C79E443A40708D0C56854000326B3
:100FC000A640B5438E68A6402E43C6600C79A407A0
:100FD000A40F022C0CD1D408A40027183D6A540792
:100FE000E40E0F26A640B5430E69A6402E433E628E
:100FF000056854000326A640B5430E79B607B60F20
:10100000A6402E4306604C68A403A40F4BD0294C85
:10101000666B01252E4366639508274CAD002F199A
:10102000BD689407240F0F26A640B5430526360752
:10103000B04201D1002614E0204EB04201D1012679
:101040000FE01F4EB04201D102260AE01D4EB04211
:1010500001D1032605E01C4EB04201D1052600E077
:101060000626A6402E43BE60184DAC684E689C43D1
:10107000F60200D51C43AC60EC684E689C4300E06F
:1010800011E0B60200D51C43EC606C684E689C43CE
:10109000B60300D51C436C602C684E689C43F60375
:1010A00000D51C432C60521C0B681C46D44000D059
:1010B00063E7F0BD00100240000001400004005052
:1010C00000080050000C0050001C005000040140BB
:1010D0000069084000D001207047002A01D08161DA
:1010E00070478162704700000148806870470000C7
:1010F0000000002070B5024640325378202B1CD1EE
:101100001378012B19D00124147024235370036821
:101110001D68A5431D6003681D682603B5431D6057
:1011200003681D680D431D6000680168214301606C
:10113000202050700020107070BD022070BD70B56E
:10114000024640325378202B1BD11378012B18D044
:10115000012515702423537003681C68AC431C6080
:1011600003681C680F263602B44309022143196044
:101170000068016829430160202050700020107031
:1011800070BD022070BD000004494A6B01231A4360
:101190004A6303494A6802434A60704700100240AC
:1011A000000001407047704770B503689A6919687C
:1011B000D243D40508D4CC43240605D4446C01257D
:1011C0002C4344642C02DC61530509D4CB431B0639
:1011D00006D4436C082423434364E3010468E361B9
:1011E000920509D4C943090606D4416C0222114371
:1011F000416411020268D161416C0B22114201D09D
:1012000001F026FA70BD026891691268436B002BE9
:1012100000D018477047704770B5040006D02546C7
:10122000403568780026002802D005E0012070BD16
:101230002E70204600F084F9242068702068016830
:101240004908490001600F21606809068843216848
:101250000861206882680121C9038A438260E068CE
:101260000128A06808D021229202104322689060D1
:10127000E068022802D005E00843F7E70120226871
:10128000C0025060206842680F4B1A4342602068D9
:10129000C2688A43C260616920690843A169090282
:1012A00008432168C860216AE06908432168086032
:1012B0002068016801221143016066642020687083
:1012C0002663AE70002070BD00800002704770473A
:1012D00070470000FFB5054604464035687881B088
:1012E0009446202875D120688069C043000470D5D9
:1012F000287801286DD001202870212068701020E6
:10130000A87000266664626263853348E0623348F1
:101310006063608DFF2804D9FF20012720853F06E8
:1013200006E0608D208501277F060004000C3ED07A
:10133000A06B00281CD02A49C162A16B29484863D0
:10134000A06B61460663A06B86632268238D2832FA
:10135000A06BFFF74BFD002810D020206870AE7006
:10136000606C1021084360642E70012005B0F0BD50
:1013700020206870AE70606C8021F3E71A480090FE
:10138000208D3B46C2B22046029901F0FBFE608DE3
:10139000218D401A60852E701021204601F0C8F87A
:1013A0002068016801229203114301600EE00F489A
:1013B00060630D48009000223B462046029901F0F0
:1013C000E1FE2E700121204601F0B2F80020CDE7A9
:1013D000FFE70220CAE700000000FFFF952B00088E
:1013E000892400087124000800200080A12C000836
:1013F00070477047FFB5054604464035687883B0AE
:10140000202872D10C98002814D00D98002811D0F3
:101410002878012869D001202870FFF765FE07466B
:10142000012200901923D103204601F0D4FE0028A8
:1014300071D103E00120400260646CE021206870FB
:101440004020A870002666640C9860620D98608544
:1014500066630E980090019704A90EC9204601F01A
:101460003FFD002801D02E7055E0608DFF2805D982
:10147000FF22228501231B06009606E0608D208551
:101480000096208D0123C2B25B062046049901F02C
:1014900079FE3A4620460E9901F0F9FE00283AD12D
:1014A000606A216800788862606A401C6062608DB2
:1014B000401E6085208D401E80B22085618D0029F0
:1014C0001FD000281DD100970022802120460E9BAE
:1014D00001F081FE00281ED1608DFF2806D9FF2271
:1014E000228501231B06009607E024E0608D2085FD
:1014F0000096208D0123C2B25B062046049901F0BC
:1015000041FE608D0028C4D13A4620460E9901F074
:1015100093FE002802D0012007B0F0BD20682021F2
:10152000C16120684268054B1A4042606970AE7024
:101530002E700020F0E70220EEE7000000E800FE39
:1015400070B586B0064614216846FEF744FE204971
:101550003068884239D11F4CE16A02200143E162C0
:10156000E16A002501400591C02000901220019001
:101570000320039001200490029569461648FFF766
:10158000F9FCA06B012149050843A063144C1348E2
:101590002060062060601020E560A0606561A561A4
:1015A000E5618020256220612046FFF7D7FB0028F7
:1015B00001D0FFF7F0FAB463002201211720A662E0
:1015C00000F072F8172000F063F806B070BD00005C
:1015D0000054004000100240000400501C00024073
:1015E000380C0020704770470248816802788918DB
:1015F000816070470000002010B508480024016891
:10160000402211430160204600F00AF8002801D072
:10161000012401E000F026F8204610BD0020024021
:1016200070B504460D4D7D202978C000FEF760FDA1
:1016300001460B480068FEF75BFD00F05FFD0028E7
:1016400009D1042C07D200222146401E00F02CF8BC
:1016500000206C6070BD012070BD00000000002003
:101660000C00002010B50948416B01221143416371
:10167000816B02041143816300220221032000F0E8
:1016800013F8032000F004F810BD00000010024021
:10169000002805DBC106C90E012088400149086009
:1016A0007047000000E100E010B504F035FD10BD0A
:1016B000F0B5154E3268154B74151B6A2240DB07D6
:1016C000DB0F002A04D0002B02D03568A54335601B
:1016D0003568AD08AD00054335600D4F3D69042008
:1016E00005433D6101290DD040BF20BF20BF3969AE
:1016F00081433961002A04D0002B02D03068204396
:101700003060F0BD30BFF2E70070004000000140E3
:1017100000ED00E0F8B5044600780026584D80063C
:101720007CD557484038806BC00006D454484038B8
:10173000816B020411438163012652480168C90587
:1017400010D40168821511430160FFF7CDFC0746F4
:1017500004E0FFF7C9FCC01B64283AD84948006878
:10176000C005F6D54648403800680321090562687F
:101770000840114081420AD09003800F032806D10F
:101780003F4840380068800301D50120F8BD286932
:1017900003210904084021D00A4082421ED020784B
:1017A000800633D528692A6988430121C9040A4380
:1017B0002A612A698A432A612861C0050ED5FFF78C
:1017C00093FC074607E0FFF78FFCC11B2E488142C0
:1017D00001D90320F8BD28698005F4D5207880065A
:1017E00014D560688103890F032908D1244B403B3D
:1017F00019680322120591431040014319602869BA
:10180000032261681204114008432861002E05D0AC
:101810001B484038816B0204914381632078C007E4
:1018200005D0E868A168800880000843E860207857
:10183000800705D5E8680C218843E1680843E86023
:101840002078400706D5E86803218902884321698A
:101850000843E8602078000706D5E86803210903FB
:10186000884361690843E8602078000606D5E86887
:10187000032189048843A1690843E8600020F8BD7A
:10188000401002400070004088130000F8B50E467A
:10189000040038D05E480068C007C00FB04214D2C0
:1018A0005B4F38684008400030433860FFF71CFC4D
:1018B000054605E0FFF718FC411B564881427AD8DF
:1018C0003868C007C00FB042F4D12078524F80076B
:1018D00005D5F868F0218843A1680843F8602078AE
:1018E000C00752D06068022806D0032807D03968A4
:1018F00001280AD0890504E03968890301E03968C4
:101900008901002903DB0120F8BD4907F9E7F968DF
:10191000890889000143F960FFF7E6FB0546606826
:1019200002280AD0032814D001281ED029E0FFF78E
:10193000DBFB411B374881423DD8F8680007800F28
:101940000228F4D121E0FFF7CFFB411B314881424F
:1019500031D8F8680007800F0328F4D115E0FFF7AD
:10196000C3FB411B2B48814225D8F8680007800F34
:101970000128F4D109E0FFF7B7FB411B254881425C
:1019800019D8F8680007800FF5D121480168C90708
:10199000C90FB14217D901684908490031430160B4
:1019A000FFF7A2FB054608E005E0FFF79DFB411BA2
:1019B0001848814201D90320F8BD15480068C007C6
:1019C000C00FB042F1D12078400706D5F868072152
:1019D00009028843E1680843F8602078000707D5CA
:1019E000F8680721C90288432169C9000843F860E3
:1019F00000F01AF8F968094A0906090F515CC84055
:101A00000749086007480068FFF70AFEF8BD0000B4
:101A10000020024088130000001002409871000866
:101A20000C0000200400002070B51B4EF2680C2151
:101A30001046084019498B0004280CD04D00082896
:101A400010D00C2810D070680004410F0120C00392
:101A5000491C884070BD3068C00601D5084670BD7D
:101A6000184670BD284670BD90020D4C000F205CDA
:101A70001202940FF268641CD20301D5294603E0D8
:101A80003268D20600D4194604F021FB2246002316
:101A9000FEF758FB70BD00000010024000093D0039
:101AA000A8710008FEB504007ED0FE4DEE680C2043
:101AB000EF6806400120000407402078C00747D0A7
:101AC000082E05D00C2E0AD101200004874206D131
:101AD000286880033CD560680028E5D038E0012004
:101AE00061680004814203D129680143296011E043
:101AF000052301221B0492049942296802D1114353
:101B00002960F1E781432960296801400091286834
:101B100090432860606800280DD0FFF7E5FA009038
:101B200005E0FFF7E1FA0099401A64287BD828689D
:101B30008003F6D50CE0FFF7D7FA009005E0FFF739
:101B4000D3FA0099401A6428F0D828688003F6D4A4
:101B50002078800756D50921E068042E0DD00C2E80
:101B600001D1002F09D000283CD02A688A430243C3
:101B70002A60FFF7B9FA074628E02A68520701D51C
:101B8000002891D06A681F231B029A4323691B0215
:101B90001A436A602A688A4302432A60FFF744FFB7
:101BA000E96809060A0F00E08CE1BF49895CC8407A
:101BB000BE490860BE480068FFF732FD002873D1B7
:101BC00020E0FFF791FAC01B0228AFD82868400731
:101BD000F7D568681F210902884321690902084373
:101BE00068600FE02868400840002860FFF77CFA32
:101BF000074604E0FFF778FAC01B022896D8286849
:101C00004007F7D42078C00660D5002E0CD0A0691C
:101C100000284AD02868FF21013108432860FFF7D7
:101C200063FA07462EE0C2E02868800502D5A06965
:101C30000028A6D06868072149038843216A084321
:101C400068606868217F0002000A0906084368602E
:101C5000206A410B0120C003491C8840E96809063D
:101C60000A0F9149895CC840904908609048006813
:101C7000FFF7D6FC002817D128E0FFF735FAC01B84
:101C80000228A2D828688005F7D56868072149038B
:101C90008843216A084368606868217F0002000A5F
:101CA00009060843686011E0E3E02968FF2001307D
:101CB00081432960FFF718FA074604E0FFF714FA9A
:101CC000C01B022873D828688005F7D42078794F84
:101CD000000724D560690028386910D00121084325
:101CE0003861FFF701FA009005E0FFF7FDF9009970
:101CF000401A02285BD838698007F6D50FE0400803
:101D000040003861FFF7F0F9009005E0FFF7ECF9CB
:101D10000099401A02284AD838698007F6D42078FA
:101D2000400767D500200190A86BC00006D4A96BBE
:101D3000012000070143A963012001905E4801686A
:101D4000C90512D402461168801501431160FFF7DE
:101D5000CBF9009005E0FFF7C7F90099401A642815
:101D600025D855480068C005F5D5FF20A268013088
:101D7000824203D139690143396111E001218902AD
:101D8000002A07D005231B029A4203D13A690A436D
:101D90003A61EFE73A6982433A61386988433861CA
:101DA000A06800280FD0FFF79FF9009007E05FE0E0
:101DB000FFF79AF90099411A4048814258D838698A
:101DC0008005F5D50EE0FFF78FF9009007E0FFF7EB
:101DD0008BF901460098091A3848814248D8386979
:101DE0008005F4D40198002804D0A86B01210907CC
:101DF0008843A863606A002866D00C2E3ED0012775
:101E00003F060228286805D0B8432860FFF76CF920
:101E100004462FE0B8432860FFF766F9064604E061
:101E2000FFF762F9801B022822D828688001F7D4C6
:101E3000E16AA06AEA680843216BFD231B049A4308
:101E400011430843E860286838432860FFF74CF9DD
:101E5000044604E0FFF748F9001B022808D8286868
:101E60008001F7D530E0FFF73FF9001B022801D9C8
:101E70000320FEBD28688001F5D425E00128F8D0B4
:101E8000E86801210904A26A014091421AD10F2198
:101E90008904E26A0140914214D103218905084076
:101EA000216B0DE000100240987100080C0000202A
:101EB0000400002040100240007000408813000021
:101EC000884201D00120FEBD0020FEBDF8B50546C8
:101ED000044620352878012819D0012028700220D6
:101EE00068702168CA2048622168532048622068CF
:101EF0008168012292029143816020688168120109
:101F000091438160FFF7F0F8064600270FE00220BA
:101F1000F8BDFFF7E9F8811B7D20C000814206D99A
:101F20002168FF204862032068702F70F8BD206888
:101F3000C0684007EDD52168FF2048620120687025
:101F40002F700020F8BD000070B50646FFF754FB67
:101F500003F032FF10211448FFF7BAF80024134DA4
:101F6000002801D02C801AE02888401C81B22980EA
:101F70003C2914D30D490420891C0870FFF73CFB51
:101F800003F01AFF3046FFF7A1FF2C806420FEF714
:101F900061FF03F0C1FEFF202D30FEF75BFF012142
:101FA0000020FFF785FB70BD0004005018000020E2
:101FB00010B5044601200B49000548612168886876
:101FC00040040BD5C868400508D5C8688022104079
:101FD000054A8018C8602046FFF7B6FF012020346C
:101FE000607010BD000401407FFBFFFF70B504006E
:101FF00005D0254620356878002802D006E001206B
:1020000070BD00202870204600F046F8022068705D
:102010002068C168C943C90637D5CA214162216811
:1020200053204862204603F07FFE002827D1206815
:102030008168184A11408160206881686268A369DC
:10204000114322691A43114381602168E0680861E5
:10205000206801692289120411430161204603F0BE
:1020600086FE00280BD12168CA6C92089200CA64CF
:10207000E26961690A432168CB6C1A43CA64226829
:10208000FF215162002801D070BD0020012169703C
:1020900070BD0000BFFF8FFF10B50068084988427F
:1020A0000DD1084801690122920411430161002207
:1020B00001210220FFF7F8FA0220FFF7E9FA10BD2C
:1020C000002800404010024070B5054629680A48C3
:1020D000C860FFF709F87D260446F60006E0FFF722
:1020E00003F8001BB04201D9032070BD2868C06806
:1020F0008006F4D5002070BD5F7F0100094910B54E
:10210000401E884201D9012010BD074C60610321A7
:10211000081F04F001F80020A061072020610020C2
:1021200010BD0000FFFFFF0000E000E0F0B5024638
:102130002032137E012B1ED0012616760223537601
:1021400003685D689C687027BD430F682F435F601C
:102150000068B307984205D0084B984202D0084B5C
:10216000984204D1802349689C432143816056767C
:1021700000201076F0BD0220F0BD000000080140F4
:102180000014014070B5050005D02C462034607E57
:10219000002802D006E0012070BD002020762846ED
:1021A00000F010F802206076291D286803F062FE16
:1021B0000120A077A076E076207760776076002017
:1021C00070BD000010B50068134A144990420AD14E
:1021D000886B102210438863002202211120FFF730
:1021E00063FA11200CE00E4A90420CD1486B042295
:1021F00010434863002203211420FFF755FA1420EE
:10220000FFF746FA10BD074A9042FBD1486B2022E7
:102210001043486310BD0000001000400010024051
:102220000008014000140140014620314A7E012A85
:1022300001D00120704702224A760168CB68012252
:102240001343CB6000689107884205D00749884254
:1022500002D00749884204D181684907490F0629FD
:1022600002D001681143016000207047000801405E
:1022700000140140704770B50446006801690025EC
:10228000C9438907002915DBC168C943890711D4EF
:10229000E91E0161012020762068806980072046C0
:1022A00002D0FFF7E7FF04E000F078F8204600F0E6
:1022B00076F8257620680169C943490717D4C168B3
:1022C000C943490713D40421C94301610220207680
:1022D000206880698005800F204602D0FFF7CAFF82
:1022E00004E000F05BF8204600F059F825762068FD
:1022F0000169C943090716D4C168C943090712D443
:102300000821C9430161042020762068C069800744
:10231000204602D0FFF7AEFF04E000F03FF8204671
:1023200000F03DF8257620680169C943C90617D435
:10233000C168C943C90613D41021C94301610820EB
:1023400020762068C0698005800F204602D0FFF704
:1023500091FF04E000F022F8204600F020F82576F6
:1023600020680169C943C90708D1C168C943C907C1
:1023700004D1891E0161204600F012F8206801692D
:10238000C943490609D4C168C943490605D4402157
:10239000C9430161204600F04AF870BD704770479C
:1023A00010B504460B4884420DD104F01BFD0A4AC7
:1023B0001178032902D2491C117004E0002010702A
:1023C000142003F091F80548844202D1044804F037
:1023D000FAFD10BDE40C002010000020A40C002029
:1023E0001A00002070B5044605462034207E0128DE
:1023F0000DD00126267602206076284603F071FD76
:102400000021002805D066762176012070BD0220CB
:1024100070BD2868C26840239A43C2602868C268B9
:102420001B029A43C26066762176002070BD704719
:10243000FEE7000010B50648006880694005400FBF
:10244000034802D0FEF7B0FE10BDFEF7DCFE10BD63
:10245000E40B002010B5806A0022816B002900D0B7
:102460008A63C16B002900D08A6300F0A1FE10BD11
:1024700010B5806A01684A680123DB031A434A6089
:10248000102100F0E5F810BD10B5846A20680168DD
:102490000122920391430160608D002808D0218DB4
:1024A000606A41186162608DFF2803D9FF2002E055
:1024B00020210FE0608D2085226883B22832A06B36
:1024C000FEF794FC002804D01021204600F0C0F84C
:1024D00010BD4021204600F02BF810BDF0B503469A
:1024E0000022CE0740332824B025002E05D05E7888
:1024F00042222746B74300D0F2228E0705D5442654
:102500005B7832439C4300D02A43CB0B01D0B823E5
:102510001A43102908D0202907D0402905D0006887
:10252000016891430160F0BD90210A43F7E7000084
:10253000F0B51C4C436B0022F225F4261A4FA3423F
:1025400014D01A4CA34211D0BB420FD0CB0B00D0F9
:10255000B822CB0700D02A438B0700D5324310297D
:1025600002D0202918D018E0902115E0CC0B00D023
:10257000B822CC0700D02A438C0700D5324310295B
:1025800002D0202902D003E0902400E060242243FE
:10259000BB4202D0402900D10A43006801681143C0
:1025A0000160F0BD952B0008D12D0008412F0008D7
:1025B00001688A69D243920701D400228A620068C6
:1025C0008169C943C90703D081690122114381612F
:1025D0007047F8B5054604464035687828218143A0
:1025E000206804D00821C16100202870F8BD8169ED
:1025F000C903CF0F8169FE230E0C81681E408A0536
:10260000C168920D19408C46E168022916D1062155
:10261000D3090E400B409E420FD1A16C491CA1640E
:10262000A16C0229E2D10021A1640823C3612970B1
:1026300039462046FEF7B7FDF8BD66460121C903BD
:102640002046FFF74BFF002028703246F0E70000DD
:10265000F8B505460446403568780026AE703D4A18
:10266000E2626685626C0A436264282832D02928B7
:1026700030D02A282ED038492046FFF72FFF204699
:10268000FFF796FF6878602812D0202169702068D3
:102690008269D24392060BD48269D243D20605D412
:1026A0001022C261606C0422104360642068C16122
:1026B0006663206BA16B294F002903D0112812D02B
:1026C000212810D0E16B002925D0122827D02228FC
:1026D00025D020E003212046FFF700FF2820687066
:1026E0001F486063E5E720680168490404D5016874
:1026F0000122920391430160A06BFEF7D7FA0128F3
:1027000009D0A06B87632E70A06BFEF7A9FA002892
:1027100004D0A06B1AE0204600F04AFDF8BD206806
:102720000168090404D501680122D20391430160C4
:10273000E06BFEF7BBFA0128EDD0E06B87632E70EB
:10274000E06BFEF78DFA0028E8D0E06B816B8847DC
:10275000F8BD00000000FFFF0380000055240008C2
:102760005530000870B504461548E062002626631F
:102770002020254640356870AE70C8436663400728
:1027800012D42068406A616A0870606A401C606206
:10279000208D002808D0401E2085608D401E608559
:1027A000606C04210843606406492046FFF796FEEA
:1027B00021681020C8612E702046FEF787FD70BD8D
:1027C0000000FFFF03800000F8B505460091006897
:1027D0002026C6612C4640346078212803D06078DA
:1027E000222806D00BE001212846FFF777FE1120B2
:1027F00004E002212846FFF771FE122028632868B2
:102800004168254A11404160002724486F63E8620F
:102810000098C043C10606D42A681021D161696CB2
:102820000422114369646178602905D1400703D40B
:102830002868406AC0B200902846FFF7B9FE686C6D
:102840006178602901D0002804D0696C2846FFF720
:10285000FFFEF8BD607821280DD060782228F8D1DD
:1028600066702F63A078A77040282770284610D084
:10287000FEF72DFDF8BD66702F63A078A770402885
:102880002770284602D0FEF723FDF8BDFEF7B1FD04
:10289000F8BDFEF7ADFDF8BD00E800FE0000FFFF4B
:1028A00070B50026054640350446AE706978202094
:1028B000212968700BD01220206302212046666314
:1028C000FFF70CFE2E702046FEF701FD70BD1120B3
:1028D0002063012120466663FFF700FE2E7020462C
:1028E000FEF7F6FC70BD0000F8B502680E461768EA
:1028F00004460546403568782021D161212806D05C
:10290000292804D0222808D02A2806D00CE04249E1
:102910002046FFF7E3FD212005E03F492046491C02
:10292000FFF7DCFD22202063206841680122D203EA
:102930001143416020684168384A11404160204697
:10294000FFF736FEF843410407D4206801680122EE
:10295000920391430160A06B08E000040BD420684F
:1029600002680121C9038A430260E06B002802D09B
:10297000006840686085F0434007042100280FDBB1
:1029800020688E43406A626A1070606A401C606210
:10299000208D002804D0401E2085608D401E60855B
:1029A000608D002802D0606C084360640027AF701F
:1029B0006763606C00280BD0616C2046FFF748FE0F
:1029C0006878282803D131462046FFF7CBFEF8BDB2
:1029D000E06A134EB0420BD0204600F023F8E662C6
:1029E0002020687027632F702046FEF76FFCF8BD2B
:1029F0006878222807D02020687027632F7020462F
:102A0000FEF7F1FDF8BD2020687027632F70204687
:102A1000FEF7E8FDF8BD00000180000000E800FEC0
:102A20000000FFFF70B505460068016800262C46CF
:102A30004034A670C9434A0403D4016801229203BA
:102A400004E0090404D401680122D2039143016027
:102A50006178282029290ED061782A290AD160704E
:102A60002220286302212846FFF738FD26702846D9
:102A7000FEF7B8FD70BD6070212028630121284653
:102A8000FFF72CFD26702846FEF7ADFD70BD000057
:102A9000F7B50446006882B0816900262746C9065A
:102AA000403735460092002942DA1021C16131E0F9
:102AB0000398401C2ED0FEF717FB0099411A03988B
:102AC000814201D8002825D1206841680122920363
:102AD0001140BA788369DB431B0416D401239B039E
:102AE000994212D0202A10D0416819434160FEF764
:102AF000FBFA009009E0FEF7F7FA0099401A19284E
:102B000003D920200543012604E020688069C043E2
:102B10008006F0D4206880698006C00F3043C7D09B
:102B2000002E02D121682020C8610420054301261F
:102B300021688869C20504D5012215431202CA61C1
:102B40000126410505D508210D432268C901D1613F
:102B50000126800506D50220054321680002C861D0
:102B6000012601E0002E0FD02046FFF721FD20684E
:102B70004168074A11404160606C2843606420202E
:102B800078700020B8703870304605B0F0BD000095
:102B900000E800FEF8B505460446403528780128CF
:102BA00017D001202870CB43DE06D043002E12DB65
:102BB000C20610D421681020C861606C042108434B
:102BC000606420212046FFF7B3FC2046FFF7F0FCAD
:102BD0005FE00220F8BD304A304E1F0637D447066A
:102BE00035D420680168402399430160608D002836
:102BF0002068406828D08105608D890DFF2803D9A1
:102C0000FF2020859B0408E0608D2085E06A9042CB
:102C100001D0E36A01E001235B0600200090208DD3
:102C2000C2B2204600F0AEFA608D218D401A608558
:102C3000687822282068016802D03143016028E0CA
:102C40000122D2031143F9E7800117D506E05F06A0
:102C500018D4470616D4608D002804D040212046A1
:102C6000FFF7F6FC15E020684168890111D4E16A9C
:102C7000914203D14168314341600AE02046FFF7A9
:102C80000FFE06E09A0604D4800602D42046FFF721
:102C90009BFD00202870F8BD0000FFFF00400000F1
:102CA000F8B507460446403738780E46012813D059
:102CB00001203870F043C3060421D543002B0DDBFF
:102CC000EA060BD422681020D061606C084360646F
:102CD0002046FFF76DFC5BE00220F8BD420707D4F9
:102CE0006A0705D420688E43406A616A087007E06D
:102CF00081070FD4A9070DD4606A21680078886223
:102D0000606A401C6062208D401E2085608D401EE0
:102D100060853DE02D4A01062FD469062DD4608DD3
:102D2000002802D0208D002804D02068406880014F
:102D300047D529E0206840688105608D890DFF280E
:102D400006D9FF220020228501231B06009010E0F7
:102D5000608D2085E06A904205D000200090E36AF3
:102D6000208DC2B205E000200090208D0123C2B268
:102D70005B06204600F006FA0AE0400608D4680622
:102D800006D4608D00280FD040212046FFF760FC5C
:102D9000F043800605D4A80603D431462046FFF749
:102DA00013FD00203870F8BD206841688901EFD418
:102DB000E16A914205D141680122920311434160C9
:102DC000E6E72046FFF76CFDE2E700000000FFFFAA
:102DD000F8B505460446403528783F4B012818D001
:102DE00001202870C843C7060026D243002F12DBFB
:102DF000D70610D421681020C861606C04210843F4
:102E0000606420212046FFF793FB2046FFF7D0FBAC
:102E10005FE00220F8BD870708D4970706D4206D2D
:102E2000216888620020C043206552E007062CD448
:102E300057062AD410212046FFF77AFB608D002820
:102E40001ED0608DFF2803D9FF22228500962AE03C
:102E5000608D208500962EE0204600F093F9608D6D
:102E6000218D401A6085687822282068016802D088
:102E70000122920301E00122D2031143016028E004
:102E800040212046FFF7E4FB23E047061AD457060B
:102E900018D46878222800D1104B608DFF2807D9FC
:102EA000FF2222850093E06C012381B21B06D3E749
:102EB000608D20850093208DC2B2E06C012381B229
:102EC0005B06C9E7800604D4900602D42046FFF7CB
:102ED0007BFC2E700020F8BD0020008000240080C4
:102EE000F8B50446164615481D46DAB2C3020090EE
:102EF000079F204600F046F93A462046069900F022
:102F0000C6F9002818D12846F5B2012809D0216851
:102F1000300A88623A462046069900F0B8F900283F
:102F20000AD1206885620097002280212046069BF6
:102F300000F051F9002800D00120F8BD00200080E9
:102F4000F7B5C76A82B00446002026464036019095
:102F50003078012823D0012030700398D543C04336
:102F600000908006002805DBA80603D420460399BC
:102F7000FFF7BAFC0098C0065FD4E8065DD4680489
:102F80001021002801DA280454D4E06B00280BD06B
:102F90002A0409D400684068002803D004E0022015
:102FA00005B0F0BD01200190A06B002805D06A0497
:102FB00003D400684068002802D0019800281BD084
:102FC0007078282808D101204006874204D1204685
:102FD0000399FFF7C7FB39E0707829282AD101202F
:102FE0000004C74226D02068C1612046FFF7E0FAFE
:102FF0002046FFF717FD29E02068C161606C0421BD
:10300000084360647078002F02D089058F421DD17B
:10301000212806D0292804D0222804D02A2802D02A
:1030200003E0212000E022202063616C2046FFF7AE
:103030000FFB0BE02068C16108E00098000705D491
:10304000280703D420460399FFF7C3FA0020307005
:10305000A6E70000FEB5C56A044607464037019161
:103060003878012828D0012038700198D643C04311
:1030700000908006002805DBB00603D420460199A5
:10308000FFF732FC00983D493D4AC00630D4F006B7
:103090002ED4638D1020002B10D02168C861606C85
:1030A000042108436064002D01D0954262D1616C17
:1030B0002046FFF7CDFA5DE00220FEBD7A78282A8F
:1030C00008D101225206954204D120460199FFF70A
:1030D00049FB4FE07A78292A07D18D4205D0216833
:1030E000C8612046FFF764FA41E02168C86141E009
:1030F0000098400717D4700715D4608D00280CD0B5
:103100002068406A626A1070606A401C6062208DAC
:10311000401E2085608D401E6085608D002829D16D
:103120008D4224D126E00098000706D4300704D44D
:1031300020460199FFF74DFA1CE00098800719D44A
:10314000B00717D4608D00280DD0606A2168007820
:103150008862606A401C6062608D401E6085208DC0
:10316000401E208506E0954201D0002D02D1204668
:10317000FFF758FC00203870FEBD00000000FFFF84
:103180000000000110B58905890D12041143029C4D
:10319000194300682143490042684908630D034C04
:1031A00023439A430A43426010BD0000FF63FF03BC
:1031B00010B5014640314B780022602B04D00263E9
:1031C0000A70FEF728F810BD20234B7002630A70C6
:1031D000FDF7E8FF10BDF8B51D4617460E4604463C
:1031E0001EE0681C1CD0FDF77FFF0699401AA8421C
:1031F00001D8002D14D120688169304688430DD054
:103200000020B8420CD1616C20200143616440343D
:1032100060700020A07020700120F8BD0120F0E750
:10322000206881693046884304D00020B842D8D055
:103230000020F8BD0120F9E770B516460D4604469A
:103240001EE0324629462046FFF722FC002801D026
:10325000012070BDFDF748FF801BA84201D8002D5A
:103260000ED120688069C043800609D5616C20209A
:1032700001436164403460700020A0702070E7E773
:1032800020688069C0438006DBD4002070BD70B523
:1032900016460D46044620E0324629462046FFF7F2
:1032A000F7FB002801D0012070BD681C15D0FDF788
:1032B0001BFF801BA84201D8002D0ED12068806919
:1032C000C043800709D5616C20200143616440340C
:1032D00060700020A0702070E5E720688069C0431E
:1032E0008007D9D4002070BD08B50848016B0122C1
:1032F00011430163006B01211040009000220A205D
:10330000FEF7D2F90A20FEF7C3F908BD001002400B
:10331000F0B587B014216846FCF75DFF5B48C16AD1
:1033200004221143C162C16A11400591C16A01259D
:103330002943C162C16A29400591C16A022631430D
:10334000C162C06A2A4630400590052080210007EE
:10335000FDF7C3FEFF21012202314D48FDF7BDFEFE
:103360004F210520002249020007FDF7B6FE00228A
:1033700008214748FDF7B1FEA80321273F0400902C
:103380006946019702954348FDF7F4FD11200004BA
:10339000019005206946029600950007FDF7EAFDB9
:1033A0000C20009005206946019702950007FDF763
:1033B000E1FD102000900024052069460197029449
:1033C0000007FDF7D7FD8020009011200190032019
:1033D00003900520029469460007FDF7CBFD1120FC
:1033E0000190032003900095029469462848FDF758
:1033F000C1FD69462648019700960295FDF7BAFD82
:1034000004206A4631C269462148FDF7B3FD28020F
:103410006A4631C2052069460007FDF7ABFD4F2023
:10342000400200900520029469460195039400072C
:10343000FDF7A0FD7813009002946946019503946E
:103440001348FDF797FD30200090019469460294DF
:103450000F48FDF78FFD002201210520FEF724F91A
:103460000520FEF715F9002201210620FEF71CF9C0
:103470000620FEF70DF9002201210720FEF714F9BE
:103480000720FEF705F907B0F0BD0000001002406C
:10349000000400500008005010B5154813490160A1
:1034A0001449416000218160016141618161012213
:1034B000C161C2600162FDF7AFFE002801D0FDF7D7
:1034C0006AFB00210A48FDF715FE002801D0FDF730
:1034D00062FB00210648FDF732FE002801D0FDF70F
:1034E0005AFB01200003FDF74FFE10BD00540040C1
:1034F000E40B00201304100010B50B4809490160CB
:103500007F2282600021416001614161FF2281616F
:10351000C260C161FEF76AFD002801D0FDF73BFBE8
:1035200010BD000000280040800C002010B588B0BD
:1035300014216846FCF74FFE0024164805941449F0
:1035400006940160FF21403184604160FF21F43125
:103550000461C16080214161FEF714FE002801D0A2
:10356000FDF719FB009469460A480194FEF73AFFFB
:10357000002801D0FDF70FFB059405A90548069426
:10358000FEF7D4FD002801D0FDF705FB08B010BD03
:1035900000080140E40C002010B588B014216846F2
:1035A000FCF719FE002415480594134906940160A0
:1035B0001F2184604160046111494461C160FEF7CC
:1035C000E1FD002801D0FDF7E6FA009469460B48BA
:1035D0000194FEF707FF002801D0FDF7DCFA0594FF
:1035E00005A906480694FEF7A1FD002801D0FDF7C5
:1035F000D2FA08B010BD000000140140240D0020D4
:10360000FFFF00001CB500240F4800940D490194F1
:103610000160FF214031846041600C49C16080211C
:103620004161FEF7AFFD002801D0FDF7B4FA009428
:10363000694605480194FEF779FD002801D0FDF7A1
:10364000AAFA1CBD00100040A40C00200F270000A7
:1036500070B505460C46086809A1FCF7CEFD0028A8
:103660000AD00AA12068FCF7C8FD002803D10A4946
:10367000284601F093FE70BD07497839F8E700004D
:103680002B20506C6179696E670000002B20536518
:103690007474696E6773000040190020FEE770B50E
:1036A000050023D000260024E00708D0012D15D006
:1036B000022D0ED0032D0CD0042D0FD105E0012DCD
:1036C00005D0022D03D0032DF6D1FF2202E05522B2
:1036D00000E0AA22314620B200F036F8641CA4B201
:1036E000802CE1D3761CF6B2082EDCD370BDF8B581
:1036F0000D4604461E46174609680068FDF73EF869
:1037000021D029682068FCF7E4FD40007D214008B5
:10371000C905FDF733F801D2286811E03146384673
:10372000FCF7E6FCFCF7F5FF2768064639462868F3
:10373000FCF7CFFD3146FCF711FE3946FCF778FD6A
:10374000206001F0C9FCF8BD30B57F2815DC0729E1
:1037500013DC002811DB00290FDB094D094BEC7845
:10376000C901C918002C02D00B5C534004E06B78EF
:10377000012B0B5C02D093430B5430BD1343FBE78A
:103780008C020020C814002010B507480121807861
:103790008902002804D0FF220448FCF715FD10BD63
:1037A0000248FCF718FD10BD8C020020C814002050
:1037B00070B50D4648681549154C0EC9002822D031
:1037C00000F03AF921681430FF318131888325688F
:1037D00040202C46FF348134A18B401AC003060CD4
:1037E0000846403066844008A0844842FCF786FFC3
:1037F000A0623046FCF78DFFE0622869C189022093
:1038000001F0E4FC70BD2868DAE7000068020020DF
:103810002000002070B5214D0C4629680646FF3176
:103820008131C86A8A6A01461046FCF7A7FF12D1A7
:1038300000F010FD01462A68304696680B0002F041
:103840005EFC070A0A0A05050D220A00207F0028EF
:1038500002D00020207770BD0120FBE7217FE160CE
:103860008268002A01D0214690472868816809783B
:10387000012908D1317E012905D1E168002902D052
:1038800001216030417628680069C08901F08EFC12
:1038900028680021FF308130017670BD20000020B3
:1038A000F0B55F4F054638680B4601460269FF31A7
:1038B000AD3185B01289081FFFF719FF002000F015
:1038C000C9FE3C68FF348134A06AFCF729FF02B2CC
:1038D0001C20205E022600901E210196615E64235A
:1038E000504802F09EF8012000F0B4FE3C68FF341E
:1038F0008134A06AFCF714FF02B21C20205E009005
:103900001E210196615E6423464802F0C5F88121BC
:103910006E68C905444C002E11D03868FF308130E4
:103920000390806AFCF784FCFCF7FAFE029602B270
:10393000A1686068009003980191C08B10E03E6818
:10394000FF368136B06AFCF773FCFCF7E9FE02B281
:103950002868801C0290A168606801910090F08B3B
:103960002368001D01B22F4802F0F2F83E68FF36CE
:103970008136B06AFCF7D4FEB18B0B38401802B226
:103980002AA00290A168606801910090F08B2368E2
:103990000F3001B2234802F0DBF83E68FF36813673
:1039A000B06AFCF7BDFEB18B0B38401802B220A004
:1039B0000290A168606801910090E088318C43001A
:1039C000C018081A0F3801B21648236802F0C0F870
:1039D0003E6818483746FF37B06381372420385E89
:1039E0000E38FCF78BFEB062287F01280ED0E488E9
:1039F000388CA100401A0F38FCF780FE3062A0001E
:103A00002018FCF786FE306305B0F0BDF88BE48823
:103A1000001B0F30FCF772FE3062A000F1E70000DF
:103A20002000002024000020680200204F4E0000EB
:103A30004F464600000040410FB5012100280ED03E
:103A400004E00A2A01D1491CC9B2401C0278002AAC
:103A5000F7D1684680894843491E401880B204B0B7
:103A600000BD1FB5FCF7C2FB6946498904B0484355
:103A700080B210BD70B50D4648681449144C0EC98B
:103A8000002820D0FFF7D8FF21680830FF31C1316E
:103A90000880246840202146FF31C1310A88801AFD
:103AA000C003000C4032C88052080A814039626A63
:103AB0000D46CA64FCF72DFE28652069C1890220E5
:103AC00001F084FB70BD2868DCE70000680200207C
:103AD00020000020F8B5154D064628680F46FF3037
:103AE000CD3003C8FCF74AFE1ED100F0B3FB0446FC
:103AF000030002F004FB070F0F0F0F0F05050F0067
:103B000028680069C08901F051FB28680021FF3056
:103B1000A1300177002C07D0062C05D0B2683046C2
:103B2000002A01D039469047F8BD0000200000204F
:103B3000FEB5384D064628680B4601460269FF313E
:103B4000D1311289081FFFF7D2FD002000F082FD5D
:103B50002C68606BFCF7E4FD00B20090E06AFCF7B3
:103B6000DFFD00B20290606AFCF7DAFD07B2E0699F
:103B7000FCF7D6FD022201B201923A462648029B8A
:103B800001F04FFF012000F065FD81217468C90537
:103B9000224F002C11D0FF202E68CD308059FCF729
:103BA00047FBFCF7BDFD029402B2B9687868FF36A6
:103BB000C13601910090708812E0FF202C68CD3052
:103BC0000059FCF735FBFCF7ABFD02B23068FF345F
:103BD000801C0290B9687868C134019100906088B7
:103BE0003B68001D01B20C4801F0B2FF2C6825466D
:103BF000FF35C1356888FCF78CFD20620620285E01
:103C0000FCF77CFDA062064820632888FCF781FD54
:103C1000A063FEBD200000202400002068020020D8
:103C20000000C84210B50021AE2001F001FD0021C6
:103C3000084601F0FDFC0021102001F0F9FC0021F4
:103C4000402001F0F5FC0021B02001F0F1FC002142
:103C5000812001F0EDFC0021FF2001F0E9FC0021B2
:103C6000A12001F0E5FC0021A62001F0E1FC0021EB
:103C7000A82001F0DDFC00213F2001F0D9FC00214B
:103C8000C82001F0D5FC0021D32001F0D1FC002197
:103C9000084601F0CDFC0021D52001F0C9FC00212F
:103CA000802001F0C5FC0021D82001F0C1FC0021DA
:103CB000052001F0BDFC0021D92001F0B9FC002154
:103CC000F12001F0B5FC0021DA2001F0B1FC002167
:103CD000122001F0ADFC0021DB2001F0A9FC002145
:103CE000302001F0A5FC00218D2001F0A1FC002175
:103CF000142001F09DFC0021AF2001F099FC10BDC3
:103D0000F0B5064687B008682A4F02900C46B9689D
:103D100078680090F01C019102B2154603212648F4
:103D20003B6801F015FF206800783D2804D01DDCB9
:103D3000232824D0252817D1617F03AAE06803F047
:103D4000CDF90ECF03A80C3FFFF78BFE7A21081A9E
:103D500001B203A80290BA687868019200902A46DE
:103D600015483B6801F0F4FE07B0F0BD402806D0CE
:103D70007E28F9D103A9E06803F0FEF9E1E7092004
:103D8000034600900221B01C019102B271210A4841
:103D900001F082FEE0680028E6D0052001210346FC
:103DA000361D0191009032B27321034801F039FEB3
:103DB000DAE7000068020020240000200548002106
:103DC0000068054AC16780210A500121203001772F
:103DD000704700002000002000005041F0B50F4661
:103DE00004460120059920700F48E0600F482061CB
:103DF0000F4860611D461646204600F059FA2576A8
:103E000067760020A07604212020E661015500207D
:103E100005E04101E26908315054401CC0B2617EA6
:103E20008142F6D8F0BD0000BD3D0008E940000821
:103E3000353E0008FEB5044600F00CFA214620315C
:103E4000A44E01250091030002F059F908828282F4
:103E5000056AC9F4F38237683878002878D0394683
:103E60006031087E002873D1A07E002829D0401E32
:103E7000C0B2A0768037019097493868FCF76EFA97
:103E800007460198FCF745FC3946FCF777FC42D21F
:103E9000009F0D21387848434021081AFCF72EFC7A
:103EA000616AFCF76BFC2AD138780D21484333381E
:103EB000FCF724FC376880373968FCF7B9F93860BB
:103EC00021E03869C07C0028C8D00D76607E401E95
:103ED000A0760099607E097888420AD97F4860629E
:103EE000607E0D2148434021081AFCF707FC80370B
:103EF0006EE00D21401E4843FCF700FC5AE0784973
:103F0000606A884201D1002054E037688037386801
:103F1000FCF78EF95CE07249606AFCF7DAF949E077
:103F200030680178002999D002466032117E00295C
:103F30000ED1637EA17E5B1E99420AD10169C97CC4
:103F4000002905D000211576A176803061620160DC
:103F50009CE0491CC9B2A17601918030006860499B
:103F6000FCF7FCF9009F02903878FCF7D2FB02992D
:103F7000FCF7AFF900900198401CFCF7CAFB0099D0
:103F8000FCF706FC26D238780D21401E4843FCF78A
:103F9000B5FB616AFCF7F2FB0ED138780D2148437E
:103FA0003338FCF7ABFB376880373968FCF795F995
:103FB000386005E0606269E04A49606A884201D180
:103FC0004648F7E73768464980373868FCF781F993
:103FD00038605BE04249606AFCF72AF9EAE7A17EB3
:103FE000E0694A0113460C33C7588158BC46002F7C
:103FF00000D00127097840290ED07E291BD0252921
:104000002CD021292FD0232932D0A368002B3DD0DA
:1040100081182046984739E010328158002901D094
:104020006F40C750207E012853D1306860304576FC
:104030002CE04EE027E03068FF3041300573A07E71
:10404000E1694001024610328A58002A1ED1A26856
:10405000002A1BD009182046904717E03068FF302F
:10406000E130057012E03068FF30A13005770DE0D7
:104070006146002900D001211C3281543068FF3094
:104080008130057602E0204600F020F9207E0128EC
:104090001FD130686030407E00281AD000200346CF
:1040A00011E0E269410157583F78402F01D0232F9A
:1040B00007D1A77E874202D00C31535001E00C316A
:1040C0005550401CC0B2617E8142EAD830686030F1
:1040D0004376FEBD20000020000050C100004C428D
:1040E0000000504100001842F8B5514D04462868C0
:1040F0000B4602690146D28880317C30FFF7F7FA1F
:1041000028687821095C002908D0616A406AFCF7B8
:1041100035FB03D128680021603001764448454EC4
:1041200000680078002802D00025414F5BE00025A0
:104130002AE03F4807683869407C0028A07E0ED0FE
:104140000D214843FCF7E5FA00902846FCF7E1FA18
:10415000F96FFCF7C6F80099FCF7BBF805E0281AE0
:10416000FCF7CCFAF96FFCF7BCF8616AFCF760F871
:10417000FCF7D6FA3080E069690141180020305E12
:10418000FFF7BEFD6D1CEDB2607EA842D1D8284D70
:10419000802128680958C06FFCF7F0FA26D12D68F5
:1041A00001202870A07E0C21C9434843FCF7A6FAE1
:1041B000616AFCF73DF880214851E86716E028461F
:1041C0000D214843FCF7A5FA3968C96FFCF730F8B0
:1041D000FCF7A6FA00B23080E1696A018918FFF79E
:1041E0008FFD6D1CEDB2607EA842E8D8104D002115
:1041F00028680162616A8162A17EE06949014658CE
:104200000D480EC83046FFF72CFC801DFCF781FAE4
:104210002D6828630948A863617EA07E491E80013D
:10422000FBF77CFF00B2401CFCF768FA6864F8BD3D
:10423000200000209006002068020020000050416D
:104240000348002100680176417601207047000094
:10425000200000200849002009680A7E4B7E9A420F
:1042600009D008461430105C521CD2B20A76042AD7
:1042700001D100220A7670472000002030B50B4B98
:1042800019684A7E0D7E541CA407A40FAC420AD0C4
:10429000143150541868417E491CC9B24176042932
:1042A00001D10021417600F017FF30BD2000002031
:1042B000054A12685368002B01D150609060526823
:1042C00042608160704700002000002070B50C4EF5
:1042D0000025316804460D734068086508698189C6
:1042E000042000F073FF31684868A04207D1CD6117
:1042F000432000064D62C8628520C005486370BD3A
:10430000200000207047000070B50D4604460320D1
:10431000049920702046FFF7CBFF0548E060054870
:10432000206105480021606124200155657670BD3B
:1043300005430008DD4400083D430008FEB5FFF7D3
:1043400089FF604C2070FFF77BFF5E4E20785E4C4B
:10435000361D002821D0012870D002286ED00121FE
:1043600003287ED004287BD0052867D1B17057A0E0
:104370000290A16860680191009014223C21544889
:10438000236801F0E5FB53A00290A16860680191E9
:10439000009014223C21236879E04A4D30780027B0
:1043A0006D1C00281FD02878322802D2401C2870AB
:1043B00019E02F70377045A00290A16860680191E4
:1043C0000090142258214248236801F0C1FB42A00A
:1043D0000290A168606801910090142258213C4825
:1043E000236801F0B5FB707800281FD06878322868
:1043F00002D2401C687019E06F70777033A0029091
:10440000A168606801910090142218213048236847
:1044100001F09EFB30A00290A168606801910090BD
:10442000142218212A48236801F092FBB078002852
:1044300004D0A878322802D2401CA870FEBDAF700C
:10444000B77022A00290A1686068019100901422C8
:104450003C211F48236801F07BFB1FA094E700E08C
:1044600019E0317019A00290A16860680191009074
:10447000142258211648236801F06AFB15A0029007
:10448000A1686068019100901422236858211048A7
:1044900001F05EFBFEBD71700CA00290A168606827
:1044A00001910090142218210948236801F050FB63
:1044B00008A00290A1686068019100901422182160
:1044C0002368E4E7D40B00208002002020000000D5
:1044D0002400002031000000300000003EB513A091
:1044E000134C0290A1686068019100901422582139
:1044F0001048236801F02CFB0CA00290A1686068B2
:1045000001910090142218210A48236801F020FB31
:1045100006A00290A16860680191009014223C21DD
:104520000448236801F014FB3EBD00003000000089
:10453000800200202400002070B5064D0024E00019
:1045400040190821FBF747FE641CE4B2802CF6D327
:1045500070BD0000960E0020F0B5A1B00546002405
:104560006E4620460021B03001F062F80021084676
:1045700001F05EF80021102001F05AF80120FCF74C
:1045800069FC4020694608700021E0014019425C46
:104590007318491CC9B25A708029F8D30A4FB86BF6
:1045A000FCF784FB0128FAD181236A46782106486A
:1045B000FCF790FE0120FCF74DFC641CE4B2082CD3
:1045C000CFD321B0F0BD0000E40B0020F0B5A1B0C6
:1045D0001A4E00246D4620460021B03001F028F824
:1045E0000021084601F024F80021102001F020F8F5
:1045F0000120FCF72FFC4020694608700021C8000C
:104600006A188019491C005DC9B250708029F6D320
:104610000B4FB86BFCF74AFB0128FAD181236A469D
:1046200078210748FCF756FE0120FCF713FC641CB8
:10463000E4B2082CCFD321B0F0BD0000960E0020CC
:10464000E40B002010B5024801F012FD10BD00007F
:10465000C814002030B50B4B01251A7800241146F0
:104660006940002805D0012807D0022800D1DD705C
:1046700030BDDC705A70997030BDDC7059709A7022
:1046800030BD00008C020020F8B51A4D0F46296895
:104690006120CE1D4006F936F065FF2057300C46EC
:1046A000405AFCF736F821463066FF311F20813131
:1046B0004874612088742420C8742B200875103930
:1046C000786902F059FD2968B869FF31813102F03B
:1046D00053FD09480EC82868FF307130FFF7C1F953
:1046E000FF222968913250540869C189022000F0E4
:1046F0006DFDF8BD2000002068020020F8B51C4EBA
:10470000074630680C46FF305D3003C8FCF736F8CA
:104710002DD1FFF79FFD0546030001F0F0FC081EB8
:10472000050C1E1E1414281E2169E0684018A1699A
:10473000884206DD15E02169E068401A6169884217
:104740000FDBE0600DE030680069C08900F02EFDED
:1047500030680021FF3041300173002D07D0062D55
:1047600005D0BA683846002A01D021469047F8BDE6
:1047700020000020FEB56A4D044628680B4601461D
:104780000269FF3161311289081FFEF7B0FF002076
:10479000FFF760FFFF202E685D308059FBF7C0FFF8
:1047A00002B220200227FF21009053310197715E51
:1047B00078235C4801F035F90120FFF74BFFFF201B
:1047C0002E685D308059FBF7ABFF02B22020FF213D
:1047D000009053310197715E7823524801F05CF9E3
:1047E000FF202E685D308059FBF79AFF143002B22B
:1047F00007200121FF36009081360191717C422310
:10480000484801F049F9FF202F685D30C059FBF797
:1048100087FF001D02B22068434E801C0290B168E1
:104820007068FF37413701910090788A3368001D26
:1048300001B23C4801F08CF9E06802F08BFC00907A
:104840002868FF300130C06DFBF76AFF001D07B21A
:10485000E06802F07FFC0ECE0C3EFFF702F92968FB
:10486000FF314131898A081A001F01B20098029075
:10487000B2687068019200903A462A48336801F0A5
:1048800067F9FF202E685D308059FBF749FF14302F
:1048900002B23046FF307130244F0290B968786818
:1048A000FF36813601910090707C317C3B68411A63
:1048B0001C48891E01F04CF9FF202E685D3080599C
:1048C000FBF72EFFFF3681361430029602B2B9682C
:1048D000786800900191B17C1248891C3B6801F016
:1048E00037F92D682846FF3081300646407C801C11
:1048F000FBF70FFF2862F07C801CFBF70AFFA86221
:10490000A1696069E268091A101A3E225043FBF758
:1049100005FCFBF7F3FE28630548A863FEBD000015
:1049200020000020240000207402002068020020E3
:1049300000004040FEB53C480C460568394A29460F
:10494000FF318131FF20EB300A670E46405BFBF7F9
:10495000E0FE70673549607F6D18002806D0012899
:104960000BD0022818D0032830D14CE030A12846C3
:10497000A369626901F080FB28E0A069FBF7BEFE35
:104980002D49FBF7EBFCFBF7E4FE06460F4660699A
:10499000FBF7B4FE28490DE0A069FBF7AFFE2749FD
:1049A000FBF7DCFCFBF7D5FE06460F466069FBF71C
:1049B000A5FE2249FBF7D2FCFBF7CBFE02460B46D5
:1049C0001FA128460197009601F056FB1E4D206856
:1049D0000ECD801C0C3DFFF744F8134F81213E683B
:1049E00089008855881C0ECD3018FFF73AF80F4A19
:1049F0003968521E5054002020770869C18902206E
:104A000000F0E4FBFEBDA069FBF778FE0F49FBF761
:104A1000A5FCFBF79EFE06460F466069FBF76EFE9F
:104A20000A49C7E7000030C220000020060200004B
:104A300025647E2564000000000020410000C8427B
:104A400025677E25670000007402002000007A447C
:104A5000F3B53B4F0C4638680025FF30F13003C8F2
:104A600081B02E46FBF78AFE40D1FFF7F3FB03002F
:104A700001F045FB08321624050D4E5B4D32207FB8
:104A800000282DD1206907282ADA401C06E0207F63
:104A9000002825D12069002822DD401E20611FE06A
:104AA000217F00291CD001250021226903E00A236F
:104AB0005D43491CC9B28A42F9DC0DE0217F00291F
:104AC0000ED00025ED430021226903E00A235D4357
:104AD000491CC9B28A42F9DC002807D0062805D053
:104AE00001988268002A01D021469047E068002D95
:104AF00001D04119E160E168002E01D04942E16036
:104B00006269914202DBA269914200DDE060FEBD74
:104B10002069072805D0207F002804D000202077B6
:104B2000DEE70126DCE70120F9E738680069C08983
:104B300000F03CFB38680021FF30E1300170D5E720
:104B400020000020F0B57A4E044630680B4601463E
:104B50000269FF31F53187B01289081FFEF7C7FDE2
:104B60000020FFF777FDFF203568F1304059FBF753
:104B7000D7FD02B22C200227FF210090E7310197D8
:104B8000695E64236B4800F04CFF0120FFF762FD73
:104B9000FF203568F1304059FBF7C2FD02B22C20EE
:104BA000FF210090E7310197695E6423614800F0BE
:104BB00073FFFF203568F1304059FBF7B1FDFF3539
:104BC000001DFF3502B20235287921685A4D891C33
:104BD0000291AB68696880270091381AC10F0818E4
:104BE0000193411053482B6800F0B2FF3668FF2054
:104BF000F1308059FBF794FD123002B24F494F4813
:104C0000491C805D711802914D49381A8E684B68B5
:104C10000093C30F1818019640100B6801464548D1
:104C200000F096FF607F00282BD02E26012804D0AC
:104C3000022813D0032824D15EE03D480068FF30ED
:104C40008130006FFBF76CFD1D30029602B2A9683F
:104C500068680191009058212B680FE03448006883
:104C6000FF308130006FFBF75BFD1D30029602B212
:104C7000A9686868019100902B684F212D4800F0C9
:104C8000EFFC30A103A8E26801F0F6F91D27284DDA
:104C900000262868FF308130006FFBF741FD1D3092
:104CA00002B203A8805D02902348836841680091A6
:104CB0000193036839461F4800F0D2FC0937761C7F
:104CC000F6B2FFB2082EE4D32D682048286320698D
:104CD0000721081AC10040181C30FBF70FFD28629D
:104CE000207F002819D0FF20EB30405B1B30FBF702
:104CF00010FDA862164818E00D480068FF308130AA
:104D0000006FFBF70DFD1D30029602B2A9686868BE
:104D10000191009046212B68B0E7FF20EB30405B0B
:104D20002730FBF7F6FCA8620A48A86307B0F0BD7D
:104D30002000002024000020740200200502000052
:104D400068020020252B303864000000000010416C
:104D5000000060410000404010B50D4900200C6883
:104D60000C49E165A0650C4921668121C905616690
:104D7000C1210906A166E0668520C00520670748B5
:104D80003E210089081AFBF7B9FC606710BD0000DE
:104D90002000002000001042000070C180020020AE
:104DA000FFB50F4600250999164604460570FFF722
:104DB0007FFA0C48E0600C4820610C4860612420B8
:104DC00005556776E66103982062002005E0410101
:104DD000E26908315054401CC0B2617E8142F6D86D
:104DE000FFBD0000594D0008294F0008F14D000893
:104DF000F8B50446FFF72EFA0746C125852620465A
:104E000046492D06F605464A20303B0001F077F969
:104E10000725252505264682250017683A78002AA9
:104E20001BD00279002A06D0521E0271F86DFBF7E2
:104E3000FFF9F8652DE03969897C00290DD0617E84
:104E4000491E0171607E2321C943401E4843FBF780
:104E500055FC11E03E67BD66F861F8BD17683A7809
:104E6000002AFAD0637E02795B1E9A420ADA521C4B
:104E70000271F86DFBF72DFAF8652A49F869FBF71E
:104E800028FAE7E73969897C0029E6D00021017119
:104E9000F9652449F869FBF7CBF9DBE705460079AA
:104EA000E16940010B581B78402BD6D001267E2BA0
:104EB00006D0252B17D0212B1AD0232B1DD00BE089
:104EC0001068FF30413006732879E16940010246DD
:104ED00010328A58002AC0D1A268002ABDD0091811
:104EE00020469047F8BD1068FF30E1300670F8BDED
:104EF0001068FF30A1300677F8BD03460C33CB585D
:104F0000002B00D001231C300B541068FF3081307F
:104F10000676F8BD2046FFF7D9F9F8BD000010422B
:104F20002000002000007041F0B5664C0546206866
:104F30000E46016985B08A88014633465C31583097
:104F4000FEF7D5FB2068334601698A880146643143
:104F50006030FEF7CCFB2068334601698A88014641
:104F60006C316830FEF7C3FB2068334601698A88DC
:104F7000014674317030FEF7BAFB2F46203739797D
:104F8000E869490146582068006FFBF7C9FB00B289
:104F900003904D480EC8B01CFEF763FD4008402149
:104FA000081AB61C484A01B20296506892680090EE
:104FB00001924548039A0368444800F0C9FD2068FF
:104FC000806EFBF7ADFB01B21820009000223E4836
:104FD000019200893E22101A02B208233B4800F0D9
:104FE00020FD20680078002803D0002401261E2719
:104FF00059E0002429E0334806683069007C002825
:10500000B06D07D0FBF78CFB397924226043514304
:10501000401A04E0FBF784FB3979611A48433130C8
:1050200000B20390306EFBF77BFB2B6A7821614363
:10503000591802B201201E230191029000932348C7
:10504000039900F0F1FB641CE4B2687EA042D2D860
:105050001C4C2068C16D806DFBF790FB26D1246845
:105060000120207038792321C9434843FBF746FBD0
:10507000E065A0651AE013480068806DFBF750FBFF
:10508000242161434018313001B2286A78226243FA
:10509000801801901E230422009702960B4800F00E
:1050A000C3FB641CE4B2687EA042E4D8054808490A
:1050B000006801627F21C90581620649016381633D
:1050C00005B0F0BD20000020800200202400002058
:1050D000000038420000104202480A2100684030B7
:1050E000017570472000002070B52F4C21684031B9
:1050F0008A89CB899A4208D810188881FFF7A0F8CE
:1051000020680A214030017525E0087A0022002835
:1051100002D0012810D01EE0487A430785065B0FB5
:105120006D0FAB4217D20323D84101235B07C01890
:105130001D23D84148720DE0487A430785065B0F6E
:105140006D0FAB4207D9C308401EDB004007400F7C
:1051500003434B728A8120684030417A4A078906AE
:10516000520F490F8A4201D1012100E000218172D2
:105170000020FFF76FFA20684030407A4007400F68
:10518000030000F0BCFF050904060D0F0900012013
:1051900000E00220FEF783FA0120FFF75BFA70BD02
:1051A0000320F7E70420F5E720000020064901224C
:1051B0000968C72340310A724A7A1A404A720022AB
:1051C0008A72C8818A8170472000002030B5084A61
:1051D00000231268C72540321372547A40072C40CE
:1051E000800E044354729372D181938130BD0000CC
:1051F00020000020FEB5684E044630682346016951
:105200004A88014620311C30FEF771FA3068234687
:1052100001694A88014628312430FEF768FA30686F
:10522000234601694A88014630312C30FEF75FFA87
:105230003068234601694A88014638313430FEF728
:1052400056FA3468A0680378FF204D30025D022AC8
:1052500032D0FF209930015D0225022913D0FF20B2
:10526000BD30005D022845D0FF34E1342478022CA3
:1052700059D0002B72D0012B3BD1002A39D1002903
:1052800037D1002835D10220FFF7E4F93468606B8C
:10529000FBF746FA00B20090E06AFBF741FA07B26A
:1052A000606AFBF73DFA06B2E069FBF739FA01B232
:1052B0003B463246019515E00220FFF7CBF93468F2
:1052C000606BFBF72DFA07B2E06AFBF729FA06B22A
:1052D000606AFBF725FA05B2E069FBF721FA01B233
:1052E000012035E02C48001D00F09BFB0120FFF75A
:1052F000B1F9FEBD606BFBF713FA00B20090E06AF3
:10530000FBF70EFA07B2606AFBF70AFA06B2E06929
:10531000FBF706FA01B220483B463246001D0195D4
:1053200000F0BAFBFEBD0220FFF794F93468606B11
:10533000FBF7F6F907B2E06AFBF7F2F906B2606A2A
:10534000FBF7EEF905B2E069FBF7EAF901B20020DC
:1053500033462A4600970190C4E7FFE70220FFF793
:1053600079F93468606BFBF7DBF907B2E06AFBF7A9
:10537000D7F906B2606AFBF7D3F905B2E069FBF72B
:10538000CFF901B205200190034833462A46009721
:10539000001D00F0BCFAA9E72000002000B500299C
:1053A00016D048600B48FF23006800224D331A5482
:1053B000FF23E1331A54FF2399331A54FF23BD33DB
:1053C0001A5402730165006981890420FFF7FEFE0B
:1053D00000BD0000200000200146054800688068EC
:1053E000002803D0C268002A00D010477047000090
:1053F0002000002010B5FFF777FE08484A2100681A
:10540000095C002909D0016D816000210170012132
:10541000017300698089FFF7C9FE10BD20000020DC
:10542000F1B5304E30688068002820D0047800251F
:10543000002C02D0012C0AD105E02421095CC269AC
:105440004901551803E0827EC16952018D18026935
:105450000746009990470098FFF746FE012C07D0B9
:10546000002C05D030687A69806800999047F8BDB3
:10547000FF2130684D31095C002912D1FF21E13153
:10548000095C00290DD1FF219931095C002908D15F
:10549000FF21BD31095C002903D17A698068009938
:1054A000904730682A468168FF304D30009B00F0FD
:1054B000D1FB30682A468168FF309930009B00F0AC
:1054C000C9FB30682A468168FF30BD30009B00F080
:1054D000C1FB30682A468168FF30E130009B00F054
:1054E000B9FBF8BD20000020F8B5334E07463168FF
:1054F00002258C68084622784030032A0CD0027DB1
:10550000002A47D0521E0275087B002828D00128A7
:105510002FD002283BD132E000220275087B002800
:1055200004D001280ED0022834D114E0FEF72CF963
:105530003846FFF775FF3846FFF75CFF384600F046
:1055400041F827E03846FFF747FF306839460573D2
:105550008068226902E0626939462046904719E076
:10556000FEF712F93846FFF75BFF3846FFF742FFB8
:105570000AE03846FFF730FF3068057307E0FEF7B2
:1055800003F93846FFF74CFF384600F01BF8384661
:10559000FFF730FE0124A402224608490848FAF722
:1055A0003AFE002806D0224604490548FAF7FAFDDB
:1055B000FFF748F8F8BD000020000020C8140020C4
:1055C000900200207CB5194D03462C682169CA88D9
:1055D00021464431081FFEF78AF828688068007861
:1055E000002821D001281FD1002380227D21281DE1
:1055F00000F0E9F93F2380227D21281D00F0E3F926
:10560000402300227E21281D00F0D8FA2868006C73
:10561000FBF786F8002100B20A46019100900323AF
:105620007D21281D00F0FDF97CBD00002000002038
:105630001FB50123002969460873074A03A801938F
:105640000292009001D0402201E001230022782143
:105650000248FBF7CFFE1FBDFFFF0000E40B002058
:105660000FB4F0B585B00C460646109869460C9DFF
:10567000098F59232038DB000835CA1AC0B22FB26F
:1056800099424AD02BDC442930D099229200914291
:1056900024D10C2141434000019100250621401CEA
:1056A0004843009001980D9940190B5C2146304603
:1056B0000C9A00F0EAFA00980D9940190B5C3A46F2
:1056C0002146304600F0E1FA0420641C305E24B22A
:1056D000A04203DB6D1CEDB2062DE3D39EE0682AE9
:1056E00041D0FF3AFF3A022A16D161E00025062197
:1056F00007464F430D987919435C214630460C9A72
:1057000000F0C3FA0420641C305E24B2A04203DB24
:105710006D1CEDB2062DEDD380E041000E2250430A
:10572000491C01900025C800401A009001980D996D
:1057300040190B5C214630460C9A00F0A6FA0098FE
:105740000D9940190B5C3A462146304600F09DFA0F
:105750000420641C305E24B2A0425FDB6D1CEDB2FD
:10576000072DE3D35AE0410000010190C8000D99D4
:1057700000250818009001980D9940190B5C2146EE
:1057800030460C9A00F081FA294600980831435CB3
:105790003A462146304600F078FA0420641C305E18
:1057A00024B2A0423ADB6D1CEDB2082DE3D335E004
:1057B00024214143039141004018411C0C22801CCC
:1057C00051435043029101900C980025103000B2D3
:1057D000009003980D9940190B5C214630460C9AB5
:1057E00000F053FA02980D9940190B5C3A46214695
:1057F000304600F04AFA01980D9940190B5C214699
:105800003046009A00F041FA0420641C305E24B255
:10581000A04203DB6D1CEDB20C2DDAD3204605B09F
:10582000F0BC08BC04B01847FFB581B00B990A98CA
:105830001E46002960D0C117490F09184A05C9083A
:10584000170EC900401AC0B20025009026E00024BF
:1058500020E00199029804228A5E001990421BDC24
:105860000399EA005118019A0623D35E994243DC5A
:105870000C9A012A2A4619D00B9B72431B19D25C41
:10588000D243D2B213460AB201B2019800F0FDF938
:10589000641CE4B2B442DCDB6D1CEDB2BD42D6D375
:1058A0000098002828D00024FF2523E00B9B72439A
:1058B0001B19D25CE6E70199029804228A5E00195E
:1058C000904219DC0C993A46012917D00B99724382
:1058D0000919525C009B294699408A43D143CBB2B7
:1058E0000399FA0051180AB201B2019800F0CDF9FB
:1058F000641CE4B2B442DEDB05B0F0BD0B99724328
:105900000919535C009A294691408B43E8E7FFB59B
:1059100083B00C9E0D9C1D461746012B51DB012EBA
:105920004FDB002C4DD0B54201DD701E00E0681E3B
:10593000C005000E844200D9044604983B46001975
:10594000401E02B202920499039800F03CF80498B9
:105950003B464019411E0DB2001B01B22A4601917F
:10596000039800F030F8B8190090401E06B2334694
:10597000029A0499039800F026F833462A460199C2
:10598000039800F020F83819401E03B23A460193FC
:105990000499039800F012F900983346001B04B2F2
:1059A00022460499039800F009F929463A46019BDA
:1059B000039800F003F9334622462946039800F085
:1059C000FDF807B0F0BDFFB581B01E460C0000D554
:1059D0000024002A00DA002201990420085EA04277
:1059E00000DA0446904200DA024608460621415E8B
:1059F000B14214DB002E12DB944202DD1046224637
:105A000004460025171B08E0601901B20123324645
:105A1000019800F03AF96D1CEDB2AF42F4DA05B02E
:105A2000F0BDFFB583B00C9E0D9C1F46012B31DBF2
:105A3000012E2FDBB74201DD701E00E0781EC0058D
:105A4000000E0090844200D90446002501941FE016
:105A50000598401903B20498C019001B401E02B2F9
:105A60000498001901B20398FFF7ADFF0198854231
:105A700003D2002C01D0641EE4B2301A401EA842AA
:105A800004DC0099601C884200D8C4B26D1CEDB2E1
:105A9000B542DDDB07B0F0BDFFB585B00E9E0F9CB3
:105AA0000F46012B52DB012E50DB701E0390B342D8
:105AB00000DC581EC005000E0290844200D9044646
:105AC0000025F818049401903EE0002D10D00398B2
:105AD0008542079814D18019401E03B20198001B1B
