:020000040800F2
:1000000008140020D5000008394A0008C934000847
:1000100000000000000000000000000000000000E0
:100020000000000000000000000000005F50000819
:100030000000000000000000854F0008615000082B
:10004000E7000008E7000008FD4F0008ED0E00087B
:10005000E7000008B70E0008C70E0008D70E00081A
:1000600000000000E7000008650D0008E700000838
:10007000E7000008E700000800000000E7000008B3
:100080000000000015510008000000000000000002
:100090000551000800000000E7000008CD3400080A
:1000A000E7000008E7000008E7000008E700000894
:1000B000E7000008E7000008000000000000000062
:1000C0000348854600F0E6FC00480047C167000889
:1000D000081400200448804704480047FEE7FEE774
:1000E000FEE7FEE7FEE7FEE701510008C100000859
:1000F00030B50B46014600202022012409E00D46C0
:10010000D5409D4205D31D469540491B2546954047
:1001100040191546521E002DF1DC30BD70B500248B
:100120002546002801DA01244042002901DA012590
:100130004942FFF7DDFFAC4200D04042002C00D026
:10014000494270BDF0B51FB40646002082B0054696
:100150004024019100901BE0019922460F46304651
:1001600000F0C0FB049A059B801A994110D31046F9
:100170001946224600F0A6FB361A8F410197224607
:1001800001200021009F00F09DFB38184D41009098
:100190002046641E0028DFDC019B00982946324679
:1001A00007B0F0BD03460B439B0703D009E008C925
:1001B000121F08C0042AFAD203E00B780370401C17
:1001C000491C521EF9D27047D2B201E00270401CA5
:1001D000491EFBD270470022F6E710B513460A46C7
:1001E00004461946FFF7F0FF204610BD30B504461F
:1001F0000020034600E05B1C934203D2E05CCD5C30
:10020000401BF8D030BDF8B502464A40D40F42003A
:100210004B0052085B089A4202D202460846114639
:100220004A0023D0C30D4A00DDB2120EAD1A202DB4
:1002300035DA49020126490AF6058A19002C00D050
:10024000524220214F1B1146B9402A411018C20DBD
:100250009A4221D0002C17D0012D08DCDA05801A33
:10026000D20F8019D207DBB200F068FBF8BDDA05C7
:10027000801A012340001B06C01880185A428018BB
:10028000CA0F1043490007E04908C2071143DA05C5
:10029000801A80194008801800F048FBF8BD610002
:1002A0000122511A001BF7E70122D2075140AAE7A9
:1002B0000122D2075040A6E7024670B54A40D30F4C
:1002C000DB0740002DD04A002AD0010E140E000298
:1002D00012020919400A520A8418E50104465443DF
:1002E000000A120A2E045043A4194219200CC543D7
:1002F000AA18120C0125AD03521C521912047F39A1
:10030000240400D0521C104301D44000491EC2B244
:100310000C06C0092018401C4008802A02D003E0C7
:10032000002070BD40084000002900DA002018437A
:1003300070BD70B502464A40D50F40004A00ED0737
:1003400040085208002814D0002A12D0C40DD30D42
:1003500041020120C0055202490A520AE41A091852
:1003600012187D34914201D3641C00E04900002C36
:1003700001DA002070BD0023914201D3891A0343A2
:10038000400849000028F7D100290AD0914202D143
:100390000121C90705E0914201D2012101E00121BB
:1003A000C943E005C018401900F0C0FA70BD420012
:1003B00005D04200120E52428A4201DB00207047F3
:1003C000C905081870470000F0B5074608465840B0
:1003D00087B0C00F049048000E46590040084908F5
:1003E000BC1A884105D2384631461E4617460B4690
:1003F00002465800400810434CD0300D0390400591
:100400005900400D490D0590401A0290402872DABB
:1004100018030121000B090508430190049800927C
:10042000002805D001995242002088410092019095
:10043000029840210A1A0199009800F043FA0546F3
:100440000C466B4607CB00F05EFAC0197141039A67
:100450000E0D0023D71756401A467A40164344D053
:10046000049A002A2DD0029A012A039A15DC12055B
:10047000C01A914101263605001C7141D20F059E1C
:10048000D2070093019202962A46234600F09CFA76
:1004900007B0F0BD38463146FAE71605224A0F4646
:1004A000B218C01AB74101210905001C4F410018BC
:1004B0007F41114618187941E20F10436D196441CC
:1004C00013E0E2076D0815436408C2071443039A5A
:1004D00001261205C01A91413605001C7141CE0754
:1004E000400830434908C01851412A46234600F0CD
:1004F0005EFACDE7FFE7049801224000C117121A07
:1005000000238B4104983146C417381AA141EEE705
:1005100030B40124E407634030BC55E730B4012413
:10052000E407614030BC4FE70000E0FFF0B51FB4C6
:1005300088B00B990998002448400999C00F4900D8
:1005400049080991C0070B990090490049080B918F
:1005500009990898A64608431CD00B990A980843A5
:1005600018D0099801244000420D4800410D099817
:1005700024050003000B204309900B980003000B97
:1005800020430B9050181C4940180022019014463B
:10059000104605E0002001460DB0F0BD032801DA49
:1005A000034600E003239C46C11A0AAE0AE05F003E
:1005B00008ADED5B4F00F75B7D430027AA187C4137
:1005C000491C5B1E6145F2DD410004AB5A52210417
:1005D000120C0A43240C401C0828DFDB019802900F
:1005E0000099704601910090059B049A079906981E
:1005F00000F0EAF9D0E700000DFCFFFFF0B50C4673
:100600005C4085B0E40FE40703944C0000266408C6
:1006100059009446490802460296224321D0624678
:100620000A431ED06200570D4A000E032303550DE6
:10063000012402462C492405781B1B0B360B40185D
:1006400023432643614600901C46501AB44103D30D
:100650000098401C009002E0921800985B4100282E
:1006600003DA0020014605B0F0BD00200121090594
:100670000746864611E064461D46141BB54106D365
:100680006546521BB341744607430C43A646CD074B
:1006900040084908284392185B4105460D43EAD1BA
:1006A0001046184313D06046194650407140084325
:1006B00006D06046101AB34106D20122002306E09C
:1006C00000220123DB0702E00122D24353100098ED
:1006D00074460105381C6141029C039D0019694163
:1006E00000F065F9BFE70000FD03000070B54B00A6
:1006F0005B0803430BD04B005C0D0026334665427C
:10070000B341D417AD1AA34102DB0020014670BDEE
:1007100012053018514170BDC217C10F504010B5BD
:100720004018CA079623002100F008F910BD000008
:100730000EB5C217C10F5040CA0740180021054B23
:100740000293019200910A460B4600F03DF903B076
:1007500000BD0000330400000EB5054902910021E0
:1007600000910A460B46019100F02EF903B000BD3E
:10077000330400003EB5CA17CB0F0024504051404F
:10078000C0186141DA07054B02930192009422469A
:10079000234600F019F903B030BD00003304000017
:1007A00010B54100C40F0A0E40020121400AC905DC
:1007B000E40740187F2A02DA0020014610BD00211C
:1007C000962A03DC96239A1AD04002E0963A00F06B
:1007D00079F8002CF2D0002240428A41114610BD27
:1007E00070B5CD0F4A0009030123090B1B051943FE
:1007F0000B4BED070024520D9A4201DA002070BD28
:10080000074B34339A4203DC9A1A00F06BF802E08B
:100810000449511888402C43F1D0404270BD00007B
:10082000FF030000CDFBFFFF4A0009030123090B72
:100830001B051943094B10B5520D9A4201DA0020ED
:1008400010BD064B34339A4203DC9A1A00F04AF882
:1008500010BD03495118884010BD0000FF0300007F
:10086000CDFBFFFFC20FD207400040080BD0C10DE7
:100870000723DB01C91840020905400A1143C208D9
:10088000400711437047002001467047CB0FDB073C
:10089000490010B5490802460A4307D00A0D07244B
:1008A0000903E401090B121B002A01DC002010BD22
:1008B000C900440F0C43C100E018D205801800F0B5
:1008C00035F810BD10B5202A04DB0146203A9140CE
:1008D000002010BD914020239C1A0346E340194399
:1008E000904010BD10B5202A04DB0846203AD040C5
:1008F000002110BD0B46D340D0402024A21A9140C5
:100900000843194610BD10B5202A06DBCB17084650
:10091000203A1041C1170B4306E00B461341D0406B
:100920002024A21A91400843194610BD002904DA78
:10093000401C490001D140084000704770B40024B9
:10094000050C05D11024000402D1002921D0112466
:10095000050E01D100020834050F01D10001241D4C
:10096000850F01D18000A41C002801DB4000641C1D
:10097000002908D020252E1B0D46F540A14000D0AF
:1009800001212943084301061B1B000ADB1D02D578
:10099000002070BC7047DB05181880180029F8DAB1
:1009A000401C4900F5D170BC40084000704710B5AC
:1009B000002B08DA0024401C614192185B411A4365
:1009C00001D14008400010BDF0B51FB482B005460B
:1009D0000C0003D0084604F06FFC02E004F06CFC4D
:1009E00020300246009021462846FFF76BFF049B0B
:1009F000059A04460F4618431143084314D018467D
:100A000010431BD0009840210A1A18460599FFF799
:100A100069FF05460E46009A05990498FFF752FFB4
:100A2000084305D0012004E02046394607B0F0BD58
:100A30000020C11705430E432C43374300990E98FD
:100A40006305401A7905E40A00220C43FD0A0A30C6
:100A500002D500200146E9E70105101969410C9C07
:100A60000D9D00196941FFF7A2FFDFE710B50029CE
:100A700004DB0124E40740428C412146002B04DBC7
:100A80001C460123DB075242A341994200D1904208
:100A900010BD0000064C0125064E05E0E36807CCBA
:100AA0002B430C3C98471034B442F7D3FFF70CFBB0
:100AB000A0840008C0840008FEB500231A461B1A53
:100AC0008A4103DB0020014603B0F0BD4A000D035C
:100AD00001212D0B0905520D0D43D10702D100183C
:100AE0006D41521E5110FF31FF3101310027044684
:100AF0003E46384600970191024601210020090533
:100B0000FFF7F0FEC3197141F818324684468E464D
:100B10004A4161462846611A904104D36046241A2E
:100B2000954176461F46241900986D41401C00905F
:100B30003428E1DDF91930467041091BA84103D280
:100B40000022D243134601E000221346019801051A
:100B5000381C7141FFF72BFFB6E770B58C1805788C
:100B6000401C6B075B0F01D10378401C2A1106D192
:100B70000278401C03E006780E70401C491C5B1E86
:100B8000F9D12B0705D40023521E0DD40B70491C3C
:100B9000FAE70378401CCB1A921C03E01D780D7015
:100BA000491C5B1C521EF9D5A142D8D3002070BD50
:100BB0000EB5010C6A461172010A51729072002042
:100BC000D0720120009001AB042202A9302000F075
:100BD00013F86A4610790EBD1CB5020C6B461A70EC
:100BE000020A5A7098700020D8701971052269465F
:100BF000302000F043F81CBDFFB581B004461D460F
:100C00000A9E03F0FDFC6700F8B203F0C3FC03F09A
:100C100033FD002804D003F017FD012005B0F0BD1E
:100C200000240DE00298005D03F0B4FC03F024FD05
:100C3000002803D003F008FD0120EFE7641CE4B2B4
:100C400003988442EED37F1CF8B203F0A3FC03F0B8
:100C500013FD08E0012E0CD0012003F06BFC28707E
:100C6000761EF6B26D1C002EF4D103F0EDFC0020D0
:100C7000D4E7002003F05EFC2870F1E770B504466D
:100C80000D46164603F0BCFC6006000E03F082FC25
:100C900003F0F2FC002803D003F0D6FC012070BD65
:100CA00000240CE0285D03F075FC03F0E5FC00284F
:100CB00003D003F0C9FC012070BD641CE4B2B4424F
:100CC000F0D303F0C1FC002070BD70B505460C46A2
:100CD00003F096FCC42003F05DFC03F0CDFC00287B
:100CE00003D003F0B1FC012070BD284603F052FC94
:100CF00003F0C2FC204603F04DFC03F0BDFC0028CD
:100D000003D003F0A1FC012070BD03F09DFC002086
:100D100070BD000010B586B0012080030190032053
:100D200002900020039001A90C4800F067FF082002
:100D300001900524240701A9204600F05FFF02214D
:100D4000019101A9064800F059FF0421019101A970
:100D5000204600F053FF06B010BD00000008005010
:100D60000004005010B5024800F0C5FC10BD0000A2
:100D70005806002030B5446C1C252C400125A540A8
:100D8000046C6560046863608368102B04D003689A
:100D900099600068C26030BD03689A600068C160F5
:100DA00030BD0000064BC01803E00378401C0B70F8
:100DB000491C1346521E92B2002BF6D17047000018
:100DC00000000808F7B582B00F461546284605F022
:100DD000E7FD0190284605F0E3FD064600242A467B
:100DE00001990298FFF7DEFF2A4631460298FFF785
:100DF000D9FF2A4631460198FFF7F8F900280CD0B0
:100E0000641CA4B2022CEAD3304605F061FB0198C1
:100E100005F05EFB012005B0F0BD2A463846019979
:100E2000FFF7C0F9304605F053FB019805F050FB81
:100E30000020F0E7F8B506460D46174600F084FDA1
:100E4000002409E00748311909182A78002000F029
:100E50004DFD6D1C641CA4B2BC42F3D300F03CFDFC
:100E6000F8BD000000000808F7B50F4615462846F3
:100E700005F096FD064600242A4639460098FFF7FD
:100E8000D9FF2A4631460098FFF78CFF2A463146A3
:100E90003846FFF7ABF9002808D0641CA4B2022C36
:100EA000EAD3304605F014FB0120FEBD304605F0C4
:100EB0000FFB0020FEBD10B5012000F093FE0220C4
:100EC00000F090FE10BD10B5042000F08BFE08204D
:100ED00000F088FE10BD10B5102000F083FE012048
:100EE000800300F07FFE10BD72B6FEE710B500F083
:100EF00047FD10BD10B5084900234B6107494A68FA
:100F00004C1522434A604A68082422434A60C009BB
:100F1000C001036010BD00008407002000200240D3
:100F200010B50020204A9169CB05204904D54869B5
:100F3000022318434861901593699B0505D54B69B9
:100F4000012423434B616302184393695B0505D574
:100F50004B69082423434B61E301184393691B0544
:100F600005D54B69042423434B61630218439369FD
:100F70009B0405D54B69102423434B61630218433E
:100F800093699B0304D54C6920231C434C6118438F
:100F90009369DB0305D54B69402423434B61A102D0
:100FA0000843906110BD000000200240840700202B
:100FB00070B5044600F0DEFE0546184E0AE0601CDF
:100FC00008D0002C04D000F0D5FE401BA04201D96F
:100FD000032070BDB069C007F1D1B069800701D5A9
:100FE0000220B061B069C00511D4B06980050ED48B
:100FF000B06940050BD4B069000508D4B06980041D
:1010000005D4B069800302D4B069C00303D5FFF7EB
:1010100087FF012070BD002070BD0000002002404D
:10102000FEB5064601270823294A002140200097E3
:1010300003F061FF082327A239215820009703F00D
:10104000E5FE0823244A00217320009703F053FF94
:1010500005F068FA0923782219460820009703F062
:10106000ECFC0020019000241C4D30570F30FFF79E
:101070005FFB00221A4BFFF759FA0022194BFFF7CA
:10108000BDFA0022184BFFF79FF9FFF7CDFBC0B266
:10109000694608713E2802D93E20087104E00B28F9
:1010A00002D20B206946087168460179285D012249
:1010B00003F034FD641CE4B2092CD6D90B48009728
:1010C00040783E23285C0B21024603F0B6FCFEBDAF
:1010D0004F78000836330000577800083D78000844
:1010E00000804A4000003E400000224025000020D1
:1010F00038B503F0CDFD0124082314A202210020FD
:10110000009403F083FE0823124A00213C2000943F
:1011100003F0F1FE1023104A14211820009403F06C
:10112000EAFE10230D4A14213C20009403F0E3FE54
:1011300010230B4A14215820009403F0DCFE0121F7
:10114000084800F02DFA0848047038BD48692D524F
:1011500065730000477800084F790008EF780008B1
:101160000F790008A807002025000020F3B581B002
:1011700005460024029829570057814264D0354F14
:101180000120387034480057FFF7C6FA0146204660
:1011900004F08AFF302031496043401804F086FD96
:1011A000204604F03BFE0A2004F0EEFF00263E70CD
:1011B0002B4F0096385D3F2302460A2103F03DFC89
:1011C0000096385D3F23401EC2B2C0B20A2103F030
:1011D00034FC0096385D3F23401CC2B2C0B20A21E5
:1011E00003F02BFC28570F30FFF7A2FA00221D4B0B
:1011F000FFF79CF900221C4BFFF700FA00221B4B63
:10120000FFF7E2F8FFF710FBC6B23E2E01D93E26EB
:1012100002E00B2E00D20B26012711480097005D3B
:101220003E2302460B2103F008FC0D480122005D1D
:10123000314603F073FC09237822194608200097F1
:1012400003F0FBFB05F06EF9641CE4B2092C91D9A4
:10125000FEBD00002A000020F40D0020140C002028
:101260003D78000800804A4000003E4000002240D7
:10127000F8B503F00DFD0024214E0125600182190F
:101280002001103010232C21009503F034FE641C43
:10129000E4B2062CF2D310231AA2182104200095E0
:1012A00003F0B4FD10231AA218214E20009503F07C
:1012B000ADFD1A237C2219464E20009503F0BDFB9C
:1012C00003F0F6FC7D25ED00284600F0F3FA00243B
:1012D00019267601204614214843263001230E4A60
:1012E000052103F0D6FD304600F0E4FA03F0E0FCFF
:1012F000641CE4B2032CEDD3284600F0DBFAF8BD01
:10130000AF79000841636F75737469630000000072
:101310004D617374657200005F780008F8B503F0E2
:10132000B7FC00241B4E01256001821920012A30E0
:1013300010232821009503F0DEFD641CE4B2032C89
:10134000F2D303F0B5FC0024204614214843263094
:101350000123114A0A2103F09CFD642000F0AAFA3F
:1013600003F0A6FC641CE4B2032CEDD30024204659
:101370001421484326300023074A0A2103F089FD3F
:10138000642000F097FA03F093FC641CE4B2032C91
:10139000EDD3F8BD6F7A00085F780008F8B574489F
:1013A00004F0ACFE7349002688780124724D0128B0
:1013B00002D1CA78002A02D0002810D021E02423CC
:1013C0004C2214213920009603F0DEFB10236B4AD7
:1013D00014213920009403F08EFD2C7011E0C878A0
:1013E00001280ED124234C2214213920009603F029
:1013F000CBFB1023624A14213C20009403F07BFDB8
:101400002C7010215F4800F0A7FC594F00282AD00B
:10141000387A002811D0787A00280ED124234C2263
:1014200014213920009603F0AFFB1023564A1421F3
:101430003920009403F05FFD2C70387A00283CD1ED
:10144000787A002839D024234C22142139200096A0
:1014500003F09AFB1023494A14213920009403F029
:101460004AFD2C7029E0387A002811D0787A0028BB
:101470000ED124234C2214213C20009603F084FB3F
:101480001023424A14213C20009403F034FD2C70B8
:10149000387A002811D1787A00280ED024234C22E3
:1014A00014213C20009603F06FFB1023344A1421D2
:1014B0003C20009403F01FFD2C70387900280ED0DA
:1014C000787900280BD10121084605F0CFFF1023C1
:1014D0002F4A14211820009403F00DFD2C70387948
:1014E000002815D17879002812D00021012005F0BC
:1014F000BDFF1023264A14211820009603F0FBFCA0
:101500001023244A14211820009403F0F4FC2C70BA
:10151000B87900280ED0F87900280BD101210220DB
:1015200005F0A4FF10231C4A14215820009403F056
:10153000E2FC2C70B879002815D1F879002812D077
:101540000021022005F092FF1023134A1421582095
:10155000009603F0D0FC1023104A14215820009468
:1015600003F0C9FC2C70024804F0BDFDF8BD00007A
:101570009C070020040C002025000020AF78000804
:10158000EF780008000400508F780008CF7800083A
:101590006F7900084F7900082F7900080F7900084B
:1015A000F8B505460E460421384800F0D5FB002763
:1015B000012400280FD02F723100354D354E27D031
:1015C000307A002811D01023334A2E21592000945C
:1015D00003F091FC10E0FF2105200131000700F02D
:1015E000BBFB0028E8D02C72E6E710232A4A2E2104
:1015F0005920009703F07FFC28480079002805D087
:101600000123274A32213C2003F043FC2C70F8BD13
:10161000307A00280AD0707A002807D110231E4A99
:101620002E215920009403F066FC2C70307A00289B
:101630000AD1707A002807D01023174A2E2159208A
:10164000009703F058FC2C70307A31797171707208
:10165000B07AF07211490879002802D04A79002A3C
:101660000CD00028D3D148790028D0D000230C4AD0
:1016700032213C2003F00DFC2C70F8BD0123084AF8
:1016800032213C2003F005FC2C70F8BD0004005012
:1016900025000020A80700208F790008040C0020F6
:1016A0007778000870B50024014620314A79022A73
:1016B00003D00421C163012418E0026813680E25D9
:1016C000AB431360026813685B085B001360436CF4
:1016D0001C22134001252A469A40036C5A604D7122
:1016E00000220A71816B002900D08847204670BD16
:1016F000203040797047F0B4016C0B6801680C68C9
:10170000456C1C26042235401746AF401F4211D0BD
:1017100067070FD50B689B0602D40B6893430B60D9
:10172000416C31408A40016C4A60016B00293AD01B
:10173000F0BC08470227AF4002461F402032002F6E
:1017400017D0A70715D50B689B0605D40B680A248C
:10175000A3430B6001215171436C02213340994036
:10176000036C596000211171C16A00291BD0F0BCC3
:1017700008470827AF401F4215D0230713D50B6831
:101780000E24A3430B60436C012133400C469C4064
:10179000036C5C60C163517100211171416B0029C0
:1017A00001D0F0BC0847F0BC7047000070B504469B
:1017B000002C3CD01F48256814212818FEF798FCFF
:1017C000800060641C482064022120462030417162
:1017D0002A681A490A40E368A168666919432369BF
:1017E00033431943A3691943E3691943236A19432E
:1017F000114329600122A1689203914210D00E4941
:1018000080318A6A636C1C2633400F259D40AA43B1
:101810008A62636C626833409A408B6A1A438A62B8
:101820000021E163012242710171002070BD01209D
:1018300070BD0000F8FFFDBF000002400F80FFFFF9
:10184000F8B504468C460025204620300179012950
:1018500009D00126067147790021012F05D00171B9
:1018600002252846F8BD0220F8BD02274771E16332
:101870002068016849084900016061462046FFF779
:1018800079FA206B002805D0206801680E221143E8
:10189000016009E02068016804229143016020682A
:1018A00001680A2211430160206801683143016028
:1018B000D7E7000070B5044600F05CFA0546601CEE
:1018C00002D004480078241800F054FA401BA042CB
:1018D000FAD370BD00000020034841680122114383
:1018E000416000207047000000200240F8B5054626
:1018F0000E461446124F387C012807D00120387458
:101900001048FFF755FB002802D016E00220F8BD72
:1019100000217961022D07D0012D07D0002D07D0BD
:101920000120002806D008E03460FAE73480F8E7A8
:101930003470F6E70348FFF73BFB00213974F8BD2C
:101940008407002050C3000009484168C9070DD032
:10195000EFF3108172B6074AC260074AC26081F392
:1019600010884068C00701D00120704700207047F0
:1019700000200240EFCDAB89050403027047000050
:10198000F8B5344DA8690024C005334E002811DB9A
:10199000A86980050ED4A86940050BD4A869000584
:1019A00008D4A869800405D4A869800302D4A86972
:1019B000C00309D5307801282BD0B768FFF7B0FAFB
:1019C000384600F04BF83470A869800712D5022021
:1019D000A861307800280DD0307801281ED06868C2
:1019E000082188436860B068FFF7C8FF0020C04343
:1019F000B0603470307800280AD168684121C9008D
:101A00008843686068680321090488436860347407
:101A1000F8BDF7680020C043F060CFE77068401E53
:101A20007060706800280DD0F068FFF7A7FFF068BD
:101A30008030F06069680122520291436960FFF7CB
:101A400059FAD7E70020C043F0603470FFF796FFE3
:101A5000D0E700000020024084070020704700000B
:101A6000F8B5564801248470554D2878012835D0A2
:101A7000A103544800F070F9534D544F544E0028C0
:101A800041D005200821000700F066F9002850D059
:101A90000221504800F060F9002861D0052004219F
:101AA000000700F059F9002871D00524240701210E
:101AB000204600F051F900280FD0287802280CD1D8
:101AC0003220FFF7F7FE0121204600F045F90028FB
:101AD00003D00221002005F091FCF8BD00F0EEFBE0
:101AE00003F0C2FA3C4801F0C2F83C4900200880EB
:101AF00028706420FFF7DEFE03F03EFAFF202D3051
:101B0000FFF7D8FEF8BD28780528FBD11420FFF791
:101B1000D1FE012189032B4800F01EF90028F1D1E4
:101B20002F4A317850560F2801DA401C50543C702F
:101B3000F8BD28780528FBD11420FFF7BBFE05204F
:101B40000821000700F008F90028F1D1244A317873
:101B50000F235056D84201DD401E50543C70F8BD52
:101B600028780528FBD11420FFF7A4FE022119488C
:101B700000F0F2F80028F2D13078002802D0401EA0
:101B8000307001E0092030703C70F8BDFFE7287824
:101B90000528FAD11420FFF78DFE05200421000747
:101BA00000F0DAF80028F0D13078092802D2401C81
:101BB000307001E0002030703C70E6E71400002037
:101BC00022000020000800502900002025000020ED
:101BD0002600002000040050A00600202000002065
:101BE000F40D002010B504494A69024202D0486150
:101BF000FFF736FF10BD000000040140F0B50022E1
:101C000096E0012797403B40002B6ED00C79A4074B
:101C1000A40F012C01D0022C10D18568540003269A
:101C2000A640B543CE68A6402E4386604468BC43B8
:101C30000D79ED06ED0F9540254345600C79E443A1
:101C4000A40708D0C56854000326A640B5438E6893
:101C5000A6402E43C6600C79A407A40F022C0CD119
:101C6000D408A40027183D6A5407E40E0F26A640A6
:101C7000B5430E69A6402E433E6205685400032614
:101C8000A640B5430E79B607B60FA6402E430660B0
:101C90004C68A403A40F4AD0284C666B01252E4340
:101CA00066639508264CAD002F19BD689407240F74
:101CB0000F26A640B54305263607B04201D10026BF
:101CC00015E0204EB04201D1012610E01E4EB04278
:101CD00001D102260BE01D4EB04201D1032606E0E1
:101CE0001B4EB04202D1052601E020E00626A640A8
:101CF0002E43BE60174DAC689C434E68F60200D57B
:101D00001C43AC60EC689C434E68B60200D51C4393
:101D1000EC606C689C434E68B60300D51C436C6055
:101D20002C689C434E68F60300D51C432C60521C63
:101D30000B681C46D44000D063E7F0BD00100240A1
:101D4000000001400004005000080050000C00504A
:101D5000001C0050000401400069084201D001202D
:101D6000704700207047002A01D08161704781626E
:101D700070470000014880687047000000000020A4
:101D800070B5024640325378202B01D0022070BD3E
:101D90001378012B19D00124147024235370036885
:101DA0001D68A5431D6003681D682603B5431D60BB
:101DB00003681D680D431D600068016821430160D0
:101DC000202050700020107070BD022070BD70B5D2
:101DD000024640325378202B01D0022070BD137888
:101DE000012B18D0012515702423537003681C683B
:101DF000AC431C6003681C680F263602B44309021A
:101E00002143196000680168294301602020507057
:101E10000020107070BD022070BD000004494A6BA4
:101E200001231A434A6303494A6802434A607047E0
:101E300000100240000001407047704770B5026812
:101E400093691168DB43DC0508D4CC43240605D430
:101E5000446C01252C4344642C02D4615A0509D4F6
:101E6000CA43120606D4426C082422434264E201AB
:101E70000468E2619A0509D4C943090606D4416C95
:101E800002221143416411020268D161416C0B22AC
:101E9000114201D001F040FC70BD026891691268E6
:101EA000436B002B00D018477047704770B504464D
:101EB000002C06D02546403568780026002802D040
:101EC00005E0012070BD2E70204600F09BF9242013
:101ED0006870206801684908490001600F21606846
:101EE0000906884321680861206882680121C903C6
:101EF0008A438260E068012809D02122A06892020A
:101F0000104322689060E068022805D008E0A068CD
:101F1000226808439060F6E701202268C002506002
:101F2000206842680F4B1A4342602068C2688A43A7
:101F3000C260616920690843A169090208432168F8
:101F4000C860216AE0690843216808602068016868
:101F50000122114301606664202068702663AE7020
:101F6000002070BD0080000270477047704700007D
:101F7000FFB581B0044611462546403568782028D3
:101F800002D0022005B0F0BD20688069C043000483
:101F900001D40220F6E72878012816D00120287005
:101FA000212068701020A870002666646162638535
:101FB0003248E06232486063608D01235B06FF288F
:101FC00005D9FF2020855F1004E00220DAE7608D4C
:101FD00020851F46208D002840D0A06B00281AD0F5
:101FE000284AC262A26B28485063A06B0663A06BAC
:101FF00086632268238D2832A06BFFF721FC00281E
:1020000013D020206870AE70606C102108436064AB
:102010002E700120B6E720206870AE70606C8021C1
:10202000084360642E700120ACE718480090208DB2
:102030003B46C2B22046029902F086F9608D218D9E
:10204000401A60852E701021204601F0C5FA2068E4
:10205000016801229203114301600DE00C486063A6
:102060000A48009000222046029902F06DF92E7075
:102070000121204601F0B0FA002083E70000FFFFB5
:10208000913C0008253500080D350008002000802F
:10209000B93D000870477047FFB583B00446254638
:1020A00040356878202802D0022007B0F0BD0C9897
:1020B000002815D00D98002812D02878012814D0B7
:1020C00001202870FFF756FE074601221923D1038D
:1020D0002046009702F061F9002808D00120E4E7CB
:1020E0000120400260640120DFE70220DDE72120BB
:1020F00068704020A870002666640C9860620D9895
:10210000608566630E980090019704A90EC9204669
:1021100001F0B2FF002802D02E700120C5E7608DCB
:10212000FF2809D9FF22228501231B06009620469D
:10213000049902F009F90AE0608D20850096208D4F
:102140000123C2B25B062046049902F0FDF83A462C
:1021500020460E9902F07EF9002801D00120A4E764
:10216000606A216800788862606A401C6062608DE5
:10217000401E6085208D401E80B22085618D002923
:1021800024D0002822D100970022802120460E9BD7
:1021900002F003F9002801D0012086E7608DFF28B6
:1021A00009D9FF22228501231B06009620460499A7
:1021B00002F0CAF80AE0608D20850096208D012388
:1021C000C2B25B062046049902F0BEF8608D00287A
:1021D000BDD13A4620460E9902F010F9002801D0F0
:1021E000012062E720682021C16120684268044B19
:1021F0001A4042606970AE702E70002055E70000F2
:1022000000E800FE70B586B00646142101A8FDF76F
:10221000E2FF20493068884239D11F4CE16A022030
:102220000143E162E16A01400091C0200190122067
:10223000029000250395032004900120059001A938
:102240001648FFF7DBFCA06B012149050843A0639A
:10225000144C13482060062060601020A060E560E8
:10226000802020616561A561E56125622046FFF758
:102270009DFA002801D0FEF737FEB463A662002263
:102280000121172000F074F8172000F065F806B05F
:1022900070BD0000005400400010024000040050D7
:1022A0001C000240580600207047704702488168B1
:1022B00002788918816070470000002010B5002462
:1022C00007480168402211430160002000F00AF82D
:1022D000002801D0012401E000F028F8204610BDBC
:1022E0000020024070B504460E4D7D202978C000C4
:1022F000FDF7FEFE01460C480068FDF7F9FE00F010
:102300004DFE002801D0012070BD042C07D2002210
:102310002146501E00F02CF86C60002070BD01209A
:1023200070BD0000000000200C00002010B509481E
:10233000416B012211434163816B020411438163AC
:1023400000220221032000F013F8032000F004F81B
:1023500010BD000000100240002805DBC106C90EB8
:1023600001208840014908607047000000E100E05A
:1023700010B502F0F3FF10BD02494A6802434A60FB
:1023800070470000007000400548016802221143B8
:1023900001600448016904221143016130BF7047A4
:1023A0000070004000ED00E0F0B5154E3268741585
:1023B0002240144B1B6ADB07DB0F002A04D0002BE2
:1023C00002D03568A54335603568AD08AD000543DA
:1023D00035600D4F3D69042005433D6101290DD055
:1023E00040BF20BF20BF396981433961002A04D032
:1023F000002B02D0306820433060F0BD30BFF2E7E0
:10240000007000400000014000ED00E0F8B5044617
:10241000002620785B4D80067ED55A484038806B78
:10242000C00006D457484038816B020411438163D1
:10243000012655480168C90512D401688215114367
:102440000160FFF797FC074606E0FFF793FCC01B0F
:10245000642801D90320F8BD4B480068C005F4D5B5
:102460004848403800680321090508406268114067
:1024700081420AD09003800F032806D1414840389A
:102480000068800301D50120F8BD286903210904F3
:102490000840002821D00A4082421ED020788006C1
:1024A0001BD5286988432A690121C9040A432A6186
:1024B0002A698A432A612861C0050ED5FFF75AFCB4
:1024C000074607E0FFF756FCC11B3048814201D99F
:1024D0000320F8BD28698005F4D52078800614D53E
:1024E00060688103890F032908D1264B403B196896
:1024F0000322120591431040014319602869032209
:1025000061681204114008432861012E07D11D485B
:102510004038816B020400E001E091438163207840
:10252000C00705D0E868A168800880000843E8601B
:102530002078800705D5E8680C218843E1680843C6
:10254000E8602078400706D5E868032189028843BF
:1025500021690843E8602078000706D5E868032170
:102560000903884361690843E8602078000606D5BE
:10257000E868032189048843A1690843E8600020D2
:10258000F8BD0000401002400070004088130000B9
:10259000F8B504460E46002C0FD068480068C00706
:1025A000C00FB04218D2654F386840084000304331
:1025B0003860FFF7DFFB054609E00120F8BDFFF7B3
:1025C000D9FB411B5E48814201D90320F8BD386820
:1025D000C007C00FB042F2D120785A4F800705D50E
:1025E000F868F0218843A1680843F8602078C007A4
:1025F00060D06068022808D003280BD001280ED0D4
:102600003968890510D40120F8BD396889030BD4D5
:102610000120F8BD3968890106D40120F8BD396868
:10262000490701D40120F8BDF968890889000143F0
:10263000F960FFF79FFB0546606802280CD003286D
:1026400018D0012824D031E0FFF794FB411B3C480F
:10265000814201D90320F8BDF8680007800F0228E5
:10266000F2D127E0FFF786FB411B3548814201D9B3
:102670000320F8BDF8680007800F0328F2D119E0A5
:10268000FFF778FB411B2E48814201D90320F8BD9A
:10269000F8680007800F0128F2D10BE0FFF76AFB12
:1026A000411B2748814201D90320F8BDF868000783
:1026B000800FF3D121480168C907C90FB14217D96A
:1026C000014608684008400030430860FFF752FBAD
:1026D000054607E0FFF74EFB411B1948814201D92F
:1026E0000320F8BD15480068C007C00FB042F1D103
:1026F0002078400706D5F868072109028843E16879
:102700000843F8602078000707D5F8680721C90258
:1027100088432169C9000843F86000F01BF8F96894
:10272000094A0906090F515CC84008490860084871
:102730000068FFF7D7FD0028D3D1F8BD0020024084
:102740008813000000100240247800080C000020CC
:102750000400002070B5214EF2680C21104608409C
:102760001F498B0004280CD04D00082810D00C28DD
:1027700010D070680004410F491C0120C00388403C
:1027800070BD3068C00601D5084670BD184670BDE2
:10279000284670BD9002134C000F205C1202940F6B
:1027A000641CF268D20307D5294602F09CFD22463C
:1027B0000023FDF7C7FC70BD3268D20606D502F0D3
:1027C00092FD22460023FDF7BDFC70BD194602F0C4
:1027D0008AFD22460023FDF7B5FC70BD00100240C3
:1027E00000093D0034780008FEB50446002C0FD0E7
:1027F000FE4DEE680C200640EF6801200004074003
:102800002078C00753D0082E08D00C2E02D00DE03F
:102810000120FEBD01200004874207D12868800303
:1028200045D56068002842D10120FEBD01206168C5
:102830000004814203D129680143296015E0052382
:1028400001221B049204994206D129681143296090
:1028500029680143296008E02968814329602968C3
:1028600001400091286890432860606800280FD0DC
:10287000FFF780FA019007E0FFF77CFA0199401A10
:10288000642801D90320FEBD28688003F4D50EE03A
:10289000FFF770FA019007E0FFF76CFA0199401A10
:1028A000642801D90320FEBD28688003F4D4207871
:1028B00080075AD5E0680921042E0DD00C2E01D1D5
:1028C000002F09D000283ED02A688A4302432A609C
:1028D000FFF750FA07462AE02A68520701D5002878
:1028E0001CD06A681F231B029A4323691B021A43E8
:1028F0006A602A688A4302432A60FFF72BFFE9686F
:1029000009060A0FBA49895CC840BA490860BA4842
:102910000068FFF7E7FC0028C5D126E00120FEBDD6
:10292000FFF728FAC01B022801D90320FEBD286842
:102930004007F5D568681F2109028843216909020B
:102940000843686011E02868400840002860FFF7ED
:1029500011FA074606E0FFF70DFAC01B022801D95D
:102960000320FEBD28684007F5D42078C00664D552
:10297000002E0BD0A06900284CD02868FF2101311F
:1029800008432860FFF7F6F9074631E0286880051C
:1029900002D5A069002822D068680721490388432E
:1029A000216A084368606868217F0002000A0906FE
:1029B00008436860206A410B491C0120C00388401D
:1029C000E96809060A0F8A49895CC8408949086094
:1029D00089480068FFF786FC0028C2D12DE001205D
:1029E000FEBDFFF7C7F9C01B022801D90320FEBDB9
:1029F00028688005F5D56868072149038843216A5E
:102A0000084368606868217F0002000A09060843DD
:102A1000686012E02968FF20013081432960FFF7D8
:102A2000A9F9074606E0FFF7A5F9C01B022801D95E
:102A30000320FEBD28688005F5D420786F4F00077D
:102A400029D56069002813D038690121084338610D
:102A5000FFF790F9019007E0FFF78CF90199401A10
:102A6000022801D90320FEBD38698007F4D512E0A1
:102A70003869400840003861FFF77CF9019007E0B1
:102A8000FFF778F90199401A022801D90320FEBD09
:102A900038698007F4D42078400775D5002000906D
:102AA000A86BC00006D4A86B012109070843A863DE
:102AB0000120009052480168C90514D401460868F5
:102AC0008A1510430860FFF755F9019007E0FFF7FA
:102AD00051F90199401A642801D90320FEBD4848E4
:102AE0000068C005F3D5FF20A2680130824203D1FF
:102AF0003969014339611BE001218902002A0AD0AA
:102B000005231B029A420DD13A690A433A61396999
:102B1000014339610CE03A6982433A61386988437C
:102B2000386105E03A6982433A613869884338611F
:102B3000A068002810D0FFF71DF9019008E0FFF70A
:102B400019F90199411A2F48814201D90320FEBD8C
:102B500038698005F3D50FE0FFF70CF9019008E024
:102B6000FFF708F90199411A2648814201D903204B
:102B7000FEBD38698005F3D40098012804D1A86B04
:102B8000012109078843A863606A00286DD00C2ED4
:102B900052D001273F06022806D02868B843286093
:102BA000FFF7E8F8044643E02868B8432860FFF7D9
:102BB000E1F8064606E0FFF7DDF8801B022801D9A0
:102BC0000320FEBD28688001F5D4E16AA06AEA68A6
:102BD0000843216BFD231B049A4311430843E8601B
:102BE000286838432860FFF7C5F80DE00010024060
:102BF000247800080C00002004000020401002404F
:102C00000070004088130000044606E0FFF7B2F8A9
:102C1000001B022801D90320FEBD28688001F5D5DC
:102C200023E0FFF7A7F8001B022801D90320FEBD0F
:102C300028688001F5D418E0012814D0E868012143
:102C40000904A26A014091420BD10F218904E26A72
:102C50000140914205D1032189050840216B88423A
:102C600003D00120FEBD0120FEBD0020FEBDF8B551
:102C70000446254620352878012817D001272F70D3
:102C8000022068702168CA20486221685320486287
:102C900020688168BA0291438160206881681201CE
:102CA00091438160FFF766F8064611E00220F8BD07
:102CB000FFF760F8811B7D20C000814208D92168A0
:102CC000FF20486203206870002028700320F8BDB0
:102CD0002068C0684007EBD52168FF2048626F700C
:102CE00000202870F8BD0000F7B582B004463B48CC
:102CF0007D2109020068FDF7FBF97D21C900064628
:102D00004E430196204620300178012957D00121F9
:102D10000170022141702268CA2151622268532148
:102D2000516221688A6800235205FF25002A08DACB
:102D3000019A521E0192019A002A42D0CA68520793
:102D4000F6D48A680127BF02BA438A602168CA683C
:102D500080273A40224FD219CA6001962168019A11
:102D6000521E0192019A002A31D0CA685207F6D544
:102D70008A68D208D2008A6021688A68049E324339
:102D80008A6022680399516116490A68012636054E
:102D900032430A608A6832438A6021688A68B611C1
:102DA00032438A6021688A68361132438A6021681A
:102DB0004D62012141700370002005B0F0BD02207A
:102DC000FBE74D620321417003700320F5E74D627C
:102DD0000321417003700320EFE700000C00002086
:102DE0007FFBFFFF0004014070B50646FFF766FA5F
:102DF00002F03AF910211448FEF7AEFF0025134CFB
:102E000000281DD0258020883C2814D30F49042099
:102E1000891C0870FFF752FA02F026F93046FFF7D6
:102E200026FF25806420FEF745FD02F0A5F8FF206F
:102E30002D30FEF73FFD01210020FFF7B5FA70BDF0
:102E40002088401C2080DEE7000400502000002085
:102E500010B5044601200B490005486121688868C7
:102E600040040BD5C868400508D5C86880221040CA
:102E7000054A8018C8602046FFF7B6FF01202034BD
:102E8000607010BD000401407FFBFFFF70B5044679
:102E9000002C05D0254620356878002802D006E0B1
:102EA000012070BD00202870204600F045F8022067
:102EB00068702068C168C943C90635D5CA21416216
:102EC000216853204862204602F05DF8002819D19D
:102ED00020688168174A11408160206881686268B3
:102EE000A369114322691A43114381602168E06894
:102EF000086120680169228912041143016120469A
:102F000002F064F800280BD12168CA6C9208920084
:102F1000CA64E26961690A432168CB6C1A43CA64D6
:102F20002268FF21516200E000200028B9D1012170
:102F3000697070BDBFFF8FFF10B5006808498842F7
:102F40000DD1084801690122920411430161002258
:102F500001210220FFF70CFA0220FFF7FDF910BD56
:102F6000002800404010024070B5054629680A4814
:102F7000C860FEF7FFFE04467D26F60006E0FEF779
:102F8000F9FE001BB04201D9032070BD2868C0685B
:102F90008006F4D5002070BD5F7F010010B509499F
:102FA000401E884201D9012010BD074C60610321F9
:102FB000081F02F0D3F90020A06107202061002043
:102FC00010BD0000FFFFFF0000E000E0F0B502468A
:102FD0002032137E012B1ED0012616760223537653
:102FE00003685D689C687027BD430F682F435F606E
:102FF0000068B307984205D0084B984202D0084BAE
:10300000984204D180239C434968214381605676CD
:1030100000201076F0BD0220F0BD00000008014045
:103020000014014070B50546002D05D02C46203413
:10303000607E002802D006E0012070BD00202076CE
:10304000284600F00FF802206076291D286802F05B
:1030500069F80120A077A076E07620776077607627
:10306000002070BD10B50068144A154990420CD17B
:10307000886B102210438863002202211120FFF781
:1030800077F91120FFF768F910BD0E4A90420CD174
:10309000486B042210434863002203211420FFF7E9
:1030A00067F91420FFF758F910BD074A9042FBD189
:1030B000486B20221043486310BD00000010004000
:1030C0000010024000080140001401400146203178
:1030D0004A7E012A01D00120704702224A76006808
:1030E00051070122884205D00949884202D0094986
:1030F000884208D181684907490F062906D001682E
:103100001143016002E00168114301600020704733
:103110000008014000140140014620314A7E012A86
:1031200001D00120704702224A760168CB68012253
:103130001343CB6000689107884205D00949884253
:1031400002D00949884208D181684907490F0629F8
:1031500006D001681143016002E00168114301607B
:1031600000207047000801400014014001680A6A0D
:10317000054B1A4203D10A68520852000A60012125
:103180002030417600207047111100000168CA68A4
:1031900052085200CA6001680A6A064B1A4203D1FB
:1031A0000A68520852000A6001212030417600204E
:1031B0007047000011110000704770B50446206888
:1031C00001690025C9438907002916DBC168C94385
:1031D000890712D4E91E01610120207620688069E8
:1031E000800703D02046FFF7E7FF05E0204600F008
:1031F0007BF8204600F079F8257620680169C943FC
:10320000490718D4C168C943490714D40421C943E4
:10321000016102202076206880698005800F03D03C
:103220002046FFF7C9FF05E0204600F05DF8204684
:1032300000F05BF8257620680169C943090717D4B7
:10324000C168C943090713D40821C9430161042097
:1032500020762068C069800703D02046FFF7ACFFC6
:1032600005E0204600F040F8204600F03EF82576C4
:1032700020680169C943C90618D4C168C943C90691
:1032800014D41021C9430161082020762068C06948
:103290008005800F03D02046FFF78EFF05E0204613
:1032A00000F022F8204600F020F825762068016919
:1032B000C943C90708D1C168C943C90704D1891ED8
:1032C0000161204600F012F820680169C9434906EF
:1032D00009D4C168C943490605D44021C9430161E5
:1032E000204600F0F0F870BD70477047F8B504460E
:1032F0005348544F844227D13978022902D00529F6
:1033000020D021E002215048FEF726FD00280FD0F2
:103310000021012004F0AAF8052004210007FEF78F
:103320001BFD002809D00021022004F09FF80BE0CB
:103330000121084604F09AF8EEE70121022004F08A
:1033400095F801E003F00EFA4048844277D104F08A
:1033500063F83F48012541780024002909D001780D
:10336000002904D00470447002F074FB02E0057080
:1033700000E004703878374E05281BD13649374BAA
:103380008978002907D036490A7899560F2902DA38
:10339000491C995435703349897800290AD0304A3C
:1033A0002E4912780F238956D94203DD2B4B491E33
:1033B00099543570002812D0032810D02A49087873
:1033C000642802D2401C087003E00C70274804F007
:1033D00022F93078002802D001F06AFC34702449C8
:1033E000244E8878002802D08C700C800CE008886D
:1033F000401C80B20880FF222D32904204D30C8002
:103400003078002800D13570052001210007FEF733
:10341000A3FC194900280ED0387800280BD0088862
:103420000F2802D2401C088006E0FDF777FF042039
:10343000307001E003E00C800E4804F0EDF8F8BDB8
:10344000040700202900002000040050C4060020CA
:10345000040C00202500002018000020F40D00209E
:10346000260000201C00002010000020A8070020DB
:1034700014000020220000201200002070B5054634
:103480002C462034207E01280DD0012626760220ED
:103490006076284601F07DFE0021002805D0667682
:1034A0002176012070BD022070BD2868C2684023CB
:1034B0009A43C2602868C2681B029A43C26066765B
:1034C0002176002070BD7047FEE7000010B5074868
:1034D000006880694005400F03D00448FEF7AEFC49
:1034E00010BD0248FEF7D9FC10BD00000406002004
:1034F00010B5806A0022816B002900D08A63C16BFD
:10350000002900D08A6300F035FF10BD10B5806A35
:1035100001684A680123DB031A434A60102100F066
:10352000FBF810BD10B5846A20680168012292037F
:1035300091430160608D002809D0218D606A411897
:103540006162608DFF2807D9FF20208506E02021D9
:10355000204600F041F810BD608D20852268238D43
:103560002832A06BFEF76CF9002804D01021204609
:1035700000F0D2F810BD4021204600F02DF810BD1B
:10358000F0B500220346CE0740332824B025002E94
:1035900005D042225E782746B74300D0F2228E073C
:1035A00005D5442632435B789C4300D02A43CB0B9D
:1035B00001D0B8231A43102901D190231A4320299E
:1035C00001D120231A43402900D10A430068016831
:1035D00091430160F0BD0000F0B500221B4C436B2D
:1035E000F225F4261A4FA34215D01A4CA34212D04A
:1035F000BB4210D0CB0B00D0B822CB0700D02A435F
:103600008B0700D53243102901D190231A4320297A
:1036100017D10A4315E0CC0B00D0B822CC0700D05C
:103620002A438C0700D53243102901D1902422432C
:10363000202901D160242243BB4202D0402900D17D
:103640000A430068016811430160F0BD913C000825
:10365000153F0008ED40000801688A69D2439207CF
:1036600001D400228A6200688169C943C90703D076
:1036700081690122114381617047F8B504462546EE
:103680004035687828218143206804D00821C16131
:1036900000202870F8BD8169C903CF0F8169FE231E
:1036A0000E0C1E4081688A05920DC16819408C4637
:1036B000E16802290CD00121C9032046FFF760FF11
:1036C00000202870324639462046FEF7B6FBF8BD8A
:1036D0000621D3090E400B409E420FD1A16C491C1C
:1036E000A164A16C0229F2D10021A1640823C36165
:1036F000297039462046FEF7A0FBF8BD6646012139
:10370000C9032046FFF73CFF0020287032463946A7
:103710002046FEF792FBF8BDF8B504462546403535
:1037200068780026AE70414AE2626685626C0A43A0
:103730006264282835D0292833D02A2831D03C4942
:103740002046FFF71DFF2046FFF786FF68786028B8
:1037500012D02021697020688269D24392060BD46E
:103760008269D243D20605D41022C261606C042261
:10377000104360642068C1616663206BA16B2D4FAC
:10378000002903D0112815D0212813D0E16B00297E
:1037900003D012282CD022282AD0204600F0EAFD9F
:1037A000F8BD03212046FFF7EBFE28206870224871
:1037B0006063E2E720680168490404D501680122DA
:1037C000920391430160A06BFDF792FF01280BD09B
:1037D000A06B87632E70A06BFDF764FF0028DFD01D
:1037E000A06B816B8847F8BD204600F0C3FDF8BD93
:1037F00020680168090404D501680122D2039143BD
:103800000160E06BFDF774FF01280BD0E06B87636C
:103810002E70E06BFDF746FF0028E8D0E06B816B6F
:103820008847F8BD204600F0A5FDF8BD0000FFFF69
:1038300003800000F13400080D42000870B5044612
:103840001548E06200262663202025464035687032
:10385000AE706663C843400712D42068406A616A4C
:103860000870606A401C6062208D002808D0401EED
:103870002085608D401E6085606C04210843606473
:1038800006492046FFF77CFE21681020C8612E7093
:103890002046FEF769FB70BD0000FFFF03800000BB
:1038A000FEB50546019128682026C6612C464034A5
:1038B0006078212803D06078222807D00CE001210D
:1038C0002846FFF75DFE1120286305E00221284607
:1038D000FFF756FE1220286328684168284A1140E5
:1038E000416000276F632748E8620198C043C10622
:1038F00006D42A681021D161696C042211436964DD
:103900006178602905D1400703D42868406AC0B2B5
:1039100000902846FFF7A0FE686C6178602901D00E
:10392000002804D0696C2846FFF7F6FEFEBD6078DB
:1039300021280DD060782228F8D166702F63A078F6
:10394000402816D0A77027702846FEF70EFBFEBD54
:1039500066702F63A078402805D0A770277028468E
:10396000FEF704FBFEBDA77027702846FEF793FB09
:10397000FEBDA77027702846FEF78CFBFEBD000039
:1039800000E800FE0000FFFF70B504460026254653
:103990004035AE706978202021290CD06870122043
:1039A0002063666302212046FFF7EAFD2E70204661
:1039B000FEF7DBFA70BD6870112020636663012199
:1039C0002046FFF7DDFD2E702046FEF7CFFA70BDD2
:1039D000F8B504460E4622681768254640356878D3
:1039E0002021D161212806D0292804D0222809D0FD
:1039F0002A2807D00DE045492046FFF7C1FD2120C8
:103A0000206306E041492046491CFFF7B9FD22200A
:103A10002063206841680122D2031143416020687D
:103A200041683B4A114041602046FFF715FEF843CC
:103A300041040CD420680168012292039143016083
:103A4000A06B002811D00068406860850DE000047C
:103A50000BD4206802680121C9038A430260E06B2D
:103A6000002802D0006840686085F04340070421C8
:103A700000280FDB8E432068406A626A1070606A1B
:103A8000401C6062208D002804D0401E2085608D7F
:103A9000401E6085608D002802D0606C0843606421
:103AA0000027AF706763606C00280BD0616C204604
:103AB000FFF732FE6878282803D131462046FFF709
:103AC000BDFEF8BDE06A134EB0420BD0204600F0B8
:103AD00023F8E6622020687027632F702046FEF7E7
:103AE00043FAF8BD6878222807D020206870276341
:103AF0002F702046FEF7D9FBF8BD202068702763A1
:103B00002F702046FEF7D0FBF8BD000001800000BA
:103B100000E800FE0000FFFF70B505462868016858
:103B200000262C464034A670C9434A0405D40168D7
:103B3000012292039143016006E0090404D4016864
:103B40000122D203914301606178282029290ED0F7
:103B500061782A290AD16070222028630221284630
:103B6000FFF70EFD26702846FEF79EFB70BD6070C5
:103B70002120286301212846FFF702FD26702846F0
:103B8000FEF793FB70BD0000F7B582B00446174600
:103B90000026206881690025CA062146403101912E
:103BA000002A42DA1021C16131E00398401C2ED076
:103BB000FEF7E0F8C11B0398814202D80398002861
:103BC00025D120684168012292031140019A927820
:103BD0008369DB431B0415D401239B03994211D055
:103BE000202A0FD0416819434160FEF7C3F8074609
:103BF00008E0FEF7BFF8C01B192803D920200543B1
:103C0000012604E020688069C0438006F1D4206862
:103C100080698006C00F3043C7D0002E02D12168D2
:103C20002020C86104200543012621688869C20557
:103C300004D5012215431202CA610126410505D5AA
:103C400008210D432268C901D1610126800505D5EF
:103C50000220054321680002C8610126002E12D00F
:103C60002046FFF7F9FC20684168084A114041608E
:103C7000606C2843606401992020487001990020FD
:103C8000887001990870304605B0F0BD00E800FE6C
:103C9000F8B50446254640352878012817D001207C
:103CA0002870CB43DE06D043002E12DBC20610D4B0
:103CB00021681020C861606C0421084360642021E1
:103CC0002046FFF789FC2046FFF7C6FC6CE0022087
:103CD000F8BD374A374E1F0644D4470642D4206801
:103CE0000168402399430160608D00282DD0206831
:103CF00040688105890D608DFF2803D9FF2020854C
:103D00009B0408E0608D2085E06A904201D0E36A60
:103D100001E001235B0600200090208DC2B2204606
:103D200000F012FB608D218D401A60856878222892
:103D300004D0206801683143016035E020680168E3
:103D40000122D203114301602EE020684068800107
:103D500003D42046FFF718FE26E040212046FFF757
:103D6000DBFC21E05F0618D4470616D4608D0028DE
:103D700004D040212046FFF7CFFC15E020684168C1
:103D8000890111D4E16A914203D141683143416014
:103D90000AE02046FFF7F8FD06E09A0604D4800604
:103DA00002D42046FFF77CFD00202870F8BD0000FB
:103DB0000000FFFF00400000F8B504460E4627460D
:103DC00040373878012813D001203870F043C306FB
:103DD0000421D543002B0DDBEA060BD4226810200A
:103DE000D061606C084360642046FFF735FC72E0E8
:103DF0000220F8BD420710D46A070ED48E43206813
:103E0000406A616A0870606A401C6062208D401ED2
:103E10002085608D401E60855DE081070FD4A90775
:103E20000DD4606A216800788862606A401C606214
:103E3000208D401E2085608D401E60854BE0344AF9
:103E400001063DD469063BD4608D002802D0208D48
:103E5000002807D02068406880012CD42046FFF756
:103E600093FD38E0206840688105890D608DFF284A
:103E700009D9FF2222850020012300901B0620463D
:103E800000F062FA27E0608D2085E06A904208D059
:103E900000200090E36A208DC2B2204600F054FA60
:103EA00019E000200090208D0123C2B25B0620465D
:103EB00000F04AFA0FE040212046FFF72DFC0AE00F
:103EC000400608D4680606D4608D00280FD0402133
:103ED0002046FFF721FCF043800605D4A80603D452
:103EE00031462046FFF7DCFC00203870F8BD206822
:103EF00041688901EFD4E16A914205D1416801220C
:103F0000920311434160E6E72046FFF73DFDE2E7FB
:103F10000000FFFFF8B50446554B2546403528788C
:103F2000012818D001202870C843C7060026D243B4
:103F3000002F12DBD70610D421681020C861606CF6
:103F400004210843606420212046FFF745FB2046FA
:103F5000FFF782FB89E00220F8BD870708D49707A6
:103F600006D4206D216888620020C04320657CE073
:103F700007063CD457063AD410212046FFF72CFB05
:103F8000608D00282ED0608DFF280AD9FF2222855F
:103F90000096E06C012381B21B06204600F0D4F9A4
:103FA0000BE0608D20850096208DC2B2E06C01236D
:103FB00081B25B06204600F0C7F9608D218D401A62
:103FC00060856878222806D0206801680122920363
:103FD0001143016049E0206801680122D2031143C6
:103FE000016042E040212046FFF796FB3DE0470696
:103FF00034D4570632D46878222800D11D4B608D06
:10400000FF280AD9FF2222850093E06C012381B2A8
:104010001B06204600F098F90BE0608D2085009388
:10402000208DC2B2E06C012381B25B06204600F015
:104030008BF9608D218D401A60856878222806D022
:104040002068016801229203114301600DE020689D
:1040500001680122D2031143016006E0800604D406
:10406000900602D42046FFF71BFC2E700020F8BDFE
:104070000020008000240080F8B5079F0446164603
:104080001D4619480090C302EAB2204600F05CF9D0
:104090003A462046069900F0DDF9002801D00120BB
:1040A000F8BD2846F5B201280BD02168300A886295
:1040B0003A462046069900F0CDF9002804D00120A8
:1040C000F8BD2068856201E02068856200970022C3
:1040D00080212046069B00F060F9002801D00120D5
:1040E000F8BD0020F8BD000000200080F7B582B0C8
:1040F0000446E76A002000902646403630780128C2
:1041000023D0012030700398D543C043019080062E
:10411000002805DBA80603D420460399FFF758FCC6
:104120000198C00665D4E80663D46804102100280D
:1041300001DA28045AD4E06B00280BD02A0409D4F1
:1041400000684068002803D004E0022005B0F0BDFC
:1041500001200090A06B002807D06A0405D40068F5
:104160004068002801D1012000900098012814D057
:104170002068C161606C0421084360647078002F7E
:1041800002D089058F423DD1212825D0292823D06E
:10419000222824D02A2822D023E07078282808D189
:1041A00001204006874204D120460399FFF746FBD1
:1041B00028E0707829280CD101200004C74208D0DB
:1041C0002068C1612046FFF747FA2046FFF7A4FCAC
:1041D00018E02068C16115E02120206301E0222061
:1041E0002063616C2046FFF797FA0BE02068C161FD
:1041F00008E00198000705D4280703D42046039956
:10420000FFF73BFA00203070A0E70000FEB504463F
:10421000E56A0091274640373878012828D00120E8
:1042200038700098D643C04301908006002805DB13
:10423000B00603D420460099FFF7CAFB0198404915
:10424000404AC00633D4F00631D4638D1020002BD1
:1042500010D02168C861606C042108436064002D9F
:1042600001D0954268D1616C2046FFF755FA63E0B2
:104270000220FEBD7A78282A08D1012252069542F2
:1042800004D120460099FFF7D9FA55E07A78292A17
:104290000AD18D4208D02168C8612046FFF7DCF9B9
:1042A0002046FFF739FC47E02168C86144E00198E7
:1042B00040071AD4700718D4608D00280CD02068ED
:1042C000406A626A1070606A401C6062208D401E05
:1042D0002085608D401E6085608D00282CD18D4228
:1042E0002AD02046FFF718FC26E00198000706D4E4
:1042F000300704D420460099FFF7BFF91CE001986D
:10430000800719D4B00717D4608D00280DD0606ADB
:10431000216800788862606A401C6062608D401E7F
:104320006085208D401E208506E0954201D0002D3D
:1043300002D12046FFF7F0FB00203870FEBD0000E0
:104340000000FFFF0000000110B5029C8905890DE7
:104350001204114319432143490049080068426887
:10436000630D034C23439A430A43426010BD00008F
:10437000FF63FF0310B5014640314B780022602BEC
:1043800004D002630A70FDF790FD10BD20234B702E
:1043900002630A70FDF750FD10BDF8B504460E46E5
:1043A00017461D461EE0681C1CD0FDF7E3FC06996D
:1043B000401AA84201D8002D14D1206881693046E6
:1043C00088430DD00020B8420CD1616C20200143FD
:1043D0006164403460700020A07020700120F8BD3E
:1043E0000120F0E7206881693046884304D000202E
:1043F000B842D8D00020F8BD0120F9E770B50446D6
:104400000D4616461FE0324629462046FFF7BCFB04
:10441000002801D0012070BDFDF7ACFC801BA84234
:1044200001D8002D0FD120688069C04380060AD5CD
:10443000616C202001436164403460700020A070F2
:104440002070012070BD20688069C0438006DAD4E6
:10445000002070BD70B504460D46164621E0324678
:1044600029462046FFF790FB002801D0012070BDAF
:10447000681C16D0FDF77EFC801BA84201D8002DD9
:104480000FD120688069C04380070AD5616C202065
:1044900001436164403460700020A07020700120EE
:1044A00070BD20688069C0438007D8D4002070BDEB
:1044B00070B505242407002280212046FDF753FC17
:1044C000022001F061FE0B4D012211462846FDF746
:1044D0004AFC022001F058FE002201212846FDF787
:1044E00042FC022001F050FE012280212046FDF70F
:1044F0003AFC70BD0004005010B505200122802157
:104500000007FDF730FC022001F03EFE084C0122BE
:1045100011462046FDF727FC022001F035FE00225F
:1045200001212046FDF71FFC022001F02DFE10BDE9
:1045300000040050F8B5074600240025144E60061C
:10454000040E012211463046FDF70DFC022001F059
:104550001BFE052080210007FDF7FEFB002801D08F
:10456000641CE4B2002201213046FDF7FCFB02206E
:1045700001F00AFE6D1CEDB2082DE0D3002F03D030
:10458000FFF796FF2046F8BDFFF7B6FFFAE70000F9
:1045900000040050F8B505460024184E05273F07D3
:1045A000280605D5012280213846FDF7DCFB04E012
:1045B000002280213846FDF7D6FB022001F0E4FD01
:1045C000012211463046FDF7CEFB022001F0DCFD52
:1045D000002201213046FDF7C6FB072C04D1012241
:1045E00080213846FDF7BFFB6806050E022001F06A
:1045F000CBFD641CE4B2082CD2D3F8BD00040050FB
:1046000070B505242407012280212046FDF7ABFB6D
:104610000C4D012211462846FDF7A5FB022001F0B2
:10462000B3FD002280212046FDF79DFB022001F012
:10463000ABFD002201212846FDF795FB022001F089
:10464000A3FD70BD0004005010B50524240700220E
:1046500080212046FDF787FB012211460548FDF722
:1046600082FB022001F090FD012280212046FDF70F
:104670007AFB10BD0004005070B505242407012208
:1046800080212046FDF76FFB022001F07DFD0E4DDD
:10469000012211462846FDF766FB022001F074FD59
:1046A00080212046FDF758FB002801D0012400E0BE
:1046B0000024002201212846FDF755FB022001F0CD
:1046C00063FD204670BD00000004005008B5084896
:1046D000016B012211430163006B10400090002226
:1046E00001210A20FDF744FE0A20FDF735FE08BD32
:1046F00000100240F0B587B0142102A8FBF76BFD53
:104700005C48C16A04221143C162C16A114001912F
:10471000C16A01252943C162C16A29400191C16A68
:1047200002263143C162C06A304001900520012257
:1047300080210007FDF717FBFF21012202314E48BF
:10474000FDF711FB4F210520002249020007FDF76C
:104750000AFB002208214848FDF705FBA803029048
:1047600021273F040397049502A94448FDF746FA20
:1047700002951120000403900496052002A9000769
:10478000FDF73CFA0C20029003970495052002A93E
:104790000007FDF733FA10200290039700240494D9
:1047A000052002A90007FDF729FA802002901120B8
:1047B0000390049403200590052002A90007FDF74B
:1047C0001DFA02951120039004940320059002A97C
:1047D0002948FDF713FA02960397049502A9264883
:1047E000FDF70CFA042002900394049502A92248D4
:1047F000FDF704FA2802029003940495052002A90B
:104800000007FDF7FBF94F20400202900395049446
:104810000594052002A90007FDF7F0F9781302902E
:1048200003950494059402A91348FDF7E7F9302095
:1048300002900394049402A90F48FDF7DFF90022C7
:1048400001210520FDF794FD0520FDF785FD0022DF
:1048500001210620FDF78CFD0620FDF77DFD0022DD
:1048600001210720FDF784FD0720FDF775FD07B046
:10487000F0BD00000010024000040050000800508D
:1048800010B5154813490160144941600021816049
:104890000122C260016141618161C1610162FDF774
:1048A00005FB002801D0FCF71FFB00210A48FDF79B
:1048B00067FA002801D0FCF717FB00210648FDF736
:1048C00086FA002801D0FCF70FFB01200003FDF75A
:1048D000A5FA10BD00540040040600201304100087
:1048E00010B50B4809490160002141607F228260B8
:1048F000FF22C260016141618161C161FEF7C6FAB8
:10490000002801D0FCF7F0FA10BD0000002800409C
:10491000A006002010B588B0142103A8FBF75BFCAB
:10492000002401940294154813490160FF2140318D
:1049300041608460FF21F431C160046180214161E4
:10494000FEF770FB002801D0FCF7CEFA0394049424
:1049500003A90A48FEF792FD002801D0FCF7C4FA2B
:104960000194029401A90548FEF730FB002801D00C
:10497000FCF7BAFA08B010BD000801400407002097
:1049800010B588B0142103A8FBF725FC002401947E
:1049900002941448124901601F2141608460124949
:1049A000C16004614461FEF73DFB002801D0FCF7C3
:1049B0009BFA0394049403A90A48FEF75FFD0028BC
:1049C00001D0FCF791FA0194029401A90548FEF781
:1049D000FDFA002801D0FCF787FA08B010BD0000EE
:1049E0000014014044070020FFFF00001CB5002414
:1049F000009401940E480D490160FF21403141604F
:104A000084600C49C16080214161FEF70BFB0028E6
:104A100001D0FCF769FA0094019469460448FEF756
:104A2000D5FA002801D0FCF75FFA1CBD0010004049
:104A3000C40600200F270000FEE7F0B587B0002570
:104A40000026171A5A1A049201900091681E002F2E
:104A500002DD0121039103E0002F07D003907F4284
:104A60000499002905DD0120029009E0002103914D
:104A7000F6E70499002908D0029004984042049077
:104A80000498874204DD3C4603E000200290F7E7EB
:104A9000049C00200590601C06901BE000980C9A76
:104AA000C1B20198C0B200F01BF8ED190498361895
:104AB000A54204DD2D1B0399019840180190A642E0
:104AC00004DD361B02990098401800900598401CA0
:104AD000C0B20590069905988842DFDD07B0F0BDA9
:104AE00010B57F2812D83F2910D8CB080724E31A25
:104AF000DBB22140641A0121A140C9B2064CC000BA
:104B00000019002A03D0C25C0A43C25410BDC25C23
:104B10008A43C25410BD0000E6070020F7B50C46DA
:104B2000009E651C761EE9B2F0B2029AFFF7D8FF2C
:104B3000F0B22146029AFFF7D3FF671EF9B2F0B236
:104B4000029AFFF7CDFFE9B2029A0098FFF7C8FF7B
:104B50002146029A0098FFF7C3FFF9B2029A009823
:104B6000FFF7BEFFE9B2009D029A6D1CE8B2FFF7A5
:104B7000B7FFE8B22146029AFFF7B2FFF9B2E8B2F6
:104B8000029AFFF7ADFFFEBDFFB505460F461E4674
:104B90000CE03C4606E021462846099AFFF7A0FFB4
:104BA000641CE4B2B442F6D96D1CEDB202988542A1
:104BB000EFD9FFBD10B50021AE2000F0CCF90021E7
:104BC000084600F0C8F90021102000F0C4F90021C7
:104BD000402000F0C0F90021B02000F0BCF9002115
:104BE000812000F0B8F90021FF2000F0B4F9002185
:104BF000A12000F0B0F90021A62000F0ACF90021BE
:104C0000A82000F0A8F900213F2000F0A4F900211D
:104C1000C82000F0A0F90021D32000F09CF9002169
:104C2000084600F098F90021D52000F094F9002101
:104C3000802000F090F90021D82000F08CF90021AC
:104C4000052000F088F90021D92000F084F9002126
:104C5000F12000F080F90021DA2000F07CF9002139
:104C6000122000F078F90021DB2000F074F9002117
:104C7000302000F070F900218D2000F06CF9002147
:104C8000142000F068F90021AF2000F064F910BD95
:104C900070B50024054DE00040190821FBF79BFA90
:104CA000641CE4B2802CF6D370BD0000E60700203F
:104CB000F0B5A1B000241A4E6D4620460021B03058
:104CC00000F049F90021084600F045F900211020C4
:104CD00000F041F90120FCF7EDFD40206946087025
:104CE0000021C8008019005D6A185070491CC9B2C3
:104CF0008029F6D30B4FB86BFCF7FAFC0128FAD1E8
:104D000081236A4678210748FDF732F90120FCF734
:104D1000D1FD641CE4B2082CCFD321B0F0BD00005B
:104D2000E607002004060020FFB583B00C461E46AF
:104D30000194F108700701D0012000E0002008185C
:104D400071084843C0B20090203AD0B20590082EB6
:104D500001D10520009000273EE0102E13D0082E30
:104D60003DD10598810040181E494018C55D0020BE
:104D7000029028060DD54020001BC1B20C9A039862
:104D8000FFF7AEFE0FE00598174900014018C55D1A
:104D9000EDE70C98002814D000224020001BC1B27F
:104DA0000398FFF79DFE6806050E641CE4B20198A7
:104DB000201AB04207D1019C0398401CC0B2039056
:104DC00008E00122E9E70298401CC0B20290029874
:104DD0000828CED37F1CFFB200988742BDD307B00E
:104DE000F0BD00000F7B0008EF7C0008F8B504461A
:104DF0000D4610461E46069F01F008FE0246334649
:104E000029462046009700F001F8F8BDFFB504469A
:104E10000D4616461F46780881210390081A029015
:104E20004120C01B0190082F16D12EE00298A0420D
:104E300002D20024E819C5B20198A84201DA002480
:104E40002546099800903B4629462046FFF76CFF0F
:104E500003980019C4B2761C3278002AE6D1FFBD4F
:104E60000298A04202D20024E819C5B20198A842D3
:104E700001DA00242546099800903B462946204641
:104E8000FFF752FF641DE4B2761C3278002AE7D1A6
:104E9000FFBDFFB5002400250C27002602988021C5
:104EA000405DA0400840E90708D0032C02D2641CF2
:104EB000E4B20BE06D1CADB2002407E0072C02D277
:104EC000641CE4B202E06D1CADB20024002809D0DD
:104ED0000398C2B20198C019C1B200988019C0B23B
:104EE000FFF7FEFD761CF6B20C2ED7D37F1EFFB265
:104EF000002FD2D1FFBDFFB500240027039808285A
:104F000028D30398400725D10398C6B220E0002596
:104F100019E002988021C05DA0400840002809D017
:104F20000998C2B201988019C1B200984019C0B264
:104F3000FFF7D6FD641CE4B2082C02D17F1CBFB27F
:104F400000246D1CEDB203988542E2D3761EF6B2C2
:104F5000002EDCD1FFBD10B5002903D0C0B200F097
:104F600097F910BDC0B200F07FF910BD10B5002157
:104F7000AE20FFF7F0FF10BD10B50021AF20FFF706
:104F8000EAFF10BD7047F8B5054600242868C168DF
:104F9000490619D4C16880221143C160FCF7EAFEBA
:104FA00007462E46203609E0FCF7E4FEC11B7D20B3
:104FB000C000814202D90420707001242868C068B2
:104FC000400601D4012CEFD12046F8BD70B504464F
:104FD00000252068C16880229143C16020688068F4
:104FE000800608D42046FDF7BFFF002803D0042028
:104FF000203460700125284670BD000010B50248BD
:10500000FDF726FF10BD0000A0060020F8B50746FA
:105010000C4615461E46FFF7F3FA3846FFF7BAFA74
:10502000FFF72AFB002802D0FFF70EFBF8BD200A8D
:10503000FFF7B0FAFFF720FBE0B2FFF7ABFAFFF79C
:105040001BFB002406E0305DFFF7A4FAFFF714FB1A
:10505000641CA4B2AC42F6D3FFF7F6FAF8BD704771
:1050600010B5FDF723F910BD10B59AB034210DA885
:10507000FBF7B1F8142108A8FBF7ADF81C2101A833
:10508000FBF7A9F81D4801680322D2029143C2141C
:10509000891801600A200D900120109010211191B3
:1050A00012900220169000241794400418900001DA
:1050B00019900DA8FDF798FB002801D0FBF714FF0D
:1050C0000F200890032009900A940B940C9401215E
:1050D00008A8FDF75DFA002801D0FBF705FF28209E
:1050E0000190069401204004029001A8FDF78EF97A
:1050F000002801D0FBF7F8FE1AB010BD0070004088
:105100007047000010B50248FEF757F810BD0000C8
:105110000407002010B50248FEF74FF810BD00004C
:10512000C406002070B5026801239B07114C124D84
:10513000984203D0A04201D0A84203D17026B243C6
:105140004E683243984203D0A04201D0A84204D115
:1051500003231B029A43CB681A4380239A430B69AB
:105160001A4302608A68C262096881620121416152
:1051700070BD0000000801400014014030B5846893
:10518000FF252D02AC431B0213430B4323438360D3
:1051900030BD70B50024026893687025AB434D683C
:1051A0001D43ED08ED000B682B4393604A6813071D
:1051B0001B0F31D11211130000F0ADF8082F2F2F63
:1051C0002F0C2228052E0B698A68C9680068FFF732
:1051D000D5FF22E00A68052A10D00268156A136A12
:1051E0005B085B00136202689369F026B3430969A8
:1051F000090119439161006805620EE0012070BD4C
:105200000A698968006800F00AF806E00A69896896
:10521000006800F015F800E00124204670BD30B5AC
:10522000036A046A6408640004628469F025AC437C
:10523000120122430A24A3430B438261036230BD5F
:1052400030B5036A1024A34303628369046A0F25FF
:105250002D03AB4312031A43A0239C4309012143AE
:105260008261016230BD00001FB503900121064834
:1052700003AA0B4600920191029000227821034874
:10528000FCF70AFF1FBD0000FFFF0000040600201E
:105290001FB503900121064803AA0B460092019115
:1052A0000290402278210348FCF7F6FE1FBD000063
:1052B000FFFF0000040600202021020C01D0102175
:1052C0001046020A01D010460839020901D01046E2
:1052D000091F820801D01046891E420801D0881E8D
:1052E0007047081A7047F8B5040C8BB2264682B294
:1052F0005E430D0C1046370C5843360480190021CC
:10530000794116466E43370C36048019794126469A
:105310006E438919F8BD30B47446641E2578641C48
:10532000AB4200D21D46635D5B00E31830BC1847FA
:105330004900CA020243100000D004204A0D01D0E7
:1053400001221043044A490D914201D10221084330
:10535000012800D105207047FF0700008307FF22C6
:10536000DB0E9A408907090E9940002808DB830864
:1053700009489B001818036893430B430360704768
:105380000007000F0838830804489B001818C369F9
:1053900093430B43C361704700E400E000ED00E07D
:1053A000F7B596B014460021A160D1601799099114
:1053B0004D00CD496D088D4205DC17996160206074
:1053C000002019B0F0BDC949C94E8D4238DAD32743
:1053D00009997F050029C74A1799334617DDFBF75E
:1053E00097F8B54206D0C44AC44BFBF791F8616008
:1053F000206009E03A46C14BFBF78AF8C04AC14B2E
:10540000FBF786F861602060012019B0F0BDFAF763
:10541000DBFFB54206D0B84AB84BFAF7D5FF61605A
:10542000206009E03A46B54BFAF7CEFFB44AB54BD7
:10543000FAF7CAFF616020600020C04319B0F0BDD8
:10544000B1498D42179977DC490049080746AF4AB0
:10545000AF4B0491FBF76AF80022AE4BFAF7B4FFAA
:10546000FBF7BEF90A90FBF763F9A24A33460391B2
:105470000290FBF75BF83A46049BFBF74FF80646B1
:105480000F469D4A9D4B03990298FBF74FF82A0D52
:1054900001250C9232463B46FBF740F861602060E4
:1054A000032D39D04800410D0C98401A6901691844
:1054B0001139814230DA98492801794408960D90D3
:1054C000081804974368026803990298FBF72EF8BE
:1054D00002460B460791069004990898FBF718F8C6
:1054E00006460F46049B089AFBF718F8079B069A96
:1054F000FBF70EF805918949049079440D984018FE
:10550000C368826803990298FBF710F8059B049A18
:10551000FAF7FEFF6D1CBDE70998002809DA0122A1
:105520006068D207504060600A9819B04042F0BDF0
:1055300002E00A9819B0F0BD09030122090B120517
:105540000E9089181798109140007549400D401829
:105550004111C006C00E0D9113902021081A14901D
:105560000020069005250790139800280D980CD070
:10557000401982006B487844875813998F4010185F
:1055800041681498C1400F4304E040198100664807
:105590007844475810993846FFF7A5FE06460A9109
:1055A00038460E99FFF79FFE8A190A9B8A4201D25C
:1055B000012100E00021C9188C46AF006946791826
:1055C0008B684E68C318834201D2012000E000209E
:1055D00096193618002802D0964202D903E0964266
:1055E00001D2012000E00020624612184E60684699
:1055F0008B60C25128466D1E0028B5DC012102983F
:1056000049074018800F1390029805998000039E67
:10561000049D0B91FBF78CF8074630460891FBF789
:105620009BF81D22D243FBF761F810900F9128469A
:10563000FBF792F83D22D243FBF758F80E900D91FC
:105640000B98FBF789F85D22D243FBF74FF80B91DB
:105650000C900D9B0E9AFAF7B7FE0F9B109AFAF773
:10566000B3FE3A46089BFAF7AFFE00250E463A46CF
:105670002846089BFAF74CFF0F9B109AFAF748FF51
:105680000D9B0E9AFAF744FF0B9B0C9AFAF746FF14
:10569000264A274BFAF74AFF07460D91254A264B23
:1056A00031462846FAF742FF3A460D9BFAF78CFE40
:1056B0000F4615220C9092061D4B31462846FAF7EC
:1056C00035FF3B460C9AFAF77FFE179A002A05DA57
:1056D000139A524213920122D20751406160206016
:1056E000139819B0F0BD0000FB21E93F7CD90240BE
:1056F000FB21F93F000040543163621A61B4D03D90
:105700007370032E8A19A33BFB21394183C8C96DED
:10571000305FE43F0000E03FF22E0000B22E0000B8
:105720000BFCFFFF662E00004C2E0000182D445489
:10573000FB21F93D3326A611460B113CF0B51FB4F1
:105740004E00F9207608800584B00F46864204DAC0
:105750000498FBF745F8002838D0049A3B461046D9
:105760001946FAF7E3FE044602462C480D460B465E
:105770000621784400F05CF822462B46FAF7D6FE64
:10578000019100903946079B069A0498FAF7CEFEDD
:105790000746029120462946019B009AFAF7C6FE69
:1057A0003A46029BFAF7B4FE074600220091D24324
:1057B00020462946FAF79AFF194A96420ADA3A46EB
:1057C000009BFAF7A5FE0022164B23E000201549A6
:1057D00009B0F0BD144A964202DD0024134D03E0E7
:1057E00001225205B51A002422462B46FAF790FEF4
:1057F0000646019122462B4600200A49FAF788FE08
:105800000D4604463A463046009B0199FAF780FE61
:1058100022462B46FAF782FE09B0F0BD022C0000AA
:105820003333D33F0000F03F0000E93F0000D23F98
:10583000F8B504464F1EC8000838211815461E4604
:10584000086849683A4606239A4310D02A463346E8
:10585000FAF76CFE3A46D200083AA3181A687F1E7F
:105860005B68FAF7B1FD06223B469343EED1022F67
:1058700023D0042F11D0062F2FD12A463346FAF712
:1058800055FEE36AA26AFAF79FFD2A463346FAF705
:105890004DFE636A226AFAF797FD2A463346FAF705
:1058A00045FEE369A269FAF78FFD2A463346FAF707
:1058B0003DFE63692269FAF787FD2A463346FAF707
:1058C00035FEE368A268FAF77FFD2A463346FAF709
:1058D0002DFE63682268FAF777FDF8BDF0B51FB4B6
:1058E000054648000C46F9214008890586B08842E3
:1058F0000BDA28462146FFF71BFD042801D100F0F2
:1059000089F8284621460BB0F0BD2A4623461046AA
:105910001946FAF70BFE06460F462A462346FAF7C3
:1059200005FE00902548019132463B46052178440A
:10593000FFF77EFF029010980391002829D0204A9B
:10594000204B01990098FAF7F1FD04900591684603
:105950000FC8FAF7EBFD002201910090D24309999C
:105960000898FAF7C3FE019B009AFAF7D1FD324678
:105970003B46FAF7DBFD099B089AFAF7C9FD059B40
:10598000049AFAF7C5FD2A462346FAF7C7FD0BB07D
:10599000F0BD0B4630463946029AFAF7C7FD084A71
:1059A000084BFAF711FD019B009AFAF7BFFD2A4652
:1059B0002346FAF709FD0BB0F0BD0000462B0000AE
:1059C000495555555555C5BF002210B513461046CB
:1059D0000149FAF713FE10BD0000F03F10B5012297
:1059E000FAF784FE10BD10B5FAF7EEFC10BD0022E8
:1059F00010B5134610461146FAF700FE10BD000020
:105A000010B50721024A00200907FAF76FFE10BD02
:105A100001030000034A10B500201107FAF766FEE3
:105A200010BD000001FDFFFF02E008C8121F08C101
:105A3000002AFAD170477047002001E001C1121F0F
:105A4000002AFBD170470000014908607047000040
:105A50000006002070B500F00FFC0A20FBF72AFFBB
:105A600000240E4D0E4E2857FAF756FE01462046EA
:105A700000F01AFB30206043801900F017F920462F
:105A800000F0CCF9641CE4B2092CECD90A20FBF735
:105A900011FF00F011F800F005F870BDF40D0020C2
:105AA000140C002010B503495520087000F0EAF8E6
:105AB00010BD00002B00002070B503216A48FBF7E1
:105AC0008BF849216948FBF787F868480021C01E18
:105AD000FBF782F865480021801EFBF77DF86348DC
